{
  "_format": "hh-sol-artifact-1",
  "contractName": "KiwiLock",
  "sourceName": "contracts/KiwiLock.sol",
  "abi": [
    {
      "inputs": [
        {
          "internalType": "address",
          "name": "target",
          "type": "address"
        }
      ],
      "name": "AddressEmptyCode",
      "type": "error"
    },
    {
      "inputs": [
        {
          "internalType": "address",
          "name": "account",
          "type": "address"
        }
      ],
      "name": "AddressInsufficientBalance",
      "type": "error"
    },
    {
      "inputs": [],
      "name": "FailedInnerCall",
      "type": "error"
    },
    {
      "inputs": [
        {
          "internalType": "address",
          "name": "token",
          "type": "address"
        }
      ],
      "name": "SafeERC20FailedOperation",
      "type": "error"
    },
    {
      "anonymous": false,
      "inputs": [
        {
          "indexed": true,
          "internalType": "uint256",
          "name": "id",
          "type": "uint256"
        },
        {
          "indexed": false,
          "internalType": "address",
          "name": "token",
          "type": "address"
        },
        {
          "indexed": false,
          "internalType": "address",
          "name": "owner",
          "type": "address"
        },
        {
          "indexed": false,
          "internalType": "uint256",
          "name": "amount",
          "type": "uint256"
        },
        {
          "indexed": false,
          "internalType": "uint256",
          "name": "unlockDate",
          "type": "uint256"
        }
      ],
      "name": "LockAdded",
      "type": "event"
    },
    {
      "anonymous": false,
      "inputs": [
        {
          "indexed": false,
          "internalType": "uint256",
          "name": "lockId",
          "type": "uint256"
        }
      ],
      "name": "LockDescriptionChanged",
      "type": "event"
    },
    {
      "anonymous": false,
      "inputs": [
        {
          "indexed": false,
          "internalType": "uint256",
          "name": "lockId",
          "type": "uint256"
        },
        {
          "indexed": false,
          "internalType": "address",
          "name": "owner",
          "type": "address"
        },
        {
          "indexed": false,
          "internalType": "address",
          "name": "newOwner",
          "type": "address"
        }
      ],
      "name": "LockOwnerChanged",
      "type": "event"
    },
    {
      "anonymous": false,
      "inputs": [
        {
          "indexed": true,
          "internalType": "uint256",
          "name": "id",
          "type": "uint256"
        },
        {
          "indexed": false,
          "internalType": "address",
          "name": "token",
          "type": "address"
        },
        {
          "indexed": false,
          "internalType": "address",
          "name": "owner",
          "type": "address"
        },
        {
          "indexed": false,
          "internalType": "uint256",
          "name": "amount",
          "type": "uint256"
        },
        {
          "indexed": false,
          "internalType": "uint256",
          "name": "unlockedAt",
          "type": "uint256"
        }
      ],
      "name": "LockRemoved",
      "type": "event"
    },
    {
      "anonymous": false,
      "inputs": [
        {
          "indexed": true,
          "internalType": "uint256",
          "name": "id",
          "type": "uint256"
        },
        {
          "indexed": false,
          "internalType": "address",
          "name": "token",
          "type": "address"
        },
        {
          "indexed": false,
          "internalType": "address",
          "name": "owner",
          "type": "address"
        },
        {
          "indexed": false,
          "internalType": "uint256",
          "name": "newAmount",
          "type": "uint256"
        },
        {
          "indexed": false,
          "internalType": "uint256",
          "name": "newUnlockDate",
          "type": "uint256"
        }
      ],
      "name": "LockUpdated",
      "type": "event"
    },
    {
      "anonymous": false,
      "inputs": [
        {
          "indexed": true,
          "internalType": "uint256",
          "name": "id",
          "type": "uint256"
        },
        {
          "indexed": false,
          "internalType": "address",
          "name": "token",
          "type": "address"
        },
        {
          "indexed": false,
          "internalType": "address",
          "name": "owner",
          "type": "address"
        },
        {
          "indexed": false,
          "internalType": "uint256",
          "name": "amount",
          "type": "uint256"
        },
        {
          "indexed": false,
          "internalType": "uint256",
          "name": "remaining",
          "type": "uint256"
        },
        {
          "indexed": false,
          "internalType": "uint256",
          "name": "timestamp",
          "type": "uint256"
        }
      ],
      "name": "LockVested",
      "type": "event"
    },
    {
      "inputs": [],
      "name": "allLpTokenLockedCount",
      "outputs": [
        {
          "internalType": "uint256",
          "name": "",
          "type": "uint256"
        }
      ],
      "stateMutability": "view",
      "type": "function"
    },
    {
      "inputs": [],
      "name": "allNormalTokenLockedCount",
      "outputs": [
        {
          "internalType": "uint256",
          "name": "",
          "type": "uint256"
        }
      ],
      "stateMutability": "view",
      "type": "function"
    },
    {
      "inputs": [
        {
          "internalType": "address",
          "name": "",
          "type": "address"
        }
      ],
      "name": "cumulativeLockInfo",
      "outputs": [
        {
          "internalType": "address",
          "name": "token",
          "type": "address"
        },
        {
          "internalType": "address",
          "name": "factory",
          "type": "address"
        },
        {
          "internalType": "uint256",
          "name": "amount",
          "type": "uint256"
        }
      ],
      "stateMutability": "view",
      "type": "function"
    },
    {
      "inputs": [
        {
          "internalType": "uint256",
          "name": "lockId",
          "type": "uint256"
        },
        {
          "internalType": "uint256",
          "name": "newAmount",
          "type": "uint256"
        },
        {
          "internalType": "uint256",
          "name": "newUnlockDate",
          "type": "uint256"
        }
      ],
      "name": "editLock",
      "outputs": [],
      "stateMutability": "nonpayable",
      "type": "function"
    },
    {
      "inputs": [
        {
          "internalType": "uint256",
          "name": "lockId",
          "type": "uint256"
        },
        {
          "internalType": "string",
          "name": "description",
          "type": "string"
        }
      ],
      "name": "editLockDescription",
      "outputs": [],
      "stateMutability": "nonpayable",
      "type": "function"
    },
    {
      "inputs": [
        {
          "internalType": "uint256",
          "name": "start",
          "type": "uint256"
        },
        {
          "internalType": "uint256",
          "name": "end",
          "type": "uint256"
        }
      ],
      "name": "getCumulativeLpTokenLockInfo",
      "outputs": [
        {
          "components": [
            {
              "internalType": "address",
              "name": "token",
              "type": "address"
            },
            {
              "internalType": "address",
              "name": "factory",
              "type": "address"
            },
            {
              "internalType": "uint256",
              "name": "amount",
              "type": "uint256"
            }
          ],
          "internalType": "struct KiwiLock.CumulativeLockInfo[]",
          "name": "",
          "type": "tuple[]"
        }
      ],
      "stateMutability": "view",
      "type": "function"
    },
    {
      "inputs": [
        {
          "internalType": "uint256",
          "name": "index",
          "type": "uint256"
        }
      ],
      "name": "getCumulativeLpTokenLockInfoAt",
      "outputs": [
        {
          "components": [
            {
              "internalType": "address",
              "name": "token",
              "type": "address"
            },
            {
              "internalType": "address",
              "name": "factory",
              "type": "address"
            },
            {
              "internalType": "uint256",
              "name": "amount",
              "type": "uint256"
            }
          ],
          "internalType": "struct KiwiLock.CumulativeLockInfo",
          "name": "",
          "type": "tuple"
        }
      ],
      "stateMutability": "view",
      "type": "function"
    },
    {
      "inputs": [
        {
          "internalType": "uint256",
          "name": "start",
          "type": "uint256"
        },
        {
          "internalType": "uint256",
          "name": "end",
          "type": "uint256"
        }
      ],
      "name": "getCumulativeNormalTokenLockInfo",
      "outputs": [
        {
          "components": [
            {
              "internalType": "address",
              "name": "token",
              "type": "address"
            },
            {
              "internalType": "address",
              "name": "factory",
              "type": "address"
            },
            {
              "internalType": "uint256",
              "name": "amount",
              "type": "uint256"
            }
          ],
          "internalType": "struct KiwiLock.CumulativeLockInfo[]",
          "name": "",
          "type": "tuple[]"
        }
      ],
      "stateMutability": "view",
      "type": "function"
    },
    {
      "inputs": [
        {
          "internalType": "uint256",
          "name": "index",
          "type": "uint256"
        }
      ],
      "name": "getCumulativeNormalTokenLockInfoAt",
      "outputs": [
        {
          "components": [
            {
              "internalType": "address",
              "name": "token",
              "type": "address"
            },
            {
              "internalType": "address",
              "name": "factory",
              "type": "address"
            },
            {
              "internalType": "uint256",
              "name": "amount",
              "type": "uint256"
            }
          ],
          "internalType": "struct KiwiLock.CumulativeLockInfo",
          "name": "",
          "type": "tuple"
        }
      ],
      "stateMutability": "view",
      "type": "function"
    },
    {
      "inputs": [
        {
          "internalType": "uint256",
          "name": "index",
          "type": "uint256"
        }
      ],
      "name": "getLockAt",
      "outputs": [
        {
          "components": [
            {
              "internalType": "uint256",
              "name": "id",
              "type": "uint256"
            },
            {
              "internalType": "address",
              "name": "token",
              "type": "address"
            },
            {
              "internalType": "address",
              "name": "owner",
              "type": "address"
            },
            {
              "internalType": "uint256",
              "name": "amount",
              "type": "uint256"
            },
            {
              "internalType": "uint256",
              "name": "lockDate",
              "type": "uint256"
            },
            {
              "internalType": "uint256",
              "name": "tgeDate",
              "type": "uint256"
            },
            {
              "internalType": "uint256",
              "name": "tgeBps",
              "type": "uint256"
            },
            {
              "internalType": "uint256",
              "name": "cycle",
              "type": "uint256"
            },
            {
              "internalType": "uint256",
              "name": "cycleBps",
              "type": "uint256"
            },
            {
              "internalType": "uint256",
              "name": "unlockedAmount",
              "type": "uint256"
            },
            {
              "internalType": "string",
              "name": "description",
              "type": "string"
            }
          ],
          "internalType": "struct KiwiLock.Lock",
          "name": "",
          "type": "tuple"
        }
      ],
      "stateMutability": "view",
      "type": "function"
    },
    {
      "inputs": [
        {
          "internalType": "uint256",
          "name": "lockId",
          "type": "uint256"
        }
      ],
      "name": "getLockById",
      "outputs": [
        {
          "components": [
            {
              "internalType": "uint256",
              "name": "id",
              "type": "uint256"
            },
            {
              "internalType": "address",
              "name": "token",
              "type": "address"
            },
            {
              "internalType": "address",
              "name": "owner",
              "type": "address"
            },
            {
              "internalType": "uint256",
              "name": "amount",
              "type": "uint256"
            },
            {
              "internalType": "uint256",
              "name": "lockDate",
              "type": "uint256"
            },
            {
              "internalType": "uint256",
              "name": "tgeDate",
              "type": "uint256"
            },
            {
              "internalType": "uint256",
              "name": "tgeBps",
              "type": "uint256"
            },
            {
              "internalType": "uint256",
              "name": "cycle",
              "type": "uint256"
            },
            {
              "internalType": "uint256",
              "name": "cycleBps",
              "type": "uint256"
            },
            {
              "internalType": "uint256",
              "name": "unlockedAmount",
              "type": "uint256"
            },
            {
              "internalType": "string",
              "name": "description",
              "type": "string"
            }
          ],
          "internalType": "struct KiwiLock.Lock",
          "name": "",
          "type": "tuple"
        }
      ],
      "stateMutability": "view",
      "type": "function"
    },
    {
      "inputs": [
        {
          "internalType": "address",
          "name": "token",
          "type": "address"
        },
        {
          "internalType": "uint256",
          "name": "start",
          "type": "uint256"
        },
        {
          "internalType": "uint256",
          "name": "end",
          "type": "uint256"
        }
      ],
      "name": "getLocksForToken",
      "outputs": [
        {
          "components": [
            {
              "internalType": "uint256",
              "name": "id",
              "type": "uint256"
            },
            {
              "internalType": "address",
              "name": "token",
              "type": "address"
            },
            {
              "internalType": "address",
              "name": "owner",
              "type": "address"
            },
            {
              "internalType": "uint256",
              "name": "amount",
              "type": "uint256"
            },
            {
              "internalType": "uint256",
              "name": "lockDate",
              "type": "uint256"
            },
            {
              "internalType": "uint256",
              "name": "tgeDate",
              "type": "uint256"
            },
            {
              "internalType": "uint256",
              "name": "tgeBps",
              "type": "uint256"
            },
            {
              "internalType": "uint256",
              "name": "cycle",
              "type": "uint256"
            },
            {
              "internalType": "uint256",
              "name": "cycleBps",
              "type": "uint256"
            },
            {
              "internalType": "uint256",
              "name": "unlockedAmount",
              "type": "uint256"
            },
            {
              "internalType": "string",
              "name": "description",
              "type": "string"
            }
          ],
          "internalType": "struct KiwiLock.Lock[]",
          "name": "",
          "type": "tuple[]"
        }
      ],
      "stateMutability": "view",
      "type": "function"
    },
    {
      "inputs": [],
      "name": "getTotalLockCount",
      "outputs": [
        {
          "internalType": "uint256",
          "name": "",
          "type": "uint256"
        }
      ],
      "stateMutability": "view",
      "type": "function"
    },
    {
      "inputs": [
        {
          "internalType": "address",
          "name": "owner",
          "type": "address"
        },
        {
          "internalType": "address",
          "name": "token",
          "type": "address"
        },
        {
          "internalType": "bool",
          "name": "isLpToken",
          "type": "bool"
        },
        {
          "internalType": "uint256",
          "name": "amount",
          "type": "uint256"
        },
        {
          "internalType": "uint256",
          "name": "unlockDate",
          "type": "uint256"
        },
        {
          "internalType": "string",
          "name": "description",
          "type": "string"
        }
      ],
      "name": "lock",
      "outputs": [
        {
          "internalType": "uint256",
          "name": "id",
          "type": "uint256"
        }
      ],
      "stateMutability": "payable",
      "type": "function"
    },
    {
      "inputs": [
        {
          "internalType": "address",
          "name": "user",
          "type": "address"
        }
      ],
      "name": "lpLockCountForUser",
      "outputs": [
        {
          "internalType": "uint256",
          "name": "",
          "type": "uint256"
        }
      ],
      "stateMutability": "view",
      "type": "function"
    },
    {
      "inputs": [
        {
          "internalType": "address",
          "name": "user",
          "type": "address"
        },
        {
          "internalType": "uint256",
          "name": "index",
          "type": "uint256"
        }
      ],
      "name": "lpLockForUserAtIndex",
      "outputs": [
        {
          "components": [
            {
              "internalType": "uint256",
              "name": "id",
              "type": "uint256"
            },
            {
              "internalType": "address",
              "name": "token",
              "type": "address"
            },
            {
              "internalType": "address",
              "name": "owner",
              "type": "address"
            },
            {
              "internalType": "uint256",
              "name": "amount",
              "type": "uint256"
            },
            {
              "internalType": "uint256",
              "name": "lockDate",
              "type": "uint256"
            },
            {
              "internalType": "uint256",
              "name": "tgeDate",
              "type": "uint256"
            },
            {
              "internalType": "uint256",
              "name": "tgeBps",
              "type": "uint256"
            },
            {
              "internalType": "uint256",
              "name": "cycle",
              "type": "uint256"
            },
            {
              "internalType": "uint256",
              "name": "cycleBps",
              "type": "uint256"
            },
            {
              "internalType": "uint256",
              "name": "unlockedAmount",
              "type": "uint256"
            },
            {
              "internalType": "string",
              "name": "description",
              "type": "string"
            }
          ],
          "internalType": "struct KiwiLock.Lock",
          "name": "",
          "type": "tuple"
        }
      ],
      "stateMutability": "view",
      "type": "function"
    },
    {
      "inputs": [
        {
          "internalType": "address",
          "name": "user",
          "type": "address"
        }
      ],
      "name": "lpLocksForUser",
      "outputs": [
        {
          "components": [
            {
              "internalType": "uint256",
              "name": "id",
              "type": "uint256"
            },
            {
              "internalType": "address",
              "name": "token",
              "type": "address"
            },
            {
              "internalType": "address",
              "name": "owner",
              "type": "address"
            },
            {
              "internalType": "uint256",
              "name": "amount",
              "type": "uint256"
            },
            {
              "internalType": "uint256",
              "name": "lockDate",
              "type": "uint256"
            },
            {
              "internalType": "uint256",
              "name": "tgeDate",
              "type": "uint256"
            },
            {
              "internalType": "uint256",
              "name": "tgeBps",
              "type": "uint256"
            },
            {
              "internalType": "uint256",
              "name": "cycle",
              "type": "uint256"
            },
            {
              "internalType": "uint256",
              "name": "cycleBps",
              "type": "uint256"
            },
            {
              "internalType": "uint256",
              "name": "unlockedAmount",
              "type": "uint256"
            },
            {
              "internalType": "string",
              "name": "description",
              "type": "string"
            }
          ],
          "internalType": "struct KiwiLock.Lock[]",
          "name": "",
          "type": "tuple[]"
        }
      ],
      "stateMutability": "view",
      "type": "function"
    },
    {
      "inputs": [
        {
          "internalType": "address",
          "name": "user",
          "type": "address"
        }
      ],
      "name": "normalLockCountForUser",
      "outputs": [
        {
          "internalType": "uint256",
          "name": "",
          "type": "uint256"
        }
      ],
      "stateMutability": "view",
      "type": "function"
    },
    {
      "inputs": [
        {
          "internalType": "address",
          "name": "user",
          "type": "address"
        },
        {
          "internalType": "uint256",
          "name": "index",
          "type": "uint256"
        }
      ],
      "name": "normalLockForUserAtIndex",
      "outputs": [
        {
          "components": [
            {
              "internalType": "uint256",
              "name": "id",
              "type": "uint256"
            },
            {
              "internalType": "address",
              "name": "token",
              "type": "address"
            },
            {
              "internalType": "address",
              "name": "owner",
              "type": "address"
            },
            {
              "internalType": "uint256",
              "name": "amount",
              "type": "uint256"
            },
            {
              "internalType": "uint256",
              "name": "lockDate",
              "type": "uint256"
            },
            {
              "internalType": "uint256",
              "name": "tgeDate",
              "type": "uint256"
            },
            {
              "internalType": "uint256",
              "name": "tgeBps",
              "type": "uint256"
            },
            {
              "internalType": "uint256",
              "name": "cycle",
              "type": "uint256"
            },
            {
              "internalType": "uint256",
              "name": "cycleBps",
              "type": "uint256"
            },
            {
              "internalType": "uint256",
              "name": "unlockedAmount",
              "type": "uint256"
            },
            {
              "internalType": "string",
              "name": "description",
              "type": "string"
            }
          ],
          "internalType": "struct KiwiLock.Lock",
          "name": "",
          "type": "tuple"
        }
      ],
      "stateMutability": "view",
      "type": "function"
    },
    {
      "inputs": [
        {
          "internalType": "address",
          "name": "user",
          "type": "address"
        }
      ],
      "name": "normalLocksForUser",
      "outputs": [
        {
          "components": [
            {
              "internalType": "uint256",
              "name": "id",
              "type": "uint256"
            },
            {
              "internalType": "address",
              "name": "token",
              "type": "address"
            },
            {
              "internalType": "address",
              "name": "owner",
              "type": "address"
            },
            {
              "internalType": "uint256",
              "name": "amount",
              "type": "uint256"
            },
            {
              "internalType": "uint256",
              "name": "lockDate",
              "type": "uint256"
            },
            {
              "internalType": "uint256",
              "name": "tgeDate",
              "type": "uint256"
            },
            {
              "internalType": "uint256",
              "name": "tgeBps",
              "type": "uint256"
            },
            {
              "internalType": "uint256",
              "name": "cycle",
              "type": "uint256"
            },
            {
              "internalType": "uint256",
              "name": "cycleBps",
              "type": "uint256"
            },
            {
              "internalType": "uint256",
              "name": "unlockedAmount",
              "type": "uint256"
            },
            {
              "internalType": "string",
              "name": "description",
              "type": "string"
            }
          ],
          "internalType": "struct KiwiLock.Lock[]",
          "name": "",
          "type": "tuple[]"
        }
      ],
      "stateMutability": "view",
      "type": "function"
    },
    {
      "inputs": [
        {
          "internalType": "uint256",
          "name": "lockId",
          "type": "uint256"
        }
      ],
      "name": "renounceLockOwnership",
      "outputs": [],
      "stateMutability": "nonpayable",
      "type": "function"
    },
    {
      "inputs": [
        {
          "internalType": "address",
          "name": "token",
          "type": "address"
        }
      ],
      "name": "totalLockCountForToken",
      "outputs": [
        {
          "internalType": "uint256",
          "name": "",
          "type": "uint256"
        }
      ],
      "stateMutability": "view",
      "type": "function"
    },
    {
      "inputs": [
        {
          "internalType": "address",
          "name": "user",
          "type": "address"
        }
      ],
      "name": "totalLockCountForUser",
      "outputs": [
        {
          "internalType": "uint256",
          "name": "",
          "type": "uint256"
        }
      ],
      "stateMutability": "view",
      "type": "function"
    },
    {
      "inputs": [],
      "name": "totalTokenLockedCount",
      "outputs": [
        {
          "internalType": "uint256",
          "name": "",
          "type": "uint256"
        }
      ],
      "stateMutability": "view",
      "type": "function"
    },
    {
      "inputs": [
        {
          "internalType": "uint256",
          "name": "lockId",
          "type": "uint256"
        },
        {
          "internalType": "address",
          "name": "newOwner",
          "type": "address"
        }
      ],
      "name": "transferLockOwnership",
      "outputs": [],
      "stateMutability": "nonpayable",
      "type": "function"
    },
    {
      "inputs": [
        {
          "internalType": "uint256",
          "name": "lockId",
          "type": "uint256"
        }
      ],
      "name": "unlock",
      "outputs": [],
      "stateMutability": "nonpayable",
      "type": "function"
    },
    {
      "inputs": [
        {
          "internalType": "address",
          "name": "owner",
          "type": "address"
        },
        {
          "internalType": "address",
          "name": "token",
          "type": "address"
        },
        {
          "internalType": "bool",
          "name": "isLpToken",
          "type": "bool"
        },
        {
          "internalType": "uint256",
          "name": "amount",
          "type": "uint256"
        },
        {
          "internalType": "uint256",
          "name": "tgeDate",
          "type": "uint256"
        },
        {
          "internalType": "uint256",
          "name": "tgeBps",
          "type": "uint256"
        },
        {
          "internalType": "uint256",
          "name": "cycle",
          "type": "uint256"
        },
        {
          "internalType": "uint256",
          "name": "cycleBps",
          "type": "uint256"
        },
        {
          "internalType": "string",
          "name": "description",
          "type": "string"
        }
      ],
      "name": "vestingLock",
      "outputs": [
        {
          "internalType": "uint256",
          "name": "id",
          "type": "uint256"
        }
      ],
      "stateMutability": "payable",
      "type": "function"
    },
    {
      "inputs": [
        {
          "internalType": "uint256",
          "name": "lockId",
          "type": "uint256"
        }
      ],
      "name": "withdrawableTokens",
      "outputs": [
        {
          "internalType": "uint256",
          "name": "",
          "type": "uint256"
        }
      ],
      "stateMutability": "view",
      "type": "function"
    }
  ],
  "bytecode": "0x608060405234801561001057600080fd5b5061613780620000216000396000f3fe6080604052600436106101b75760003560e01c8063a57e3141116100ec578063d3cac8851161008a578063e3676f8811610064578063e3676f88146106c2578063eb80bdae146106ff578063eeacf7861461073c578063fd981c6614610779576101b7565b8063d3cac8851461061d578063da1d8cff14610646578063e1444fd614610683576101b7565b8063b3b9aa48116100c6578063b3b9aa481461055c578063b982922e14610585578063cb645e32146105b0578063cd83eadc146105e0576101b7565b8063a57e3141146104b9578063aec640c6146104e2578063aef0e5401461051f576101b7565b80635a04fb69116101595780636dbdeab3116101335780636dbdeab3146103c557806376c12822146104025780637e6706d31461043f578063a20b8c181461047c576101b7565b80635a04fb6914610336578063618df7a31461035f5780636198e3391461039c576101b7565b80630d4f581a116101955780630d4f581a146102665780631982242c146102a3578063332f26d7146102ce578063475831c81461030b576101b7565b806307279357146101bc57806307873ef1146101ec57806308f1247014610229575b600080fd5b6101d660048036038101906101d19190614707565b6107a4565b6040516101e391906147bf565b60405180910390f35b3480156101f857600080fd5b50610213600480360381019061020e91906147da565b610902565b60405161022091906147bf565b60405180910390f35b34801561023557600080fd5b50610250600480360381019061024b9190614807565b610952565b60405161025d91906149c0565b60405180910390f35b34801561027257600080fd5b5061028d60048036038101906102889190614807565b610b25565b60405161029a91906149c0565b60405180910390f35b3480156102af57600080fd5b506102b8610cf0565b6040516102c591906147bf565b60405180910390f35b3480156102da57600080fd5b506102f560048036038101906102f091906149e2565b610d11565b6040516103029190614be6565b60405180910390f35b34801561031757600080fd5b50610320610ede565b60405161032d91906147bf565b60405180910390f35b34801561034257600080fd5b5061035d60048036038101906103589190614c08565b610eef565b005b34801561036b57600080fd5b5061038660048036038101906103819190614c48565b611258565b60405161039391906149c0565b60405180910390f35b3480156103a857600080fd5b506103c360048036038101906103be9190614807565b61130b565b005b3480156103d157600080fd5b506103ec60048036038101906103e79190614807565b6113ff565b6040516103f991906147bf565b60405180910390f35b34801561040e57600080fd5b5061042960048036038101906104249190614c88565b61141e565b6040516104369190614db9565b60405180910390f35b34801561044b57600080fd5b5061046660048036038101906104619190614807565b61162a565b6040516104739190614e1d565b60405180910390f35b34801561048857600080fd5b506104a3600480360381019061049e9190614807565b61174c565b6040516104b09190614e1d565b60405180910390f35b3480156104c557600080fd5b506104e060048036038101906104db9190614807565b61186e565b005b3480156104ee57600080fd5b5061050960048036038101906105049190614c88565b61187c565b6040516105169190614db9565b60405180910390f35b34801561052b57600080fd5b50610546600480360381019061054191906147da565b611a88565b6040516105539190614be6565b60405180910390f35b34801561056857600080fd5b50610583600480360381019061057e9190614e38565b611bcd565b005b34801561059157600080fd5b5061059a611f05565b6040516105a791906147bf565b60405180910390f35b6105ca60048036038101906105c59190614e8b565b611f16565b6040516105d791906147bf565b60405180910390f35b3480156105ec57600080fd5b50610607600480360381019061060291906147da565b6121a8565b60405161061491906147bf565b60405180910390f35b34801561062957600080fd5b50610644600480360381019061063f9190614f71565b6121cd565b005b34801561065257600080fd5b5061066d600480360381019061066891906147da565b6122e6565b60405161067a9190614be6565b60405180910390f35b34801561068f57600080fd5b506106aa60048036038101906106a591906147da565b61242b565b6040516106b993929190614fdc565b60405180910390f35b3480156106ce57600080fd5b506106e960048036038101906106e491906147da565b612495565b6040516106f691906147bf565b60405180910390f35b34801561070b57600080fd5b50610726600480360381019061072191906147da565b6124e5565b60405161073391906147bf565b60405180910390f35b34801561074857600080fd5b50610763600480360381019061075e9190614c48565b612535565b60405161077091906149c0565b60405180910390f35b34801561078557600080fd5b5061078e6125e8565b60405161079b91906147bf565b60405180910390f35b60008073ffffffffffffffffffffffffffffffffffffffff168673ffffffffffffffffffffffffffffffffffffffff1603610814576040517f08c379a000000000000000000000000000000000000000000000000000000000815260040161080b90615070565b60405180910390fd5b60008411610857576040517f08c379a000000000000000000000000000000000000000000000000000000000815260040161084e906150dc565b60405180910390fd5b428311610899576040517f08c379a00000000000000000000000000000000000000000000000000000000081526004016108909061516e565b60405180910390fd5b6108ac878787878760008060008a6125f4565b90506108ba86333087612642565b807f694af1cc8727cdd0afbdd53d9b87b69248bd490224e9dd090e788546506e076f878987876040516108f0949392919061518e565b60405180910390a29695505050505050565b600061094b600160008473ffffffffffffffffffffffffffffffffffffffff1673ffffffffffffffffffffffffffffffffffffffff1681526020019081526020016000206127c0565b9050919050565b61095a61440e565b6000610965836127d5565b81548110610976576109756151d3565b5b90600052602060002090600b020160405180610160016040529081600082015481526020016001820160009054906101000a900473ffffffffffffffffffffffffffffffffffffffff1673ffffffffffffffffffffffffffffffffffffffff1673ffffffffffffffffffffffffffffffffffffffff1681526020016002820160009054906101000a900473ffffffffffffffffffffffffffffffffffffffff1673ffffffffffffffffffffffffffffffffffffffff1673ffffffffffffffffffffffffffffffffffffffff16815260200160038201548152602001600482015481526020016005820154815260200160068201548152602001600782015481526020016008820154815260200160098201548152602001600a82018054610a9c90615231565b80601f0160208091040260200160405190810160405280929190818152602001828054610ac890615231565b8015610b155780601f10610aea57610100808354040283529160200191610b15565b820191906000526020600020905b815481529060010190602001808311610af857829003601f168201915b5050505050815250509050919050565b610b2d61440e565b60008281548110610b4157610b406151d3565b5b90600052602060002090600b020160405180610160016040529081600082015481526020016001820160009054906101000a900473ffffffffffffffffffffffffffffffffffffffff1673ffffffffffffffffffffffffffffffffffffffff1673ffffffffffffffffffffffffffffffffffffffff1681526020016002820160009054906101000a900473ffffffffffffffffffffffffffffffffffffffff1673ffffffffffffffffffffffffffffffffffffffff1673ffffffffffffffffffffffffffffffffffffffff16815260200160038201548152602001600482015481526020016005820154815260200160068201548152602001600782015481526020016008820154815260200160098201548152602001600a82018054610c6790615231565b80601f0160208091040260200160405190810160405280929190818152602001828054610c9390615231565b8015610ce05780601f10610cb557610100808354040283529160200191610ce0565b820191906000526020600020905b815481529060010190602001808311610cc357829003601f168201915b5050505050815250509050919050565b6000610cfa610ede565b610d02611f05565b610d0c9190615291565b905090565b6060610d5a600860008673ffffffffffffffffffffffffffffffffffffffff1673ffffffffffffffffffffffffffffffffffffffff1681526020019081526020016000206127c0565b8210610db6576001610da9600860008773ffffffffffffffffffffffffffffffffffffffff1673ffffffffffffffffffffffffffffffffffffffff1681526020019081526020016000206127c0565b610db391906152c5565b91505b600060018484610dc691906152c5565b610dd09190615291565b905060008167ffffffffffffffff811115610dee57610ded6145dc565b5b604051908082528060200260200182016040528015610e2757816020015b610e1461440e565b815260200190600190039081610e0c5790505b5090506000808690505b858111610ed057610e91610e8c82600860008c73ffffffffffffffffffffffffffffffffffffffff1673ffffffffffffffffffffffffffffffffffffffff16815260200190815260200160002061288090919063ffffffff16565b610952565b838381518110610ea457610ea36151d3565b5b60200260200101819052508180610eba906152f9565b9250508080610ec8906152f9565b915050610e31565b508193505050509392505050565b6000610eea600561289a565b905090565b81610ef9816127d5565b50600080610f06856127d5565b81548110610f1757610f166151d3565b5b90600052602060002090600b0201905060008160020160009054906101000a900473ffffffffffffffffffffffffffffffffffffffff1690503373ffffffffffffffffffffffffffffffffffffffff168173ffffffffffffffffffffffffffffffffffffffff1614610fbe576040517f08c379a0000000000000000000000000000000000000000000000000000000008152600401610fb5906153b3565b60405180910390fd5b838260020160006101000a81548173ffffffffffffffffffffffffffffffffffffffff021916908373ffffffffffffffffffffffffffffffffffffffff1602179055506000600760008460010160009054906101000a900473ffffffffffffffffffffffffffffffffffffffff1673ffffffffffffffffffffffffffffffffffffffff1673ffffffffffffffffffffffffffffffffffffffff168152602001908152602001600020905060008073ffffffffffffffffffffffffffffffffffffffff168260010160009054906101000a900473ffffffffffffffffffffffffffffffffffffffff1673ffffffffffffffffffffffffffffffffffffffff1614159050801561116f5761111787600160008673ffffffffffffffffffffffffffffffffffffffff1673ffffffffffffffffffffffffffffffffffffffff1681526020019081526020016000206128af90919063ffffffff16565b5061116987600160008973ffffffffffffffffffffffffffffffffffffffff1673ffffffffffffffffffffffffffffffffffffffff1681526020019081526020016000206128c990919063ffffffff16565b50611214565b6111c087600260008673ffffffffffffffffffffffffffffffffffffffff1673ffffffffffffffffffffffffffffffffffffffff1681526020019081526020016000206128af90919063ffffffff16565b5061121287600260008973ffffffffffffffffffffffffffffffffffffffff1673ffffffffffffffffffffffffffffffffffffffff1681526020019081526020016000206128c990919063ffffffff16565b505b7f9075ad040756c0d8743a1fed927066a92c4755071615bf61e04b17583d961caf878488604051611247939291906153d3565b60405180910390a150505050505050565b61126061440e565b8161126a846124e5565b116112aa576040517f08c379a00000000000000000000000000000000000000000000000000000000081526004016112a190615456565b60405180910390fd5b6113036112fe83600260008773ffffffffffffffffffffffffffffffffffffffff1673ffffffffffffffffffffffffffffffffffffffff16815260200190815260200160002061288090919063ffffffff16565b610952565b905092915050565b80611315816127d5565b50600080611322846127d5565b81548110611333576113326151d3565b5b90600052602060002090600b020190503373ffffffffffffffffffffffffffffffffffffffff168160020160009054906101000a900473ffffffffffffffffffffffffffffffffffffffff1673ffffffffffffffffffffffffffffffffffffffff16146113d5576040517f08c379a00000000000000000000000000000000000000000000000000000000081526004016113cc906153b3565b60405180910390fd5b6000816006015411156113f0576113eb816128e3565b6113fa565b6113f981612f10565b5b505050565b60008061140b83610952565b90506114168161331a565b915050919050565b606061142a600561289a565b821061144957600161143c600561289a565b61144691906152c5565b91505b60006001848461145991906152c5565b6114639190615291565b905060008167ffffffffffffffff811115611481576114806145dc565b5b6040519080825280602002602001820160405280156114ba57816020015b6114a7614494565b81526020019060019003908161149f5790505b5090506000808690505b85811161161d57600760006114e383600561343690919063ffffffff16565b73ffffffffffffffffffffffffffffffffffffffff1673ffffffffffffffffffffffffffffffffffffffff1681526020019081526020016000206040518060600160405290816000820160009054906101000a900473ffffffffffffffffffffffffffffffffffffffff1673ffffffffffffffffffffffffffffffffffffffff1673ffffffffffffffffffffffffffffffffffffffff1681526020016001820160009054906101000a900473ffffffffffffffffffffffffffffffffffffffff1673ffffffffffffffffffffffffffffffffffffffff1673ffffffffffffffffffffffffffffffffffffffff1681526020016002820154815250508383815181106115f1576115f06151d3565b5b60200260200101819052508180611607906152f9565b9250508080611615906152f9565b9150506114c4565b5081935050505092915050565b611632614494565b6007600061164a84600561343690919063ffffffff16565b73ffffffffffffffffffffffffffffffffffffffff1673ffffffffffffffffffffffffffffffffffffffff1681526020019081526020016000206040518060600160405290816000820160009054906101000a900473ffffffffffffffffffffffffffffffffffffffff1673ffffffffffffffffffffffffffffffffffffffff1673ffffffffffffffffffffffffffffffffffffffff1681526020016001820160009054906101000a900473ffffffffffffffffffffffffffffffffffffffff1673ffffffffffffffffffffffffffffffffffffffff1673ffffffffffffffffffffffffffffffffffffffff1681526020016002820154815250509050919050565b611754614494565b6007600061176c84600361343690919063ffffffff16565b73ffffffffffffffffffffffffffffffffffffffff1673ffffffffffffffffffffffffffffffffffffffff1681526020019081526020016000206040518060600160405290816000820160009054906101000a900473ffffffffffffffffffffffffffffffffffffffff1673ffffffffffffffffffffffffffffffffffffffff1673ffffffffffffffffffffffffffffffffffffffff1681526020016001820160009054906101000a900473ffffffffffffffffffffffffffffffffffffffff1673ffffffffffffffffffffffffffffffffffffffff1673ffffffffffffffffffffffffffffffffffffffff1681526020016002820154815250509050919050565b611879816000610eef565b50565b6060611888600361289a565b82106118a757600161189a600361289a565b6118a491906152c5565b91505b6000600184846118b791906152c5565b6118c19190615291565b905060008167ffffffffffffffff8111156118df576118de6145dc565b5b60405190808252806020026020018201604052801561191857816020015b611905614494565b8152602001906001900390816118fd5790505b5090506000808690505b858111611a7b576007600061194183600361343690919063ffffffff16565b73ffffffffffffffffffffffffffffffffffffffff1673ffffffffffffffffffffffffffffffffffffffff1681526020019081526020016000206040518060600160405290816000820160009054906101000a900473ffffffffffffffffffffffffffffffffffffffff1673ffffffffffffffffffffffffffffffffffffffff1673ffffffffffffffffffffffffffffffffffffffff1681526020016001820160009054906101000a900473ffffffffffffffffffffffffffffffffffffffff1673ffffffffffffffffffffffffffffffffffffffff1673ffffffffffffffffffffffffffffffffffffffff168152602001600282015481525050838381518110611a4f57611a4e6151d3565b5b60200260200101819052508180611a65906152f9565b9250508080611a73906152f9565b915050611922565b5081935050505092915050565b60606000611ad3600160008573ffffffffffffffffffffffffffffffffffffffff1673ffffffffffffffffffffffffffffffffffffffff1681526020019081526020016000206127c0565b905060008167ffffffffffffffff811115611af157611af06145dc565b5b604051908082528060200260200182016040528015611b2a57816020015b611b1761440e565b815260200190600190039081611b0f5790505b50905060005b82811015611bc257611b91611b8c82600160008973ffffffffffffffffffffffffffffffffffffffff1673ffffffffffffffffffffffffffffffffffffffff16815260200190815260200160002061288090919063ffffffff16565b610952565b828281518110611ba457611ba36151d3565b5b60200260200101819052508080611bba906152f9565b915050611b30565b508092505050919050565b82611bd7816127d5565b50600080611be4866127d5565b81548110611bf557611bf46151d3565b5b90600052602060002090600b020190503373ffffffffffffffffffffffffffffffffffffffff168160020160009054906101000a900473ffffffffffffffffffffffffffffffffffffffff1673ffffffffffffffffffffffffffffffffffffffff1614611c97576040517f08c379a0000000000000000000000000000000000000000000000000000000008152600401611c8e906153b3565b60405180910390fd5b6000816009015414611cde576040517f08c379a0000000000000000000000000000000000000000000000000000000008152600401611cd5906154c2565b60405180910390fd5b6000831115611d435780600501548310158015611cfa57504283115b611d39576040517f08c379a0000000000000000000000000000000000000000000000000000000008152600401611d309061557a565b60405180910390fd5b8281600501819055505b6000841115611e6c578060030154841015611d93576040517f08c379a0000000000000000000000000000000000000000000000000000000008152600401611d8a9061560c565b60405180910390fd5b6000816003015485611da591906152c5565b90506000811115611e6a578482600301819055506000600760008460010160009054906101000a900473ffffffffffffffffffffffffffffffffffffffff1673ffffffffffffffffffffffffffffffffffffffff1673ffffffffffffffffffffffffffffffffffffffff1681526020019081526020016000209050818160020154611e309190615291565b8160020181905550611e688360010160009054906101000a900473ffffffffffffffffffffffffffffffffffffffff16333085612642565b505b505b80600001547fa8b26360df8d5e154ffa5a8a7e894e85f781acfbbef0b744fb9551d8fd0fd36c8260010160009054906101000a900473ffffffffffffffffffffffffffffffffffffffff168360020160009054906101000a900473ffffffffffffffffffffffffffffffffffffffff1684600301548560050154604051611ef6949392919061518e565b60405180910390a25050505050565b6000611f11600361289a565b905090565b60008073ffffffffffffffffffffffffffffffffffffffff168973ffffffffffffffffffffffffffffffffffffffff1603611f86576040517f08c379a0000000000000000000000000000000000000000000000000000000008152600401611f7d90615070565b60405180910390fd5b60008711611fc9576040517f08c379a0000000000000000000000000000000000000000000000000000000008152600401611fc0906150dc565b60405180910390fd5b42861161200b576040517f08c379a000000000000000000000000000000000000000000000000000000000815260040161200290615678565b60405180910390fd5b6000841161204e576040517f08c379a0000000000000000000000000000000000000000000000000000000008152600401612045906156e4565b60405180910390fd5b60008511801561205f575061271085105b61209e576040517f08c379a000000000000000000000000000000000000000000000000000000000815260040161209590615750565b60405180910390fd5b6000831180156120af575061271083105b6120ee576040517f08c379a00000000000000000000000000000000000000000000000000000000081526004016120e5906157bc565b60405180910390fd5b61271083866120fd9190615291565b111561213e576040517f08c379a00000000000000000000000000000000000000000000000000000000081526004016121359061584e565b60405180910390fd5b61214f8a8a8a8a8a8a8a8a8a6125f4565b905061215d8933308a612642565b807f694af1cc8727cdd0afbdd53d9b87b69248bd490224e9dd090e788546506e076f8a8c8a8a604051612193949392919061518e565b60405180910390a29998505050505050505050565b60006121b382610902565b6121bc836124e5565b6121c69190615291565b9050919050565b816121d7816127d5565b506000806121e4856127d5565b815481106121f5576121f46151d3565b5b90600052602060002090600b020190503373ffffffffffffffffffffffffffffffffffffffff168160020160009054906101000a900473ffffffffffffffffffffffffffffffffffffffff1673ffffffffffffffffffffffffffffffffffffffff1614612297576040517f08c379a000000000000000000000000000000000000000000000000000000000815260040161228e906153b3565b60405180910390fd5b8281600a0190816122a89190615a1a565b507fe4a1120fd509c50aec65802fd3c3c9a4b72bf746fe9a552396185c6de928e8aa846040516122d891906147bf565b60405180910390a150505050565b60606000612331600260008573ffffffffffffffffffffffffffffffffffffffff1673ffffffffffffffffffffffffffffffffffffffff1681526020019081526020016000206127c0565b905060008167ffffffffffffffff81111561234f5761234e6145dc565b5b60405190808252806020026020018201604052801561238857816020015b61237561440e565b81526020019060019003908161236d5790505b50905060005b82811015612420576123ef6123ea82600260008973ffffffffffffffffffffffffffffffffffffffff1673ffffffffffffffffffffffffffffffffffffffff16815260200190815260200160002061288090919063ffffffff16565b610952565b828281518110612402576124016151d3565b5b60200260200101819052508080612418906152f9565b91505061238e565b508092505050919050565b60076020528060005260406000206000915090508060000160009054906101000a900473ffffffffffffffffffffffffffffffffffffffff16908060010160009054906101000a900473ffffffffffffffffffffffffffffffffffffffff16908060020154905083565b60006124de600860008473ffffffffffffffffffffffffffffffffffffffff1673ffffffffffffffffffffffffffffffffffffffff1681526020019081526020016000206127c0565b9050919050565b600061252e600260008473ffffffffffffffffffffffffffffffffffffffff1673ffffffffffffffffffffffffffffffffffffffff1681526020019081526020016000206127c0565b9050919050565b61253d61440e565b8161254784610902565b11612587576040517f08c379a000000000000000000000000000000000000000000000000000000000815260040161257e90615456565b60405180910390fd5b6125e06125db83600160008773ffffffffffffffffffffffffffffffffffffffff1673ffffffffffffffffffffffffffffffffffffffff16815260200190815260200160002061288090919063ffffffff16565b610952565b905092915050565b60008080549050905090565b600087156126225760006126078a613450565b905061261a8b8b838b8b8b8b8b8b613589565b915050612635565b6126328a8a89898989898961379e565b90505b9998505050505050505050565b60008473ffffffffffffffffffffffffffffffffffffffff166370a08231846040518263ffffffff1660e01b815260040161267d9190615aec565b602060405180830381865afa15801561269a573d6000803e3d6000fd5b505050506040513d601f19601f820116820180604052508101906126be9190615b1c565b90506126ed8484848873ffffffffffffffffffffffffffffffffffffffff166139b3909392919063ffffffff16565b60008573ffffffffffffffffffffffffffffffffffffffff166370a08231856040518263ffffffff1660e01b81526004016127289190615aec565b602060405180830381865afa158015612745573d6000803e3d6000fd5b505050506040513d601f19601f820116820180604052508101906127699190615b1c565b905082828261277891906152c5565b146127b8576040517f08c379a00000000000000000000000000000000000000000000000000000000081526004016127af90615b95565b60405180910390fd5b505050505050565b60006127ce82600001613a35565b9050919050565b6000620f424082101561281d576040517f08c379a000000000000000000000000000000000000000000000000000000000815260040161281490615c01565b60405180910390fd5b6000620f42408361282e91906152c5565b90506000805490508110612877576040517f08c379a000000000000000000000000000000000000000000000000000000000815260040161286e90615c01565b60405180910390fd5b80915050919050565b600061288f8360000183613a46565b60001c905092915050565b60006128a882600001613a35565b9050919050565b60006128c1836000018360001b613a71565b905092915050565b60006128db836000018360001b613b85565b905092915050565b6000612a888260405180610160016040529081600082015481526020016001820160009054906101000a900473ffffffffffffffffffffffffffffffffffffffff1673ffffffffffffffffffffffffffffffffffffffff1673ffffffffffffffffffffffffffffffffffffffff1681526020016002820160009054906101000a900473ffffffffffffffffffffffffffffffffffffffff1673ffffffffffffffffffffffffffffffffffffffff1673ffffffffffffffffffffffffffffffffffffffff16815260200160038201548152602001600482015481526020016005820154815260200160068201548152602001600782015481526020016008820154815260200160098201548152602001600a82018054612a0190615231565b80601f0160208091040260200160405190810160405280929190818152602001828054612a2d90615231565b8015612a7a5780601f10612a4f57610100808354040283529160200191612a7a565b820191906000526020600020905b815481529060010190602001808311612a5d57829003601f168201915b50505050508152505061331a565b90506000818360090154612a9c9190615291565b9050600082118015612ab2575082600301548111155b612af1576040517f08c379a0000000000000000000000000000000000000000000000000000000008152600401612ae890615c6d565b60405180910390fd5b6000600760008560010160009054906101000a900473ffffffffffffffffffffffffffffffffffffffff1673ffffffffffffffffffffffffffffffffffffffff1673ffffffffffffffffffffffffffffffffffffffff168152602001908152602001600020905060008073ffffffffffffffffffffffffffffffffffffffff168260010160009054906101000a900473ffffffffffffffffffffffffffffffffffffffff1673ffffffffffffffffffffffffffffffffffffffff161415905084600301548303612d54578015612c1c57612c168560000154600160003373ffffffffffffffffffffffffffffffffffffffff1673ffffffffffffffffffffffffffffffffffffffff1681526020019081526020016000206128af90919063ffffffff16565b50612c73565b612c718560000154600260003373ffffffffffffffffffffffffffffffffffffffff1673ffffffffffffffffffffffffffffffffffffffff1681526020019081526020016000206128af90919063ffffffff16565b505b612cec8560000154600860008860010160009054906101000a900473ffffffffffffffffffffffffffffffffffffffff1673ffffffffffffffffffffffffffffffffffffffff1673ffffffffffffffffffffffffffffffffffffffff1681526020019081526020016000206128af90919063ffffffff16565b5084600001547fc6532367992b32e42a62dd89fc3574876d97d081a263aa6e030f34b79b7e6e8b8660010160009054906101000a900473ffffffffffffffffffffffffffffffffffffffff16338642604051612d4b949392919061518e565b60405180910390a25b83826002015411612d6e5760008260020181905550612d87565b838260020154612d7e91906152c5565b82600201819055505b6000826002015403612e12578015612dd757612dd18560010160009054906101000a900473ffffffffffffffffffffffffffffffffffffffff166003613bf590919063ffffffff16565b50612e11565b612e0f8560010160009054906101000a900473ffffffffffffffffffffffffffffffffffffffff166005613bf590919063ffffffff16565b505b5b828560090181905550612e8e8560020160009054906101000a900473ffffffffffffffffffffffffffffffffffffffff16858760010160009054906101000a900473ffffffffffffffffffffffffffffffffffffffff1673ffffffffffffffffffffffffffffffffffffffff16613c259092919063ffffffff16565b84600001547ff93385ffdf40b698b13993c059834b8e91d0ca8e7abf827a34001ca03c03f6ff8660010160009054906101000a900473ffffffffffffffffffffffffffffffffffffffff16338789600901548a60030154612eef91906152c5565b42604051612f01959493929190615c8d565b60405180910390a25050505050565b8060050154421015612f57576040517f08c379a0000000000000000000000000000000000000000000000000000000008152600401612f4e90615d2c565b60405180910390fd5b6000816009015414612f9e576040517f08c379a0000000000000000000000000000000000000000000000000000000008152600401612f9590615c6d565b60405180910390fd5b6000600760008360010160009054906101000a900473ffffffffffffffffffffffffffffffffffffffff1673ffffffffffffffffffffffffffffffffffffffff1673ffffffffffffffffffffffffffffffffffffffff168152602001908152602001600020905060008073ffffffffffffffffffffffffffffffffffffffff168260010160009054906101000a900473ffffffffffffffffffffffffffffffffffffffff1673ffffffffffffffffffffffffffffffffffffffff161415905080156130be576130b88360000154600160003373ffffffffffffffffffffffffffffffffffffffff1673ffffffffffffffffffffffffffffffffffffffff1681526020019081526020016000206128af90919063ffffffff16565b50613115565b6131138360000154600260003373ffffffffffffffffffffffffffffffffffffffff1673ffffffffffffffffffffffffffffffffffffffff1681526020019081526020016000206128af90919063ffffffff16565b505b600083600301549050808360020154116131385760008360020181905550613151565b80836002015461314891906152c5565b83600201819055505b60008360020154036131dc5781156131a15761319b8460010160009054906101000a900473ffffffffffffffffffffffffffffffffffffffff166003613bf590919063ffffffff16565b506131db565b6131d98460010160009054906101000a900473ffffffffffffffffffffffffffffffffffffffff166005613bf590919063ffffffff16565b505b5b80846009018190555061325e8460000154600860008760010160009054906101000a900473ffffffffffffffffffffffffffffffffffffffff1673ffffffffffffffffffffffffffffffffffffffff1673ffffffffffffffffffffffffffffffffffffffff1681526020019081526020016000206128af90919063ffffffff16565b506132ae33828660010160009054906101000a900473ffffffffffffffffffffffffffffffffffffffff1673ffffffffffffffffffffffffffffffffffffffff16613c259092919063ffffffff16565b83600001547fc6532367992b32e42a62dd89fc3574876d97d081a263aa6e030f34b79b7e6e8b8560010160009054906101000a900473ffffffffffffffffffffffffffffffffffffffff1633844260405161330c949392919061518e565b60405180910390a250505050565b6000808260600151036133305760009050613431565b8160600151826101200151106133495760009050613431565b8160a0015142101561335e5760009050613431565b60008260e00151036133735760009050613431565b600061338a83606001518460c00151612710613ca4565b905060006133a48460600151856101000151612710613ca4565b905060008460a0015142106133eb5782828660e001518760a00151426133ca91906152c5565b6133d49190615d7b565b6133de9190615dac565b6133e89190615291565b90505b6000856060015182111561341557856101200151866060015161340e91906152c5565b9050613429565b8561012001518261342691906152c5565b90505b809450505050505b919050565b60006134458360000183613a46565b60001c905092915050565b6000808273ffffffffffffffffffffffffffffffffffffffff1663c45a01556040518163ffffffff1660e01b8152600401602060405180830381865afa9250505080156134bb57506040513d601f19601f820116820180604052508101906134b89190615e03565b60015b6134fa576040517f08c379a00000000000000000000000000000000000000000000000000000000081526004016134f190615e7c565b60405180910390fd5b80915050600073ffffffffffffffffffffffffffffffffffffffff168173ffffffffffffffffffffffffffffffffffffffff161415801561354157506135408382613e0b565b5b613580576040517f08c379a000000000000000000000000000000000000000000000000000000000815260040161357790615ee8565b60405180910390fd5b80915050919050565b600061359b8a8a898989898989613fa6565b90506135ee81600160008d73ffffffffffffffffffffffffffffffffffffffff1673ffffffffffffffffffffffffffffffffffffffff1681526020019081526020016000206128c990919063ffffffff16565b5061360389600361416d90919063ffffffff16565b506000600760008b73ffffffffffffffffffffffffffffffffffffffff1673ffffffffffffffffffffffffffffffffffffffff1681526020019081526020016000209050600073ffffffffffffffffffffffffffffffffffffffff168160000160009054906101000a900473ffffffffffffffffffffffffffffffffffffffff1673ffffffffffffffffffffffffffffffffffffffff160361372657898160000160006101000a81548173ffffffffffffffffffffffffffffffffffffffff021916908373ffffffffffffffffffffffffffffffffffffffff160217905550888160010160006101000a81548173ffffffffffffffffffffffffffffffffffffffff021916908373ffffffffffffffffffffffffffffffffffffffff1602179055505b8781600201546137369190615291565b816002018190555061378f82600860008d73ffffffffffffffffffffffffffffffffffffffff1673ffffffffffffffffffffffffffffffffffffffff1681526020019081526020016000206128c990919063ffffffff16565b50509998505050505050505050565b60006137b08989898989898989613fa6565b905061380381600260008c73ffffffffffffffffffffffffffffffffffffffff1673ffffffffffffffffffffffffffffffffffffffff1681526020019081526020016000206128c990919063ffffffff16565b5061381888600561416d90919063ffffffff16565b506000600760008a73ffffffffffffffffffffffffffffffffffffffff1673ffffffffffffffffffffffffffffffffffffffff1681526020019081526020016000209050600073ffffffffffffffffffffffffffffffffffffffff168160000160009054906101000a900473ffffffffffffffffffffffffffffffffffffffff1673ffffffffffffffffffffffffffffffffffffffff160361393c57888160000160006101000a81548173ffffffffffffffffffffffffffffffffffffffff021916908373ffffffffffffffffffffffffffffffffffffffff16021790555060008160010160006101000a81548173ffffffffffffffffffffffffffffffffffffffff021916908373ffffffffffffffffffffffffffffffffffffffff1602179055505b87816002015461394c9190615291565b81600201819055506139a582600860008c73ffffffffffffffffffffffffffffffffffffffff1673ffffffffffffffffffffffffffffffffffffffff1681526020019081526020016000206128c990919063ffffffff16565b505098975050505050505050565b613a2f848573ffffffffffffffffffffffffffffffffffffffff166323b872dd8686866040516024016139e893929190614fdc565b604051602081830303815290604052915060e01b6020820180517bffffffffffffffffffffffffffffffffffffffffffffffffffffffff838183161783525050505061419d565b50505050565b600081600001805490509050919050565b6000826000018281548110613a5e57613a5d6151d3565b5b9060005260206000200154905092915050565b60008083600101600084815260200190815260200160002054905060008114613b79576000600182613aa391906152c5565b9050600060018660000180549050613abb91906152c5565b9050808214613b2a576000866000018281548110613adc57613adb6151d3565b5b9060005260206000200154905080876000018481548110613b0057613aff6151d3565b5b90600052602060002001819055508387600101600083815260200190815260200160002081905550505b85600001805480613b3e57613b3d615f08565b5b600190038181906000526020600020016000905590558560010160008681526020019081526020016000206000905560019350505050613b7f565b60009150505b92915050565b6000613b918383614234565b613bea578260000182908060018154018082558091505060019003906000526020600020016000909190919091505582600001805490508360010160008481526020019081526020016000208190555060019050613bef565b600090505b92915050565b6000613c1d836000018373ffffffffffffffffffffffffffffffffffffffff1660001b613a71565b905092915050565b613c9f838473ffffffffffffffffffffffffffffffffffffffff1663a9059cbb8585604051602401613c58929190615f37565b604051602081830303815290604052915060e01b6020820180517bffffffffffffffffffffffffffffffffffffffffffffffffffffffff838183161783525050505061419d565b505050565b6000806000801985870985870292508281108382030391505060008103613d145760008411613d08576040517f08c379a0000000000000000000000000000000000000000000000000000000008152600401613cff90615fac565b60405180910390fd5b83820492505050613e04565b808411613d56576040517f08c379a0000000000000000000000000000000000000000000000000000000008152600401613d4d90616018565b60405180910390fd5b60008486880990508281118203915080830392506000856001877fffffffffffffffffffffffffffffffffffffffffffffffffffffffffffffffff0301169050808604955080840493506001818260000304019050808302841793506000600287600302189050808702600203810290508087026002038102905080870260020381029050808702600203810290508087026002038102905080870260020381029050808502955050505050505b9392505050565b60008083905060008373ffffffffffffffffffffffffffffffffffffffff1663e6a439058373ffffffffffffffffffffffffffffffffffffffff16630dfe16816040518163ffffffff1660e01b8152600401602060405180830381865afa158015613e7a573d6000803e3d6000fd5b505050506040513d601f19601f82011682018060405250810190613e9e9190615e03565b8473ffffffffffffffffffffffffffffffffffffffff1663d21220a76040518163ffffffff1660e01b8152600401602060405180830381865afa158015613ee9573d6000803e3d6000fd5b505050506040513d601f19601f82011682018060405250810190613f0d9190615e03565b6040518363ffffffff1660e01b8152600401613f2a929190616038565b602060405180830381865afa158015613f47573d6000803e3d6000fd5b505050506040513d601f19601f82011682018060405250810190613f6b9190615e03565b90508473ffffffffffffffffffffffffffffffffffffffff168173ffffffffffffffffffffffffffffffffffffffff16149250505092915050565b6000620f4240600080549050613fbc9190615291565b905060006040518061016001604052808381526020018a73ffffffffffffffffffffffffffffffffffffffff1681526020018b73ffffffffffffffffffffffffffffffffffffffff1681526020018981526020014281526020018881526020018781526020018681526020018581526020016000815260200184815250905060008190806001815401808255809150506001900390600052602060002090600b02016000909190919091506000820151816000015560208201518160010160006101000a81548173ffffffffffffffffffffffffffffffffffffffff021916908373ffffffffffffffffffffffffffffffffffffffff16021790555060408201518160020160006101000a81548173ffffffffffffffffffffffffffffffffffffffff021916908373ffffffffffffffffffffffffffffffffffffffff160217905550606082015181600301556080820151816004015560a0820151816005015560c0820151816006015560e082015181600701556101008201518160080155610120820151816009015561014082015181600a01908161415d9190615a1a565b5050505098975050505050505050565b6000614195836000018373ffffffffffffffffffffffffffffffffffffffff1660001b613b85565b905092915050565b60006141c8828473ffffffffffffffffffffffffffffffffffffffff1661425790919063ffffffff16565b905060008151141580156141ed5750808060200190518101906141eb9190616076565b155b1561422f57826040517f5274afe70000000000000000000000000000000000000000000000000000000081526004016142269190615aec565b60405180910390fd5b505050565b600080836001016000848152602001908152602001600020541415905092915050565b60606142658383600061426d565b905092915050565b6060814710156142b457306040517fcd7860590000000000000000000000000000000000000000000000000000000081526004016142ab9190615aec565b60405180910390fd5b6000808573ffffffffffffffffffffffffffffffffffffffff1684866040516142dd91906160ea565b60006040518083038185875af1925050503d806000811461431a576040519150601f19603f3d011682016040523d82523d6000602084013e61431f565b606091505b509150915061432f86838361433a565b925050509392505050565b60608261434f5761434a826143c9565b6143c1565b60008251148015614377575060008473ffffffffffffffffffffffffffffffffffffffff163b145b156143b957836040517f9996b3150000000000000000000000000000000000000000000000000000000081526004016143b09190615aec565b60405180910390fd5b8190506143c2565b5b9392505050565b6000815111156143dc5780518082602001fd5b6040517f1425ea4200000000000000000000000000000000000000000000000000000000815260040160405180910390fd5b60405180610160016040528060008152602001600073ffffffffffffffffffffffffffffffffffffffff168152602001600073ffffffffffffffffffffffffffffffffffffffff16815260200160008152602001600081526020016000815260200160008152602001600081526020016000815260200160008152602001606081525090565b6040518060600160405280600073ffffffffffffffffffffffffffffffffffffffff168152602001600073ffffffffffffffffffffffffffffffffffffffff168152602001600081525090565b6000604051905090565b600080fd5b600080fd5b600073ffffffffffffffffffffffffffffffffffffffff82169050919050565b6000614520826144f5565b9050919050565b61453081614515565b811461453b57600080fd5b50565b60008135905061454d81614527565b92915050565b60008115159050919050565b61456881614553565b811461457357600080fd5b50565b6000813590506145858161455f565b92915050565b6000819050919050565b61459e8161458b565b81146145a957600080fd5b50565b6000813590506145bb81614595565b92915050565b600080fd5b600080fd5b6000601f19601f8301169050919050565b7f4e487b7100000000000000000000000000000000000000000000000000000000600052604160045260246000fd5b614614826145cb565b810181811067ffffffffffffffff82111715614633576146326145dc565b5b80604052505050565b60006146466144e1565b9050614652828261460b565b919050565b600067ffffffffffffffff821115614672576146716145dc565b5b61467b826145cb565b9050602081019050919050565b82818337600083830152505050565b60006146aa6146a584614657565b61463c565b9050828152602081018484840111156146c6576146c56145c6565b5b6146d1848285614688565b509392505050565b600082601f8301126146ee576146ed6145c1565b5b81356146fe848260208601614697565b91505092915050565b60008060008060008060c08789031215614724576147236144eb565b5b600061473289828a0161453e565b965050602061474389828a0161453e565b955050604061475489828a01614576565b945050606061476589828a016145ac565b935050608061477689828a016145ac565b92505060a087013567ffffffffffffffff811115614797576147966144f0565b5b6147a389828a016146d9565b9150509295509295509295565b6147b98161458b565b82525050565b60006020820190506147d460008301846147b0565b92915050565b6000602082840312156147f0576147ef6144eb565b5b60006147fe8482850161453e565b91505092915050565b60006020828403121561481d5761481c6144eb565b5b600061482b848285016145ac565b91505092915050565b61483d8161458b565b82525050565b61484c81614515565b82525050565b600081519050919050565b600082825260208201905092915050565b60005b8381101561488c578082015181840152602081019050614871565b60008484015250505050565b60006148a382614852565b6148ad818561485d565b93506148bd81856020860161486e565b6148c6816145cb565b840191505092915050565b6000610160830160008301516148ea6000860182614834565b5060208301516148fd6020860182614843565b5060408301516149106040860182614843565b5060608301516149236060860182614834565b5060808301516149366080860182614834565b5060a083015161494960a0860182614834565b5060c083015161495c60c0860182614834565b5060e083015161496f60e0860182614834565b50610100830151614984610100860182614834565b50610120830151614999610120860182614834565b506101408301518482036101408601526149b38282614898565b9150508091505092915050565b600060208201905081810360008301526149da81846148d1565b905092915050565b6000806000606084860312156149fb576149fa6144eb565b5b6000614a098682870161453e565b9350506020614a1a868287016145ac565b9250506040614a2b868287016145ac565b9150509250925092565b600081519050919050565b600082825260208201905092915050565b6000819050602082019050919050565b600061016083016000830151614a7a6000860182614834565b506020830151614a8d6020860182614843565b506040830151614aa06040860182614843565b506060830151614ab36060860182614834565b506080830151614ac66080860182614834565b5060a0830151614ad960a0860182614834565b5060c0830151614aec60c0860182614834565b5060e0830151614aff60e0860182614834565b50610100830151614b14610100860182614834565b50610120830151614b29610120860182614834565b50610140830151848203610140860152614b438282614898565b9150508091505092915050565b6000614b5c8383614a61565b905092915050565b6000602082019050919050565b6000614b7c82614a35565b614b868185614a40565b935083602082028501614b9885614a51565b8060005b85811015614bd45784840389528151614bb58582614b50565b9450614bc083614b64565b925060208a01995050600181019050614b9c565b50829750879550505050505092915050565b60006020820190508181036000830152614c008184614b71565b905092915050565b60008060408385031215614c1f57614c1e6144eb565b5b6000614c2d858286016145ac565b9250506020614c3e8582860161453e565b9150509250929050565b60008060408385031215614c5f57614c5e6144eb565b5b6000614c6d8582860161453e565b9250506020614c7e858286016145ac565b9150509250929050565b60008060408385031215614c9f57614c9e6144eb565b5b6000614cad858286016145ac565b9250506020614cbe858286016145ac565b9150509250929050565b600081519050919050565b600082825260208201905092915050565b6000819050602082019050919050565b606082016000820151614d0a6000850182614843565b506020820151614d1d6020850182614843565b506040820151614d306040850182614834565b50505050565b6000614d428383614cf4565b60608301905092915050565b6000602082019050919050565b6000614d6682614cc8565b614d708185614cd3565b9350614d7b83614ce4565b8060005b83811015614dac578151614d938882614d36565b9750614d9e83614d4e565b925050600181019050614d7f565b5085935050505092915050565b60006020820190508181036000830152614dd38184614d5b565b905092915050565b606082016000820151614df16000850182614843565b506020820151614e046020850182614843565b506040820151614e176040850182614834565b50505050565b6000606082019050614e326000830184614ddb565b92915050565b600080600060608486031215614e5157614e506144eb565b5b6000614e5f868287016145ac565b9350506020614e70868287016145ac565b9250506040614e81868287016145ac565b9150509250925092565b60008060008060008060008060006101208a8c031215614eae57614ead6144eb565b5b6000614ebc8c828d0161453e565b9950506020614ecd8c828d0161453e565b9850506040614ede8c828d01614576565b9750506060614eef8c828d016145ac565b9650506080614f008c828d016145ac565b95505060a0614f118c828d016145ac565b94505060c0614f228c828d016145ac565b93505060e0614f338c828d016145ac565b9250506101008a013567ffffffffffffffff811115614f5557614f546144f0565b5b614f618c828d016146d9565b9150509295985092959850929598565b60008060408385031215614f8857614f876144eb565b5b6000614f96858286016145ac565b925050602083013567ffffffffffffffff811115614fb757614fb66144f0565b5b614fc3858286016146d9565b9150509250929050565b614fd681614515565b82525050565b6000606082019050614ff16000830186614fcd565b614ffe6020830185614fcd565b61500b60408301846147b0565b949350505050565b600082825260208201905092915050565b7f496e76616c696420746f6b656e00000000000000000000000000000000000000600082015250565b600061505a600d83615013565b915061506582615024565b602082019050919050565b600060208201905081810360008301526150898161504d565b9050919050565b7f416d6f756e742073686f756c642062652067726561746572207468616e203000600082015250565b60006150c6601f83615013565b91506150d182615090565b602082019050919050565b600060208201905081810360008301526150f5816150b9565b9050919050565b7f556e6c6f636b20646174652073686f756c6420626520696e207468652066757460008201527f7572650000000000000000000000000000000000000000000000000000000000602082015250565b6000615158602383615013565b9150615163826150fc565b604082019050919050565b600060208201905081810360008301526151878161514b565b9050919050565b60006080820190506151a36000830187614fcd565b6151b06020830186614fcd565b6151bd60408301856147b0565b6151ca60608301846147b0565b95945050505050565b7f4e487b7100000000000000000000000000000000000000000000000000000000600052603260045260246000fd5b7f4e487b7100000000000000000000000000000000000000000000000000000000600052602260045260246000fd5b6000600282049050600182168061524957607f821691505b60208210810361525c5761525b615202565b5b50919050565b7f4e487b7100000000000000000000000000000000000000000000000000000000600052601160045260246000fd5b600061529c8261458b565b91506152a78361458b565b92508282019050808211156152bf576152be615262565b5b92915050565b60006152d08261458b565b91506152db8361458b565b92508282039050818111156152f3576152f2615262565b5b92915050565b60006153048261458b565b91507fffffffffffffffffffffffffffffffffffffffffffffffffffffffffffffffff820361533657615335615262565b5b600182019050919050565b7f596f7520617265206e6f7420746865206f776e6572206f662074686973206c6f60008201527f636b000000000000000000000000000000000000000000000000000000000000602082015250565b600061539d602283615013565b91506153a882615341565b604082019050919050565b600060208201905081810360008301526153cc81615390565b9050919050565b60006060820190506153e860008301866147b0565b6153f56020830185614fcd565b6154026040830184614fcd565b949350505050565b7f496e76616c696420696e64657800000000000000000000000000000000000000600082015250565b6000615440600d83615013565b915061544b8261540a565b602082019050919050565b6000602082019050818103600083015261546f81615433565b9050919050565b7f4c6f636b2077617320756e6c6f636b6564000000000000000000000000000000600082015250565b60006154ac601183615013565b91506154b782615476565b602082019050919050565b600060208201905081810360008301526154db8161549f565b9050919050565b7f4e657720756e6c6f636b2074696d652073686f756c64206e6f7420626520626560008201527f666f7265206f6c6420756e6c6f636b2074696d65206f722063757272656e742060208201527f74696d6500000000000000000000000000000000000000000000000000000000604082015250565b6000615564604483615013565b915061556f826154e2565b606082019050919050565b6000602082019050818103600083015261559381615557565b9050919050565b7f4e657720616d6f756e742073686f756c64206e6f74206265206c65737320746860008201527f616e2063757272656e7420616d6f756e74000000000000000000000000000000602082015250565b60006155f6603183615013565b91506156018261559a565b604082019050919050565b60006020820190508181036000830152615625816155e9565b9050919050565b7f54474520646174652073686f756c6420626520696e2074686520667574757265600082015250565b6000615662602083615013565b915061566d8261562c565b602082019050919050565b6000602082019050818103600083015261569181615655565b9050919050565b7f496e76616c6964206379636c6500000000000000000000000000000000000000600082015250565b60006156ce600d83615013565b91506156d982615698565b602082019050919050565b600060208201905081810360008301526156fd816156c1565b9050919050565b7f496e76616c6964206269707320666f7220544745000000000000000000000000600082015250565b600061573a601483615013565b915061574582615704565b602082019050919050565b600060208201905081810360008301526157698161572d565b9050919050565b7f496e76616c6964206269707320666f72206379636c6500000000000000000000600082015250565b60006157a6601683615013565b91506157b182615770565b602082019050919050565b600060208201905081810360008301526157d581615799565b9050919050565b7f53756d206f66205447452062707320616e64206379636c652073686f756c642060008201527f6265206c657373207468616e2031303030300000000000000000000000000000602082015250565b6000615838603283615013565b9150615843826157dc565b604082019050919050565b600060208201905081810360008301526158678161582b565b9050919050565b60008190508160005260206000209050919050565b60006020601f8301049050919050565b600082821b905092915050565b6000600883026158d07fffffffffffffffffffffffffffffffffffffffffffffffffffffffffffffffff82615893565b6158da8683615893565b95508019841693508086168417925050509392505050565b6000819050919050565b600061591761591261590d8461458b565b6158f2565b61458b565b9050919050565b6000819050919050565b615931836158fc565b61594561593d8261591e565b8484546158a0565b825550505050565b600090565b61595a61594d565b615965818484615928565b505050565b5b818110156159895761597e600082615952565b60018101905061596b565b5050565b601f8211156159ce5761599f8161586e565b6159a884615883565b810160208510156159b7578190505b6159cb6159c385615883565b83018261596a565b50505b505050565b600082821c905092915050565b60006159f1600019846008026159d3565b1980831691505092915050565b6000615a0a83836159e0565b9150826002028217905092915050565b615a2382614852565b67ffffffffffffffff811115615a3c57615a3b6145dc565b5b615a468254615231565b615a5182828561598d565b600060209050601f831160018114615a845760008415615a72578287015190505b615a7c85826159fe565b865550615ae4565b601f198416615a928661586e565b60005b82811015615aba57848901518255600182019150602085019450602081019050615a95565b86831015615ad75784890151615ad3601f8916826159e0565b8355505b6001600288020188555050505b505050505050565b6000602082019050615b016000830184614fcd565b92915050565b600081519050615b1681614595565b92915050565b600060208284031215615b3257615b316144eb565b5b6000615b4084828501615b07565b91505092915050565b7f4e6f7420656e6f75676820746f6b656e20776173207472616e73666572656400600082015250565b6000615b7f601f83615013565b9150615b8a82615b49565b602082019050919050565b60006020820190508181036000830152615bae81615b72565b9050919050565b7f496e76616c6964206c6f636b2069640000000000000000000000000000000000600082015250565b6000615beb600f83615013565b9150615bf682615bb5565b602082019050919050565b60006020820190508181036000830152615c1a81615bde565b9050919050565b7f4e6f7468696e6720746f20756e6c6f636b000000000000000000000000000000600082015250565b6000615c57601183615013565b9150615c6282615c21565b602082019050919050565b60006020820190508181036000830152615c8681615c4a565b9050919050565b600060a082019050615ca26000830188614fcd565b615caf6020830187614fcd565b615cbc60408301866147b0565b615cc960608301856147b0565b615cd660808301846147b0565b9695505050505050565b7f4974206973206e6f742074696d6520746f20756e6c6f636b0000000000000000600082015250565b6000615d16601883615013565b9150615d2182615ce0565b602082019050919050565b60006020820190508181036000830152615d4581615d09565b9050919050565b7f4e487b7100000000000000000000000000000000000000000000000000000000600052601260045260246000fd5b6000615d868261458b565b9150615d918361458b565b925082615da157615da0615d4c565b5b828204905092915050565b6000615db78261458b565b9150615dc28361458b565b9250828202615dd08161458b565b91508282048414831517615de757615de6615262565b5b5092915050565b600081519050615dfd81614527565b92915050565b600060208284031215615e1957615e186144eb565b5b6000615e2784828501615dee565b91505092915050565b7f5468697320746f6b656e206973206e6f742061204c5020746f6b656e00000000600082015250565b6000615e66601c83615013565b9150615e7182615e30565b602082019050919050565b60006020820190508181036000830152615e9581615e59565b9050919050565b7f5468697320746f6b656e206973206e6f742061204c5020746f6b656e2e000000600082015250565b6000615ed2601d83615013565b9150615edd82615e9c565b602082019050919050565b60006020820190508181036000830152615f0181615ec5565b9050919050565b7f4e487b7100000000000000000000000000000000000000000000000000000000600052603160045260246000fd5b6000604082019050615f4c6000830185614fcd565b615f5960208301846147b0565b9392505050565b7f4469766973696f6e206279207a65726f00000000000000000000000000000000600082015250565b6000615f96601083615013565b9150615fa182615f60565b602082019050919050565b60006020820190508181036000830152615fc581615f89565b9050919050565b7f44656e6f6d696e61746f7220746f6f20736d616c6c0000000000000000000000600082015250565b6000616002601583615013565b915061600d82615fcc565b602082019050919050565b6000602082019050818103600083015261603181615ff5565b9050919050565b600060408201905061604d6000830185614fcd565b61605a6020830184614fcd565b9392505050565b6000815190506160708161455f565b92915050565b60006020828403121561608c5761608b6144eb565b5b600061609a84828501616061565b91505092915050565b600081519050919050565b600081905092915050565b60006160c4826160a3565b6160ce81856160ae565b93506160de81856020860161486e565b80840191505092915050565b60006160f682846160b9565b91508190509291505056fea26469706673582212202d090edf7f9550f29b6ce7d8e5917a0e70d6b610ef94c55b239ab80be919a3fe64736f6c63430008140033",
  "linkReferences": {},
  "deployedLinkReferences": {}
}