{"contracts/KiwiLock.sol":{"KiwiLock":{"abi":[{"inputs":[{"internalType":"address","name":"target","type":"address"}],"name":"AddressEmptyCode","type":"error"},{"inputs":[{"internalType":"address","name":"account","type":"address"}],"name":"AddressInsufficientBalance","type":"error"},{"inputs":[],"name":"FailedInnerCall","type":"error"},{"inputs":[{"internalType":"address","name":"token","type":"address"}],"name":"SafeERC20FailedOperation","type":"error"},{"anonymous":false,"inputs":[{"indexed":true,"internalType":"uint256","name":"id","type":"uint256"},{"indexed":false,"internalType":"address","name":"token","type":"address"},{"indexed":false,"internalType":"address","name":"owner","type":"address"},{"indexed":false,"internalType":"uint256","name":"amount","type":"uint256"},{"indexed":false,"internalType":"uint256","name":"unlockDate","type":"uint256"}],"name":"LockAdded","type":"event"},{"anonymous":false,"inputs":[{"indexed":false,"internalType":"uint256","name":"lockId","type":"uint256"}],"name":"LockDescriptionChanged","type":"event"},{"anonymous":false,"inputs":[{"indexed":false,"internalType":"uint256","name":"lockId","type":"uint256"},{"indexed":false,"internalType":"address","name":"owner","type":"address"},{"indexed":false,"internalType":"address","name":"newOwner","type":"address"}],"name":"LockOwnerChanged","type":"event"},{"anonymous":false,"inputs":[{"indexed":true,"internalType":"uint256","name":"id","type":"uint256"},{"indexed":false,"internalType":"address","name":"token","type":"address"},{"indexed":false,"internalType":"address","name":"owner","type":"address"},{"indexed":false,"internalType":"uint256","name":"amount","type":"uint256"},{"indexed":false,"internalType":"uint256","name":"unlockedAt","type":"uint256"}],"name":"LockRemoved","type":"event"},{"anonymous":false,"inputs":[{"indexed":true,"internalType":"uint256","name":"id","type":"uint256"},{"indexed":false,"internalType":"address","name":"token","type":"address"},{"indexed":false,"internalType":"address","name":"owner","type":"address"},{"indexed":false,"internalType":"uint256","name":"newAmount","type":"uint256"},{"indexed":false,"internalType":"uint256","name":"newUnlockDate","type":"uint256"}],"name":"LockUpdated","type":"event"},{"anonymous":false,"inputs":[{"indexed":true,"internalType":"uint256","name":"id","type":"uint256"},{"indexed":false,"internalType":"address","name":"token","type":"address"},{"indexed":false,"internalType":"address","name":"owner","type":"address"},{"indexed":false,"internalType":"uint256","name":"amount","type":"uint256"},{"indexed":false,"internalType":"uint256","name":"remaining","type":"uint256"},{"indexed":false,"internalType":"uint256","name":"timestamp","type":"uint256"}],"name":"LockVested","type":"event"},{"inputs":[],"name":"allLpTokenLockedCount","outputs":[{"internalType":"uint256","name":"","type":"uint256"}],"stateMutability":"view","type":"function"},{"inputs":[],"name":"allNormalTokenLockedCount","outputs":[{"internalType":"uint256","name":"","type":"uint256"}],"stateMutability":"view","type":"function"},{"inputs":[{"internalType":"address","name":"","type":"address"}],"name":"cumulativeLockInfo","outputs":[{"internalType":"address","name":"token","type":"address"},{"internalType":"address","name":"factory","type":"address"},{"internalType":"uint256","name":"amount","type":"uint256"}],"stateMutability":"view","type":"function"},{"inputs":[{"internalType":"uint256","name":"lockId","type":"uint256"},{"internalType":"uint256","name":"newAmount","type":"uint256"},{"internalType":"uint256","name":"newUnlockDate","type":"uint256"}],"name":"editLock","outputs":[],"stateMutability":"nonpayable","type":"function"},{"inputs":[{"internalType":"uint256","name":"lockId","type":"uint256"},{"internalType":"string","name":"description","type":"string"}],"name":"editLockDescription","outputs":[],"stateMutability":"nonpayable","type":"function"},{"inputs":[{"internalType":"uint256","name":"start","type":"uint256"},{"internalType":"uint256","name":"end","type":"uint256"}],"name":"getCumulativeLpTokenLockInfo","outputs":[{"components":[{"internalType":"address","name":"token","type":"address"},{"internalType":"address","name":"factory","type":"address"},{"internalType":"uint256","name":"amount","type":"uint256"}],"internalType":"struct KiwiLock.CumulativeLockInfo[]","name":"","type":"tuple[]"}],"stateMutability":"view","type":"function"},{"inputs":[{"internalType":"uint256","name":"index","type":"uint256"}],"name":"getCumulativeLpTokenLockInfoAt","outputs":[{"components":[{"internalType":"address","name":"token","type":"address"},{"internalType":"address","name":"factory","type":"address"},{"internalType":"uint256","name":"amount","type":"uint256"}],"internalType":"struct KiwiLock.CumulativeLockInfo","name":"","type":"tuple"}],"stateMutability":"view","type":"function"},{"inputs":[{"internalType":"uint256","name":"start","type":"uint256"},{"internalType":"uint256","name":"end","type":"uint256"}],"name":"getCumulativeNormalTokenLockInfo","outputs":[{"components":[{"internalType":"address","name":"token","type":"address"},{"internalType":"address","name":"factory","type":"address"},{"internalType":"uint256","name":"amount","type":"uint256"}],"internalType":"struct KiwiLock.CumulativeLockInfo[]","name":"","type":"tuple[]"}],"stateMutability":"view","type":"function"},{"inputs":[{"internalType":"uint256","name":"index","type":"uint256"}],"name":"getCumulativeNormalTokenLockInfoAt","outputs":[{"components":[{"internalType":"address","name":"token","type":"address"},{"internalType":"address","name":"factory","type":"address"},{"internalType":"uint256","name":"amount","type":"uint256"}],"internalType":"struct KiwiLock.CumulativeLockInfo","name":"","type":"tuple"}],"stateMutability":"view","type":"function"},{"inputs":[{"internalType":"uint256","name":"index","type":"uint256"}],"name":"getLockAt","outputs":[{"components":[{"internalType":"uint256","name":"id","type":"uint256"},{"internalType":"address","name":"token","type":"address"},{"internalType":"address","name":"owner","type":"address"},{"internalType":"uint256","name":"amount","type":"uint256"},{"internalType":"uint256","name":"lockDate","type":"uint256"},{"internalType":"uint256","name":"tgeDate","type":"uint256"},{"internalType":"uint256","name":"tgeBps","type":"uint256"},{"internalType":"uint256","name":"cycle","type":"uint256"},{"internalType":"uint256","name":"cycleBps","type":"uint256"},{"internalType":"uint256","name":"unlockedAmount","type":"uint256"},{"internalType":"string","name":"description","type":"string"}],"internalType":"struct KiwiLock.Lock","name":"","type":"tuple"}],"stateMutability":"view","type":"function"},{"inputs":[{"internalType":"uint256","name":"lockId","type":"uint256"}],"name":"getLockById","outputs":[{"components":[{"internalType":"uint256","name":"id","type":"uint256"},{"internalType":"address","name":"token","type":"address"},{"internalType":"address","name":"owner","type":"address"},{"internalType":"uint256","name":"amount","type":"uint256"},{"internalType":"uint256","name":"lockDate","type":"uint256"},{"internalType":"uint256","name":"tgeDate","type":"uint256"},{"internalType":"uint256","name":"tgeBps","type":"uint256"},{"internalType":"uint256","name":"cycle","type":"uint256"},{"internalType":"uint256","name":"cycleBps","type":"uint256"},{"internalType":"uint256","name":"unlockedAmount","type":"uint256"},{"internalType":"string","name":"description","type":"string"}],"internalType":"struct KiwiLock.Lock","name":"","type":"tuple"}],"stateMutability":"view","type":"function"},{"inputs":[{"internalType":"address","name":"token","type":"address"},{"internalType":"uint256","name":"start","type":"uint256"},{"internalType":"uint256","name":"end","type":"uint256"}],"name":"getLocksForToken","outputs":[{"components":[{"internalType":"uint256","name":"id","type":"uint256"},{"internalType":"address","name":"token","type":"address"},{"internalType":"address","name":"owner","type":"address"},{"internalType":"uint256","name":"amount","type":"uint256"},{"internalType":"uint256","name":"lockDate","type":"uint256"},{"internalType":"uint256","name":"tgeDate","type":"uint256"},{"internalType":"uint256","name":"tgeBps","type":"uint256"},{"internalType":"uint256","name":"cycle","type":"uint256"},{"internalType":"uint256","name":"cycleBps","type":"uint256"},{"internalType":"uint256","name":"unlockedAmount","type":"uint256"},{"internalType":"string","name":"description","type":"string"}],"internalType":"struct KiwiLock.Lock[]","name":"","type":"tuple[]"}],"stateMutability":"view","type":"function"},{"inputs":[],"name":"getTotalLockCount","outputs":[{"internalType":"uint256","name":"","type":"uint256"}],"stateMutability":"view","type":"function"},{"inputs":[{"internalType":"address","name":"owner","type":"address"},{"internalType":"address","name":"token","type":"address"},{"internalType":"bool","name":"isLpToken","type":"bool"},{"internalType":"uint256","name":"amount","type":"uint256"},{"internalType":"uint256","name":"unlockDate","type":"uint256"},{"internalType":"string","name":"description","type":"string"}],"name":"lock","outputs":[{"internalType":"uint256","name":"id","type":"uint256"}],"stateMutability":"payable","type":"function"},{"inputs":[{"internalType":"address","name":"user","type":"address"}],"name":"lpLockCountForUser","outputs":[{"internalType":"uint256","name":"","type":"uint256"}],"stateMutability":"view","type":"function"},{"inputs":[{"internalType":"address","name":"user","type":"address"},{"internalType":"uint256","name":"index","type":"uint256"}],"name":"lpLockForUserAtIndex","outputs":[{"components":[{"internalType":"uint256","name":"id","type":"uint256"},{"internalType":"address","name":"token","type":"address"},{"internalType":"address","name":"owner","type":"address"},{"internalType":"uint256","name":"amount","type":"uint256"},{"internalType":"uint256","name":"lockDate","type":"uint256"},{"internalType":"uint256","name":"tgeDate","type":"uint256"},{"internalType":"uint256","name":"tgeBps","type":"uint256"},{"internalType":"uint256","name":"cycle","type":"uint256"},{"internalType":"uint256","name":"cycleBps","type":"uint256"},{"internalType":"uint256","name":"unlockedAmount","type":"uint256"},{"internalType":"string","name":"description","type":"string"}],"internalType":"struct KiwiLock.Lock","name":"","type":"tuple"}],"stateMutability":"view","type":"function"},{"inputs":[{"internalType":"address","name":"user","type":"address"}],"name":"lpLocksForUser","outputs":[{"components":[{"internalType":"uint256","name":"id","type":"uint256"},{"internalType":"address","name":"token","type":"address"},{"internalType":"address","name":"owner","type":"address"},{"internalType":"uint256","name":"amount","type":"uint256"},{"internalType":"uint256","name":"lockDate","type":"uint256"},{"internalType":"uint256","name":"tgeDate","type":"uint256"},{"internalType":"uint256","name":"tgeBps","type":"uint256"},{"internalType":"uint256","name":"cycle","type":"uint256"},{"internalType":"uint256","name":"cycleBps","type":"uint256"},{"internalType":"uint256","name":"unlockedAmount","type":"uint256"},{"internalType":"string","name":"description","type":"string"}],"internalType":"struct KiwiLock.Lock[]","name":"","type":"tuple[]"}],"stateMutability":"view","type":"function"},{"inputs":[{"internalType":"address","name":"user","type":"address"}],"name":"normalLockCountForUser","outputs":[{"internalType":"uint256","name":"","type":"uint256"}],"stateMutability":"view","type":"function"},{"inputs":[{"internalType":"address","name":"user","type":"address"},{"internalType":"uint256","name":"index","type":"uint256"}],"name":"normalLockForUserAtIndex","outputs":[{"components":[{"internalType":"uint256","name":"id","type":"uint256"},{"internalType":"address","name":"token","type":"address"},{"internalType":"address","name":"owner","type":"address"},{"internalType":"uint256","name":"amount","type":"uint256"},{"internalType":"uint256","name":"lockDate","type":"uint256"},{"internalType":"uint256","name":"tgeDate","type":"uint256"},{"internalType":"uint256","name":"tgeBps","type":"uint256"},{"internalType":"uint256","name":"cycle","type":"uint256"},{"internalType":"uint256","name":"cycleBps","type":"uint256"},{"internalType":"uint256","name":"unlockedAmount","type":"uint256"},{"internalType":"string","name":"description","type":"string"}],"internalType":"struct KiwiLock.Lock","name":"","type":"tuple"}],"stateMutability":"view","type":"function"},{"inputs":[{"internalType":"address","name":"user","type":"address"}],"name":"normalLocksForUser","outputs":[{"components":[{"internalType":"uint256","name":"id","type":"uint256"},{"internalType":"address","name":"token","type":"address"},{"internalType":"address","name":"owner","type":"address"},{"internalType":"uint256","name":"amount","type":"uint256"},{"internalType":"uint256","name":"lockDate","type":"uint256"},{"internalType":"uint256","name":"tgeDate","type":"uint256"},{"internalType":"uint256","name":"tgeBps","type":"uint256"},{"internalType":"uint256","name":"cycle","type":"uint256"},{"internalType":"uint256","name":"cycleBps","type":"uint256"},{"internalType":"uint256","name":"unlockedAmount","type":"uint256"},{"internalType":"string","name":"description","type":"string"}],"internalType":"struct KiwiLock.Lock[]","name":"","type":"tuple[]"}],"stateMutability":"view","type":"function"},{"inputs":[{"internalType":"uint256","name":"lockId","type":"uint256"}],"name":"renounceLockOwnership","outputs":[],"stateMutability":"nonpayable","type":"function"},{"inputs":[{"internalType":"address","name":"token","type":"address"}],"name":"totalLockCountForToken","outputs":[{"internalType":"uint256","name":"","type":"uint256"}],"stateMutability":"view","type":"function"},{"inputs":[{"internalType":"address","name":"user","type":"address"}],"name":"totalLockCountForUser","outputs":[{"internalType":"uint256","name":"","type":"uint256"}],"stateMutability":"view","type":"function"},{"inputs":[],"name":"totalTokenLockedCount","outputs":[{"internalType":"uint256","name":"","type":"uint256"}],"stateMutability":"view","type":"function"},{"inputs":[{"internalType":"uint256","name":"lockId","type":"uint256"},{"internalType":"address","name":"newOwner","type":"address"}],"name":"transferLockOwnership","outputs":[],"stateMutability":"nonpayable","type":"function"},{"inputs":[{"internalType":"uint256","name":"lockId","type":"uint256"}],"name":"unlock","outputs":[],"stateMutability":"nonpayable","type":"function"},{"inputs":[{"internalType":"address","name":"owner","type":"address"},{"internalType":"address","name":"token","type":"address"},{"internalType":"bool","name":"isLpToken","type":"bool"},{"internalType":"uint256","name":"amount","type":"uint256"},{"internalType":"uint256","name":"tgeDate","type":"uint256"},{"internalType":"uint256","name":"tgeBps","type":"uint256"},{"internalType":"uint256","name":"cycle","type":"uint256"},{"internalType":"uint256","name":"cycleBps","type":"uint256"},{"internalType":"string","name":"description","type":"string"}],"name":"vestingLock","outputs":[{"internalType":"uint256","name":"id","type":"uint256"}],"stateMutability":"payable","type":"function"},{"inputs":[{"internalType":"uint256","name":"lockId","type":"uint256"}],"name":"withdrawableTokens","outputs":[{"internalType":"uint256","name":"","type":"uint256"}],"stateMutability":"view","type":"function"}],"evm":{"bytecode":{"linkReferences":{},"object":"608060405234801561001057600080fd5b5061613780620000216000396000f3fe6080604052600436106101b75760003560e01c8063a57e3141116100ec578063d3cac8851161008a578063e3676f8811610064578063e3676f88146106c2578063eb80bdae146106ff578063eeacf7861461073c578063fd981c6614610779576101b7565b8063d3cac8851461061d578063da1d8cff14610646578063e1444fd614610683576101b7565b8063b3b9aa48116100c6578063b3b9aa481461055c578063b982922e14610585578063cb645e32146105b0578063cd83eadc146105e0576101b7565b8063a57e3141146104b9578063aec640c6146104e2578063aef0e5401461051f576101b7565b80635a04fb69116101595780636dbdeab3116101335780636dbdeab3146103c557806376c12822146104025780637e6706d31461043f578063a20b8c181461047c576101b7565b80635a04fb6914610336578063618df7a31461035f5780636198e3391461039c576101b7565b80630d4f581a116101955780630d4f581a146102665780631982242c146102a3578063332f26d7146102ce578063475831c81461030b576101b7565b806307279357146101bc57806307873ef1146101ec57806308f1247014610229575b600080fd5b6101d660048036038101906101d19190614707565b6107a4565b6040516101e391906147bf565b60405180910390f35b3480156101f857600080fd5b50610213600480360381019061020e91906147da565b610902565b60405161022091906147bf565b60405180910390f35b34801561023557600080fd5b50610250600480360381019061024b9190614807565b610952565b60405161025d91906149c0565b60405180910390f35b34801561027257600080fd5b5061028d60048036038101906102889190614807565b610b25565b60405161029a91906149c0565b60405180910390f35b3480156102af57600080fd5b506102b8610cf0565b6040516102c591906147bf565b60405180910390f35b3480156102da57600080fd5b506102f560048036038101906102f091906149e2565b610d11565b6040516103029190614be6565b60405180910390f35b34801561031757600080fd5b50610320610ede565b60405161032d91906147bf565b60405180910390f35b34801561034257600080fd5b5061035d60048036038101906103589190614c08565b610eef565b005b34801561036b57600080fd5b5061038660048036038101906103819190614c48565b611258565b60405161039391906149c0565b60405180910390f35b3480156103a857600080fd5b506103c360048036038101906103be9190614807565b61130b565b005b3480156103d157600080fd5b506103ec60048036038101906103e79190614807565b6113ff565b6040516103f991906147bf565b60405180910390f35b34801561040e57600080fd5b5061042960048036038101906104249190614c88565b61141e565b6040516104369190614db9565b60405180910390f35b34801561044b57600080fd5b5061046660048036038101906104619190614807565b61162a565b6040516104739190614e1d565b60405180910390f35b34801561048857600080fd5b506104a3600480360381019061049e9190614807565b61174c565b6040516104b09190614e1d565b60405180910390f35b3480156104c557600080fd5b506104e060048036038101906104db9190614807565b61186e565b005b3480156104ee57600080fd5b5061050960048036038101906105049190614c88565b61187c565b6040516105169190614db9565b60405180910390f35b34801561052b57600080fd5b50610546600480360381019061054191906147da565b611a88565b6040516105539190614be6565b60405180910390f35b34801561056857600080fd5b50610583600480360381019061057e9190614e38565b611bcd565b005b34801561059157600080fd5b5061059a611f05565b6040516105a791906147bf565b60405180910390f35b6105ca60048036038101906105c59190614e8b565b611f16565b6040516105d791906147bf565b60405180910390f35b3480156105ec57600080fd5b50610607600480360381019061060291906147da565b6121a8565b60405161061491906147bf565b60405180910390f35b34801561062957600080fd5b50610644600480360381019061063f9190614f71565b6121cd565b005b34801561065257600080fd5b5061066d600480360381019061066891906147da565b6122e6565b60405161067a9190614be6565b60405180910390f35b34801561068f57600080fd5b506106aa60048036038101906106a591906147da565b61242b565b6040516106b993929190614fdc565b60405180910390f35b3480156106ce57600080fd5b506106e960048036038101906106e491906147da565b612495565b6040516106f691906147bf565b60405180910390f35b34801561070b57600080fd5b50610726600480360381019061072191906147da565b6124e5565b60405161073391906147bf565b60405180910390f35b34801561074857600080fd5b50610763600480360381019061075e9190614c48565b612535565b60405161077091906149c0565b60405180910390f35b34801561078557600080fd5b5061078e6125e8565b60405161079b91906147bf565b60405180910390f35b60008073ffffffffffffffffffffffffffffffffffffffff168673ffffffffffffffffffffffffffffffffffffffff1603610814576040517f08c379a000000000000000000000000000000000000000000000000000000000815260040161080b90615070565b60405180910390fd5b60008411610857576040517f08c379a000000000000000000000000000000000000000000000000000000000815260040161084e906150dc565b60405180910390fd5b428311610899576040517f08c379a00000000000000000000000000000000000000000000000000000000081526004016108909061516e565b60405180910390fd5b6108ac878787878760008060008a6125f4565b90506108ba86333087612642565b807f694af1cc8727cdd0afbdd53d9b87b69248bd490224e9dd090e788546506e076f878987876040516108f0949392919061518e565b60405180910390a29695505050505050565b600061094b600160008473ffffffffffffffffffffffffffffffffffffffff1673ffffffffffffffffffffffffffffffffffffffff1681526020019081526020016000206127c0565b9050919050565b61095a61440e565b6000610965836127d5565b81548110610976576109756151d3565b5b90600052602060002090600b020160405180610160016040529081600082015481526020016001820160009054906101000a900473ffffffffffffffffffffffffffffffffffffffff1673ffffffffffffffffffffffffffffffffffffffff1673ffffffffffffffffffffffffffffffffffffffff1681526020016002820160009054906101000a900473ffffffffffffffffffffffffffffffffffffffff1673ffffffffffffffffffffffffffffffffffffffff1673ffffffffffffffffffffffffffffffffffffffff16815260200160038201548152602001600482015481526020016005820154815260200160068201548152602001600782015481526020016008820154815260200160098201548152602001600a82018054610a9c90615231565b80601f0160208091040260200160405190810160405280929190818152602001828054610ac890615231565b8015610b155780601f10610aea57610100808354040283529160200191610b15565b820191906000526020600020905b815481529060010190602001808311610af857829003601f168201915b5050505050815250509050919050565b610b2d61440e565b60008281548110610b4157610b406151d3565b5b90600052602060002090600b020160405180610160016040529081600082015481526020016001820160009054906101000a900473ffffffffffffffffffffffffffffffffffffffff1673ffffffffffffffffffffffffffffffffffffffff1673ffffffffffffffffffffffffffffffffffffffff1681526020016002820160009054906101000a900473ffffffffffffffffffffffffffffffffffffffff1673ffffffffffffffffffffffffffffffffffffffff1673ffffffffffffffffffffffffffffffffffffffff16815260200160038201548152602001600482015481526020016005820154815260200160068201548152602001600782015481526020016008820154815260200160098201548152602001600a82018054610c6790615231565b80601f0160208091040260200160405190810160405280929190818152602001828054610c9390615231565b8015610ce05780601f10610cb557610100808354040283529160200191610ce0565b820191906000526020600020905b815481529060010190602001808311610cc357829003601f168201915b5050505050815250509050919050565b6000610cfa610ede565b610d02611f05565b610d0c9190615291565b905090565b6060610d5a600860008673ffffffffffffffffffffffffffffffffffffffff1673ffffffffffffffffffffffffffffffffffffffff1681526020019081526020016000206127c0565b8210610db6576001610da9600860008773ffffffffffffffffffffffffffffffffffffffff1673ffffffffffffffffffffffffffffffffffffffff1681526020019081526020016000206127c0565b610db391906152c5565b91505b600060018484610dc691906152c5565b610dd09190615291565b905060008167ffffffffffffffff811115610dee57610ded6145dc565b5b604051908082528060200260200182016040528015610e2757816020015b610e1461440e565b815260200190600190039081610e0c5790505b5090506000808690505b858111610ed057610e91610e8c82600860008c73ffffffffffffffffffffffffffffffffffffffff1673ffffffffffffffffffffffffffffffffffffffff16815260200190815260200160002061288090919063ffffffff16565b610952565b838381518110610ea457610ea36151d3565b5b60200260200101819052508180610eba906152f9565b9250508080610ec8906152f9565b915050610e31565b508193505050509392505050565b6000610eea600561289a565b905090565b81610ef9816127d5565b50600080610f06856127d5565b81548110610f1757610f166151d3565b5b90600052602060002090600b0201905060008160020160009054906101000a900473ffffffffffffffffffffffffffffffffffffffff1690503373ffffffffffffffffffffffffffffffffffffffff168173ffffffffffffffffffffffffffffffffffffffff1614610fbe576040517f08c379a0000000000000000000000000000000000000000000000000000000008152600401610fb5906153b3565b60405180910390fd5b838260020160006101000a81548173ffffffffffffffffffffffffffffffffffffffff021916908373ffffffffffffffffffffffffffffffffffffffff1602179055506000600760008460010160009054906101000a900473ffffffffffffffffffffffffffffffffffffffff1673ffffffffffffffffffffffffffffffffffffffff1673ffffffffffffffffffffffffffffffffffffffff168152602001908152602001600020905060008073ffffffffffffffffffffffffffffffffffffffff168260010160009054906101000a900473ffffffffffffffffffffffffffffffffffffffff1673ffffffffffffffffffffffffffffffffffffffff1614159050801561116f5761111787600160008673ffffffffffffffffffffffffffffffffffffffff1673ffffffffffffffffffffffffffffffffffffffff1681526020019081526020016000206128af90919063ffffffff16565b5061116987600160008973ffffffffffffffffffffffffffffffffffffffff1673ffffffffffffffffffffffffffffffffffffffff1681526020019081526020016000206128c990919063ffffffff16565b50611214565b6111c087600260008673ffffffffffffffffffffffffffffffffffffffff1673ffffffffffffffffffffffffffffffffffffffff1681526020019081526020016000206128af90919063ffffffff16565b5061121287600260008973ffffffffffffffffffffffffffffffffffffffff1673ffffffffffffffffffffffffffffffffffffffff1681526020019081526020016000206128c990919063ffffffff16565b505b7f9075ad040756c0d8743a1fed927066a92c4755071615bf61e04b17583d961caf878488604051611247939291906153d3565b60405180910390a150505050505050565b61126061440e565b8161126a846124e5565b116112aa576040517f08c379a00000000000000000000000000000000000000000000000000000000081526004016112a190615456565b60405180910390fd5b6113036112fe83600260008773ffffffffffffffffffffffffffffffffffffffff1673ffffffffffffffffffffffffffffffffffffffff16815260200190815260200160002061288090919063ffffffff16565b610952565b905092915050565b80611315816127d5565b50600080611322846127d5565b81548110611333576113326151d3565b5b90600052602060002090600b020190503373ffffffffffffffffffffffffffffffffffffffff168160020160009054906101000a900473ffffffffffffffffffffffffffffffffffffffff1673ffffffffffffffffffffffffffffffffffffffff16146113d5576040517f08c379a00000000000000000000000000000000000000000000000000000000081526004016113cc906153b3565b60405180910390fd5b6000816006015411156113f0576113eb816128e3565b6113fa565b6113f981612f10565b5b505050565b60008061140b83610952565b90506114168161331a565b915050919050565b606061142a600561289a565b821061144957600161143c600561289a565b61144691906152c5565b91505b60006001848461145991906152c5565b6114639190615291565b905060008167ffffffffffffffff811115611481576114806145dc565b5b6040519080825280602002602001820160405280156114ba57816020015b6114a7614494565b81526020019060019003908161149f5790505b5090506000808690505b85811161161d57600760006114e383600561343690919063ffffffff16565b73ffffffffffffffffffffffffffffffffffffffff1673ffffffffffffffffffffffffffffffffffffffff1681526020019081526020016000206040518060600160405290816000820160009054906101000a900473ffffffffffffffffffffffffffffffffffffffff1673ffffffffffffffffffffffffffffffffffffffff1673ffffffffffffffffffffffffffffffffffffffff1681526020016001820160009054906101000a900473ffffffffffffffffffffffffffffffffffffffff1673ffffffffffffffffffffffffffffffffffffffff1673ffffffffffffffffffffffffffffffffffffffff1681526020016002820154815250508383815181106115f1576115f06151d3565b5b60200260200101819052508180611607906152f9565b9250508080611615906152f9565b9150506114c4565b5081935050505092915050565b611632614494565b6007600061164a84600561343690919063ffffffff16565b73ffffffffffffffffffffffffffffffffffffffff1673ffffffffffffffffffffffffffffffffffffffff1681526020019081526020016000206040518060600160405290816000820160009054906101000a900473ffffffffffffffffffffffffffffffffffffffff1673ffffffffffffffffffffffffffffffffffffffff1673ffffffffffffffffffffffffffffffffffffffff1681526020016001820160009054906101000a900473ffffffffffffffffffffffffffffffffffffffff1673ffffffffffffffffffffffffffffffffffffffff1673ffffffffffffffffffffffffffffffffffffffff1681526020016002820154815250509050919050565b611754614494565b6007600061176c84600361343690919063ffffffff16565b73ffffffffffffffffffffffffffffffffffffffff1673ffffffffffffffffffffffffffffffffffffffff1681526020019081526020016000206040518060600160405290816000820160009054906101000a900473ffffffffffffffffffffffffffffffffffffffff1673ffffffffffffffffffffffffffffffffffffffff1673ffffffffffffffffffffffffffffffffffffffff1681526020016001820160009054906101000a900473ffffffffffffffffffffffffffffffffffffffff1673ffffffffffffffffffffffffffffffffffffffff1673ffffffffffffffffffffffffffffffffffffffff1681526020016002820154815250509050919050565b611879816000610eef565b50565b6060611888600361289a565b82106118a757600161189a600361289a565b6118a491906152c5565b91505b6000600184846118b791906152c5565b6118c19190615291565b905060008167ffffffffffffffff8111156118df576118de6145dc565b5b60405190808252806020026020018201604052801561191857816020015b611905614494565b8152602001906001900390816118fd5790505b5090506000808690505b858111611a7b576007600061194183600361343690919063ffffffff16565b73ffffffffffffffffffffffffffffffffffffffff1673ffffffffffffffffffffffffffffffffffffffff1681526020019081526020016000206040518060600160405290816000820160009054906101000a900473ffffffffffffffffffffffffffffffffffffffff1673ffffffffffffffffffffffffffffffffffffffff1673ffffffffffffffffffffffffffffffffffffffff1681526020016001820160009054906101000a900473ffffffffffffffffffffffffffffffffffffffff1673ffffffffffffffffffffffffffffffffffffffff1673ffffffffffffffffffffffffffffffffffffffff168152602001600282015481525050838381518110611a4f57611a4e6151d3565b5b60200260200101819052508180611a65906152f9565b9250508080611a73906152f9565b915050611922565b5081935050505092915050565b60606000611ad3600160008573ffffffffffffffffffffffffffffffffffffffff1673ffffffffffffffffffffffffffffffffffffffff1681526020019081526020016000206127c0565b905060008167ffffffffffffffff811115611af157611af06145dc565b5b604051908082528060200260200182016040528015611b2a57816020015b611b1761440e565b815260200190600190039081611b0f5790505b50905060005b82811015611bc257611b91611b8c82600160008973ffffffffffffffffffffffffffffffffffffffff1673ffffffffffffffffffffffffffffffffffffffff16815260200190815260200160002061288090919063ffffffff16565b610952565b828281518110611ba457611ba36151d3565b5b60200260200101819052508080611bba906152f9565b915050611b30565b508092505050919050565b82611bd7816127d5565b50600080611be4866127d5565b81548110611bf557611bf46151d3565b5b90600052602060002090600b020190503373ffffffffffffffffffffffffffffffffffffffff168160020160009054906101000a900473ffffffffffffffffffffffffffffffffffffffff1673ffffffffffffffffffffffffffffffffffffffff1614611c97576040517f08c379a0000000000000000000000000000000000000000000000000000000008152600401611c8e906153b3565b60405180910390fd5b6000816009015414611cde576040517f08c379a0000000000000000000000000000000000000000000000000000000008152600401611cd5906154c2565b60405180910390fd5b6000831115611d435780600501548310158015611cfa57504283115b611d39576040517f08c379a0000000000000000000000000000000000000000000000000000000008152600401611d309061557a565b60405180910390fd5b8281600501819055505b6000841115611e6c578060030154841015611d93576040517f08c379a0000000000000000000000000000000000000000000000000000000008152600401611d8a9061560c565b60405180910390fd5b6000816003015485611da591906152c5565b90506000811115611e6a578482600301819055506000600760008460010160009054906101000a900473ffffffffffffffffffffffffffffffffffffffff1673ffffffffffffffffffffffffffffffffffffffff1673ffffffffffffffffffffffffffffffffffffffff1681526020019081526020016000209050818160020154611e309190615291565b8160020181905550611e688360010160009054906101000a900473ffffffffffffffffffffffffffffffffffffffff16333085612642565b505b505b80600001547fa8b26360df8d5e154ffa5a8a7e894e85f781acfbbef0b744fb9551d8fd0fd36c8260010160009054906101000a900473ffffffffffffffffffffffffffffffffffffffff168360020160009054906101000a900473ffffffffffffffffffffffffffffffffffffffff1684600301548560050154604051611ef6949392919061518e565b60405180910390a25050505050565b6000611f11600361289a565b905090565b60008073ffffffffffffffffffffffffffffffffffffffff168973ffffffffffffffffffffffffffffffffffffffff1603611f86576040517f08c379a0000000000000000000000000000000000000000000000000000000008152600401611f7d90615070565b60405180910390fd5b60008711611fc9576040517f08c379a0000000000000000000000000000000000000000000000000000000008152600401611fc0906150dc565b60405180910390fd5b42861161200b576040517f08c379a000000000000000000000000000000000000000000000000000000000815260040161200290615678565b60405180910390fd5b6000841161204e576040517f08c379a0000000000000000000000000000000000000000000000000000000008152600401612045906156e4565b60405180910390fd5b60008511801561205f575061271085105b61209e576040517f08c379a000000000000000000000000000000000000000000000000000000000815260040161209590615750565b60405180910390fd5b6000831180156120af575061271083105b6120ee576040517f08c379a00000000000000000000000000000000000000000000000000000000081526004016120e5906157bc565b60405180910390fd5b61271083866120fd9190615291565b111561213e576040517f08c379a00000000000000000000000000000000000000000000000000000000081526004016121359061584e565b60405180910390fd5b61214f8a8a8a8a8a8a8a8a8a6125f4565b905061215d8933308a612642565b807f694af1cc8727cdd0afbdd53d9b87b69248bd490224e9dd090e788546506e076f8a8c8a8a604051612193949392919061518e565b60405180910390a29998505050505050505050565b60006121b382610902565b6121bc836124e5565b6121c69190615291565b9050919050565b816121d7816127d5565b506000806121e4856127d5565b815481106121f5576121f46151d3565b5b90600052602060002090600b020190503373ffffffffffffffffffffffffffffffffffffffff168160020160009054906101000a900473ffffffffffffffffffffffffffffffffffffffff1673ffffffffffffffffffffffffffffffffffffffff1614612297576040517f08c379a000000000000000000000000000000000000000000000000000000000815260040161228e906153b3565b60405180910390fd5b8281600a0190816122a89190615a1a565b507fe4a1120fd509c50aec65802fd3c3c9a4b72bf746fe9a552396185c6de928e8aa846040516122d891906147bf565b60405180910390a150505050565b60606000612331600260008573ffffffffffffffffffffffffffffffffffffffff1673ffffffffffffffffffffffffffffffffffffffff1681526020019081526020016000206127c0565b905060008167ffffffffffffffff81111561234f5761234e6145dc565b5b60405190808252806020026020018201604052801561238857816020015b61237561440e565b81526020019060019003908161236d5790505b50905060005b82811015612420576123ef6123ea82600260008973ffffffffffffffffffffffffffffffffffffffff1673ffffffffffffffffffffffffffffffffffffffff16815260200190815260200160002061288090919063ffffffff16565b610952565b828281518110612402576124016151d3565b5b60200260200101819052508080612418906152f9565b91505061238e565b508092505050919050565b60076020528060005260406000206000915090508060000160009054906101000a900473ffffffffffffffffffffffffffffffffffffffff16908060010160009054906101000a900473ffffffffffffffffffffffffffffffffffffffff16908060020154905083565b60006124de600860008473ffffffffffffffffffffffffffffffffffffffff1673ffffffffffffffffffffffffffffffffffffffff1681526020019081526020016000206127c0565b9050919050565b600061252e600260008473ffffffffffffffffffffffffffffffffffffffff1673ffffffffffffffffffffffffffffffffffffffff1681526020019081526020016000206127c0565b9050919050565b61253d61440e565b8161254784610902565b11612587576040517f08c379a000000000000000000000000000000000000000000000000000000000815260040161257e90615456565b60405180910390fd5b6125e06125db83600160008773ffffffffffffffffffffffffffffffffffffffff1673ffffffffffffffffffffffffffffffffffffffff16815260200190815260200160002061288090919063ffffffff16565b610952565b905092915050565b60008080549050905090565b600087156126225760006126078a613450565b905061261a8b8b838b8b8b8b8b8b613589565b915050612635565b6126328a8a89898989898961379e565b90505b9998505050505050505050565b60008473ffffffffffffffffffffffffffffffffffffffff166370a08231846040518263ffffffff1660e01b815260040161267d9190615aec565b602060405180830381865afa15801561269a573d6000803e3d6000fd5b505050506040513d601f19601f820116820180604052508101906126be9190615b1c565b90506126ed8484848873ffffffffffffffffffffffffffffffffffffffff166139b3909392919063ffffffff16565b60008573ffffffffffffffffffffffffffffffffffffffff166370a08231856040518263ffffffff1660e01b81526004016127289190615aec565b602060405180830381865afa158015612745573d6000803e3d6000fd5b505050506040513d601f19601f820116820180604052508101906127699190615b1c565b905082828261277891906152c5565b146127b8576040517f08c379a00000000000000000000000000000000000000000000000000000000081526004016127af90615b95565b60405180910390fd5b505050505050565b60006127ce82600001613a35565b9050919050565b6000620f424082101561281d576040517f08c379a000000000000000000000000000000000000000000000000000000000815260040161281490615c01565b60405180910390fd5b6000620f42408361282e91906152c5565b90506000805490508110612877576040517f08c379a000000000000000000000000000000000000000000000000000000000815260040161286e90615c01565b60405180910390fd5b80915050919050565b600061288f8360000183613a46565b60001c905092915050565b60006128a882600001613a35565b9050919050565b60006128c1836000018360001b613a71565b905092915050565b60006128db836000018360001b613b85565b905092915050565b6000612a888260405180610160016040529081600082015481526020016001820160009054906101000a900473ffffffffffffffffffffffffffffffffffffffff1673ffffffffffffffffffffffffffffffffffffffff1673ffffffffffffffffffffffffffffffffffffffff1681526020016002820160009054906101000a900473ffffffffffffffffffffffffffffffffffffffff1673ffffffffffffffffffffffffffffffffffffffff1673ffffffffffffffffffffffffffffffffffffffff16815260200160038201548152602001600482015481526020016005820154815260200160068201548152602001600782015481526020016008820154815260200160098201548152602001600a82018054612a0190615231565b80601f0160208091040260200160405190810160405280929190818152602001828054612a2d90615231565b8015612a7a5780601f10612a4f57610100808354040283529160200191612a7a565b820191906000526020600020905b815481529060010190602001808311612a5d57829003601f168201915b50505050508152505061331a565b90506000818360090154612a9c9190615291565b9050600082118015612ab2575082600301548111155b612af1576040517f08c379a0000000000000000000000000000000000000000000000000000000008152600401612ae890615c6d565b60405180910390fd5b6000600760008560010160009054906101000a900473ffffffffffffffffffffffffffffffffffffffff1673ffffffffffffffffffffffffffffffffffffffff1673ffffffffffffffffffffffffffffffffffffffff168152602001908152602001600020905060008073ffffffffffffffffffffffffffffffffffffffff168260010160009054906101000a900473ffffffffffffffffffffffffffffffffffffffff1673ffffffffffffffffffffffffffffffffffffffff161415905084600301548303612d54578015612c1c57612c168560000154600160003373ffffffffffffffffffffffffffffffffffffffff1673ffffffffffffffffffffffffffffffffffffffff1681526020019081526020016000206128af90919063ffffffff16565b50612c73565b612c718560000154600260003373ffffffffffffffffffffffffffffffffffffffff1673ffffffffffffffffffffffffffffffffffffffff1681526020019081526020016000206128af90919063ffffffff16565b505b612cec8560000154600860008860010160009054906101000a900473ffffffffffffffffffffffffffffffffffffffff1673ffffffffffffffffffffffffffffffffffffffff1673ffffffffffffffffffffffffffffffffffffffff1681526020019081526020016000206128af90919063ffffffff16565b5084600001547fc6532367992b32e42a62dd89fc3574876d97d081a263aa6e030f34b79b7e6e8b8660010160009054906101000a900473ffffffffffffffffffffffffffffffffffffffff16338642604051612d4b949392919061518e565b60405180910390a25b83826002015411612d6e5760008260020181905550612d87565b838260020154612d7e91906152c5565b82600201819055505b6000826002015403612e12578015612dd757612dd18560010160009054906101000a900473ffffffffffffffffffffffffffffffffffffffff166003613bf590919063ffffffff16565b50612e11565b612e0f8560010160009054906101000a900473ffffffffffffffffffffffffffffffffffffffff166005613bf590919063ffffffff16565b505b5b828560090181905550612e8e8560020160009054906101000a900473ffffffffffffffffffffffffffffffffffffffff16858760010160009054906101000a900473ffffffffffffffffffffffffffffffffffffffff1673ffffffffffffffffffffffffffffffffffffffff16613c259092919063ffffffff16565b84600001547ff93385ffdf40b698b13993c059834b8e91d0ca8e7abf827a34001ca03c03f6ff8660010160009054906101000a900473ffffffffffffffffffffffffffffffffffffffff16338789600901548a60030154612eef91906152c5565b42604051612f01959493929190615c8d565b60405180910390a25050505050565b8060050154421015612f57576040517f08c379a0000000000000000000000000000000000000000000000000000000008152600401612f4e90615d2c565b60405180910390fd5b6000816009015414612f9e576040517f08c379a0000000000000000000000000000000000000000000000000000000008152600401612f9590615c6d565b60405180910390fd5b6000600760008360010160009054906101000a900473ffffffffffffffffffffffffffffffffffffffff1673ffffffffffffffffffffffffffffffffffffffff1673ffffffffffffffffffffffffffffffffffffffff168152602001908152602001600020905060008073ffffffffffffffffffffffffffffffffffffffff168260010160009054906101000a900473ffffffffffffffffffffffffffffffffffffffff1673ffffffffffffffffffffffffffffffffffffffff161415905080156130be576130b88360000154600160003373ffffffffffffffffffffffffffffffffffffffff1673ffffffffffffffffffffffffffffffffffffffff1681526020019081526020016000206128af90919063ffffffff16565b50613115565b6131138360000154600260003373ffffffffffffffffffffffffffffffffffffffff1673ffffffffffffffffffffffffffffffffffffffff1681526020019081526020016000206128af90919063ffffffff16565b505b600083600301549050808360020154116131385760008360020181905550613151565b80836002015461314891906152c5565b83600201819055505b60008360020154036131dc5781156131a15761319b8460010160009054906101000a900473ffffffffffffffffffffffffffffffffffffffff166003613bf590919063ffffffff16565b506131db565b6131d98460010160009054906101000a900473ffffffffffffffffffffffffffffffffffffffff166005613bf590919063ffffffff16565b505b5b80846009018190555061325e8460000154600860008760010160009054906101000a900473ffffffffffffffffffffffffffffffffffffffff1673ffffffffffffffffffffffffffffffffffffffff1673ffffffffffffffffffffffffffffffffffffffff1681526020019081526020016000206128af90919063ffffffff16565b506132ae33828660010160009054906101000a900473ffffffffffffffffffffffffffffffffffffffff1673ffffffffffffffffffffffffffffffffffffffff16613c259092919063ffffffff16565b83600001547fc6532367992b32e42a62dd89fc3574876d97d081a263aa6e030f34b79b7e6e8b8560010160009054906101000a900473ffffffffffffffffffffffffffffffffffffffff1633844260405161330c949392919061518e565b60405180910390a250505050565b6000808260600151036133305760009050613431565b8160600151826101200151106133495760009050613431565b8160a0015142101561335e5760009050613431565b60008260e00151036133735760009050613431565b600061338a83606001518460c00151612710613ca4565b905060006133a48460600151856101000151612710613ca4565b905060008460a0015142106133eb5782828660e001518760a00151426133ca91906152c5565b6133d49190615d7b565b6133de9190615dac565b6133e89190615291565b90505b6000856060015182111561341557856101200151866060015161340e91906152c5565b9050613429565b8561012001518261342691906152c5565b90505b809450505050505b919050565b60006134458360000183613a46565b60001c905092915050565b6000808273ffffffffffffffffffffffffffffffffffffffff1663c45a01556040518163ffffffff1660e01b8152600401602060405180830381865afa9250505080156134bb57506040513d601f19601f820116820180604052508101906134b89190615e03565b60015b6134fa576040517f08c379a00000000000000000000000000000000000000000000000000000000081526004016134f190615e7c565b60405180910390fd5b80915050600073ffffffffffffffffffffffffffffffffffffffff168173ffffffffffffffffffffffffffffffffffffffff161415801561354157506135408382613e0b565b5b613580576040517f08c379a000000000000000000000000000000000000000000000000000000000815260040161357790615ee8565b60405180910390fd5b80915050919050565b600061359b8a8a898989898989613fa6565b90506135ee81600160008d73ffffffffffffffffffffffffffffffffffffffff1673ffffffffffffffffffffffffffffffffffffffff1681526020019081526020016000206128c990919063ffffffff16565b5061360389600361416d90919063ffffffff16565b506000600760008b73ffffffffffffffffffffffffffffffffffffffff1673ffffffffffffffffffffffffffffffffffffffff1681526020019081526020016000209050600073ffffffffffffffffffffffffffffffffffffffff168160000160009054906101000a900473ffffffffffffffffffffffffffffffffffffffff1673ffffffffffffffffffffffffffffffffffffffff160361372657898160000160006101000a81548173ffffffffffffffffffffffffffffffffffffffff021916908373ffffffffffffffffffffffffffffffffffffffff160217905550888160010160006101000a81548173ffffffffffffffffffffffffffffffffffffffff021916908373ffffffffffffffffffffffffffffffffffffffff1602179055505b8781600201546137369190615291565b816002018190555061378f82600860008d73ffffffffffffffffffffffffffffffffffffffff1673ffffffffffffffffffffffffffffffffffffffff1681526020019081526020016000206128c990919063ffffffff16565b50509998505050505050505050565b60006137b08989898989898989613fa6565b905061380381600260008c73ffffffffffffffffffffffffffffffffffffffff1673ffffffffffffffffffffffffffffffffffffffff1681526020019081526020016000206128c990919063ffffffff16565b5061381888600561416d90919063ffffffff16565b506000600760008a73ffffffffffffffffffffffffffffffffffffffff1673ffffffffffffffffffffffffffffffffffffffff1681526020019081526020016000209050600073ffffffffffffffffffffffffffffffffffffffff168160000160009054906101000a900473ffffffffffffffffffffffffffffffffffffffff1673ffffffffffffffffffffffffffffffffffffffff160361393c57888160000160006101000a81548173ffffffffffffffffffffffffffffffffffffffff021916908373ffffffffffffffffffffffffffffffffffffffff16021790555060008160010160006101000a81548173ffffffffffffffffffffffffffffffffffffffff021916908373ffffffffffffffffffffffffffffffffffffffff1602179055505b87816002015461394c9190615291565b81600201819055506139a582600860008c73ffffffffffffffffffffffffffffffffffffffff1673ffffffffffffffffffffffffffffffffffffffff1681526020019081526020016000206128c990919063ffffffff16565b505098975050505050505050565b613a2f848573ffffffffffffffffffffffffffffffffffffffff166323b872dd8686866040516024016139e893929190614fdc565b604051602081830303815290604052915060e01b6020820180517bffffffffffffffffffffffffffffffffffffffffffffffffffffffff838183161783525050505061419d565b50505050565b600081600001805490509050919050565b6000826000018281548110613a5e57613a5d6151d3565b5b9060005260206000200154905092915050565b60008083600101600084815260200190815260200160002054905060008114613b79576000600182613aa391906152c5565b9050600060018660000180549050613abb91906152c5565b9050808214613b2a576000866000018281548110613adc57613adb6151d3565b5b9060005260206000200154905080876000018481548110613b0057613aff6151d3565b5b90600052602060002001819055508387600101600083815260200190815260200160002081905550505b85600001805480613b3e57613b3d615f08565b5b600190038181906000526020600020016000905590558560010160008681526020019081526020016000206000905560019350505050613b7f565b60009150505b92915050565b6000613b918383614234565b613bea578260000182908060018154018082558091505060019003906000526020600020016000909190919091505582600001805490508360010160008481526020019081526020016000208190555060019050613bef565b600090505b92915050565b6000613c1d836000018373ffffffffffffffffffffffffffffffffffffffff1660001b613a71565b905092915050565b613c9f838473ffffffffffffffffffffffffffffffffffffffff1663a9059cbb8585604051602401613c58929190615f37565b604051602081830303815290604052915060e01b6020820180517bffffffffffffffffffffffffffffffffffffffffffffffffffffffff838183161783525050505061419d565b505050565b6000806000801985870985870292508281108382030391505060008103613d145760008411613d08576040517f08c379a0000000000000000000000000000000000000000000000000000000008152600401613cff90615fac565b60405180910390fd5b83820492505050613e04565b808411613d56576040517f08c379a0000000000000000000000000000000000000000000000000000000008152600401613d4d90616018565b60405180910390fd5b60008486880990508281118203915080830392506000856001877fffffffffffffffffffffffffffffffffffffffffffffffffffffffffffffffff0301169050808604955080840493506001818260000304019050808302841793506000600287600302189050808702600203810290508087026002038102905080870260020381029050808702600203810290508087026002038102905080870260020381029050808502955050505050505b9392505050565b60008083905060008373ffffffffffffffffffffffffffffffffffffffff1663e6a439058373ffffffffffffffffffffffffffffffffffffffff16630dfe16816040518163ffffffff1660e01b8152600401602060405180830381865afa158015613e7a573d6000803e3d6000fd5b505050506040513d601f19601f82011682018060405250810190613e9e9190615e03565b8473ffffffffffffffffffffffffffffffffffffffff1663d21220a76040518163ffffffff1660e01b8152600401602060405180830381865afa158015613ee9573d6000803e3d6000fd5b505050506040513d601f19601f82011682018060405250810190613f0d9190615e03565b6040518363ffffffff1660e01b8152600401613f2a929190616038565b602060405180830381865afa158015613f47573d6000803e3d6000fd5b505050506040513d601f19601f82011682018060405250810190613f6b9190615e03565b90508473ffffffffffffffffffffffffffffffffffffffff168173ffffffffffffffffffffffffffffffffffffffff16149250505092915050565b6000620f4240600080549050613fbc9190615291565b905060006040518061016001604052808381526020018a73ffffffffffffffffffffffffffffffffffffffff1681526020018b73ffffffffffffffffffffffffffffffffffffffff1681526020018981526020014281526020018881526020018781526020018681526020018581526020016000815260200184815250905060008190806001815401808255809150506001900390600052602060002090600b02016000909190919091506000820151816000015560208201518160010160006101000a81548173ffffffffffffffffffffffffffffffffffffffff021916908373ffffffffffffffffffffffffffffffffffffffff16021790555060408201518160020160006101000a81548173ffffffffffffffffffffffffffffffffffffffff021916908373ffffffffffffffffffffffffffffffffffffffff160217905550606082015181600301556080820151816004015560a0820151816005015560c0820151816006015560e082015181600701556101008201518160080155610120820151816009015561014082015181600a01908161415d9190615a1a565b5050505098975050505050505050565b6000614195836000018373ffffffffffffffffffffffffffffffffffffffff1660001b613b85565b905092915050565b60006141c8828473ffffffffffffffffffffffffffffffffffffffff1661425790919063ffffffff16565b905060008151141580156141ed5750808060200190518101906141eb9190616076565b155b1561422f57826040517f5274afe70000000000000000000000000000000000000000000000000000000081526004016142269190615aec565b60405180910390fd5b505050565b600080836001016000848152602001908152602001600020541415905092915050565b60606142658383600061426d565b905092915050565b6060814710156142b457306040517fcd7860590000000000000000000000000000000000000000000000000000000081526004016142ab9190615aec565b60405180910390fd5b6000808573ffffffffffffffffffffffffffffffffffffffff1684866040516142dd91906160ea565b60006040518083038185875af1925050503d806000811461431a576040519150601f19603f3d011682016040523d82523d6000602084013e61431f565b606091505b509150915061432f86838361433a565b925050509392505050565b60608261434f5761434a826143c9565b6143c1565b60008251148015614377575060008473ffffffffffffffffffffffffffffffffffffffff163b145b156143b957836040517f9996b3150000000000000000000000000000000000000000000000000000000081526004016143b09190615aec565b60405180910390fd5b8190506143c2565b5b9392505050565b6000815111156143dc5780518082602001fd5b6040517f1425ea4200000000000000000000000000000000000000000000000000000000815260040160405180910390fd5b60405180610160016040528060008152602001600073ffffffffffffffffffffffffffffffffffffffff168152602001600073ffffffffffffffffffffffffffffffffffffffff16815260200160008152602001600081526020016000815260200160008152602001600081526020016000815260200160008152602001606081525090565b6040518060600160405280600073ffffffffffffffffffffffffffffffffffffffff168152602001600073ffffffffffffffffffffffffffffffffffffffff168152602001600081525090565b6000604051905090565b600080fd5b600080fd5b600073ffffffffffffffffffffffffffffffffffffffff82169050919050565b6000614520826144f5565b9050919050565b61453081614515565b811461453b57600080fd5b50565b60008135905061454d81614527565b92915050565b60008115159050919050565b61456881614553565b811461457357600080fd5b50565b6000813590506145858161455f565b92915050565b6000819050919050565b61459e8161458b565b81146145a957600080fd5b50565b6000813590506145bb81614595565b92915050565b600080fd5b600080fd5b6000601f19601f8301169050919050565b7f4e487b7100000000000000000000000000000000000000000000000000000000600052604160045260246000fd5b614614826145cb565b810181811067ffffffffffffffff82111715614633576146326145dc565b5b80604052505050565b60006146466144e1565b9050614652828261460b565b919050565b600067ffffffffffffffff821115614672576146716145dc565b5b61467b826145cb565b9050602081019050919050565b82818337600083830152505050565b60006146aa6146a584614657565b61463c565b9050828152602081018484840111156146c6576146c56145c6565b5b6146d1848285614688565b509392505050565b600082601f8301126146ee576146ed6145c1565b5b81356146fe848260208601614697565b91505092915050565b60008060008060008060c08789031215614724576147236144eb565b5b600061473289828a0161453e565b965050602061474389828a0161453e565b955050604061475489828a01614576565b945050606061476589828a016145ac565b935050608061477689828a016145ac565b92505060a087013567ffffffffffffffff811115614797576147966144f0565b5b6147a389828a016146d9565b9150509295509295509295565b6147b98161458b565b82525050565b60006020820190506147d460008301846147b0565b92915050565b6000602082840312156147f0576147ef6144eb565b5b60006147fe8482850161453e565b91505092915050565b60006020828403121561481d5761481c6144eb565b5b600061482b848285016145ac565b91505092915050565b61483d8161458b565b82525050565b61484c81614515565b82525050565b600081519050919050565b600082825260208201905092915050565b60005b8381101561488c578082015181840152602081019050614871565b60008484015250505050565b60006148a382614852565b6148ad818561485d565b93506148bd81856020860161486e565b6148c6816145cb565b840191505092915050565b6000610160830160008301516148ea6000860182614834565b5060208301516148fd6020860182614843565b5060408301516149106040860182614843565b5060608301516149236060860182614834565b5060808301516149366080860182614834565b5060a083015161494960a0860182614834565b5060c083015161495c60c0860182614834565b5060e083015161496f60e0860182614834565b50610100830151614984610100860182614834565b50610120830151614999610120860182614834565b506101408301518482036101408601526149b38282614898565b9150508091505092915050565b600060208201905081810360008301526149da81846148d1565b905092915050565b6000806000606084860312156149fb576149fa6144eb565b5b6000614a098682870161453e565b9350506020614a1a868287016145ac565b9250506040614a2b868287016145ac565b9150509250925092565b600081519050919050565b600082825260208201905092915050565b6000819050602082019050919050565b600061016083016000830151614a7a6000860182614834565b506020830151614a8d6020860182614843565b506040830151614aa06040860182614843565b506060830151614ab36060860182614834565b506080830151614ac66080860182614834565b5060a0830151614ad960a0860182614834565b5060c0830151614aec60c0860182614834565b5060e0830151614aff60e0860182614834565b50610100830151614b14610100860182614834565b50610120830151614b29610120860182614834565b50610140830151848203610140860152614b438282614898565b9150508091505092915050565b6000614b5c8383614a61565b905092915050565b6000602082019050919050565b6000614b7c82614a35565b614b868185614a40565b935083602082028501614b9885614a51565b8060005b85811015614bd45784840389528151614bb58582614b50565b9450614bc083614b64565b925060208a01995050600181019050614b9c565b50829750879550505050505092915050565b60006020820190508181036000830152614c008184614b71565b905092915050565b60008060408385031215614c1f57614c1e6144eb565b5b6000614c2d858286016145ac565b9250506020614c3e8582860161453e565b9150509250929050565b60008060408385031215614c5f57614c5e6144eb565b5b6000614c6d8582860161453e565b9250506020614c7e858286016145ac565b9150509250929050565b60008060408385031215614c9f57614c9e6144eb565b5b6000614cad858286016145ac565b9250506020614cbe858286016145ac565b9150509250929050565b600081519050919050565b600082825260208201905092915050565b6000819050602082019050919050565b606082016000820151614d0a6000850182614843565b506020820151614d1d6020850182614843565b506040820151614d306040850182614834565b50505050565b6000614d428383614cf4565b60608301905092915050565b6000602082019050919050565b6000614d6682614cc8565b614d708185614cd3565b9350614d7b83614ce4565b8060005b83811015614dac578151614d938882614d36565b9750614d9e83614d4e565b925050600181019050614d7f565b5085935050505092915050565b60006020820190508181036000830152614dd38184614d5b565b905092915050565b606082016000820151614df16000850182614843565b506020820151614e046020850182614843565b506040820151614e176040850182614834565b50505050565b6000606082019050614e326000830184614ddb565b92915050565b600080600060608486031215614e5157614e506144eb565b5b6000614e5f868287016145ac565b9350506020614e70868287016145ac565b9250506040614e81868287016145ac565b9150509250925092565b60008060008060008060008060006101208a8c031215614eae57614ead6144eb565b5b6000614ebc8c828d0161453e565b9950506020614ecd8c828d0161453e565b9850506040614ede8c828d01614576565b9750506060614eef8c828d016145ac565b9650506080614f008c828d016145ac565b95505060a0614f118c828d016145ac565b94505060c0614f228c828d016145ac565b93505060e0614f338c828d016145ac565b9250506101008a013567ffffffffffffffff811115614f5557614f546144f0565b5b614f618c828d016146d9565b9150509295985092959850929598565b60008060408385031215614f8857614f876144eb565b5b6000614f96858286016145ac565b925050602083013567ffffffffffffffff811115614fb757614fb66144f0565b5b614fc3858286016146d9565b9150509250929050565b614fd681614515565b82525050565b6000606082019050614ff16000830186614fcd565b614ffe6020830185614fcd565b61500b60408301846147b0565b949350505050565b600082825260208201905092915050565b7f496e76616c696420746f6b656e00000000000000000000000000000000000000600082015250565b600061505a600d83615013565b915061506582615024565b602082019050919050565b600060208201905081810360008301526150898161504d565b9050919050565b7f416d6f756e742073686f756c642062652067726561746572207468616e203000600082015250565b60006150c6601f83615013565b91506150d182615090565b602082019050919050565b600060208201905081810360008301526150f5816150b9565b9050919050565b7f556e6c6f636b20646174652073686f756c6420626520696e207468652066757460008201527f7572650000000000000000000000000000000000000000000000000000000000602082015250565b6000615158602383615013565b9150615163826150fc565b604082019050919050565b600060208201905081810360008301526151878161514b565b9050919050565b60006080820190506151a36000830187614fcd565b6151b06020830186614fcd565b6151bd60408301856147b0565b6151ca60608301846147b0565b95945050505050565b7f4e487b7100000000000000000000000000000000000000000000000000000000600052603260045260246000fd5b7f4e487b7100000000000000000000000000000000000000000000000000000000600052602260045260246000fd5b6000600282049050600182168061524957607f821691505b60208210810361525c5761525b615202565b5b50919050565b7f4e487b7100000000000000000000000000000000000000000000000000000000600052601160045260246000fd5b600061529c8261458b565b91506152a78361458b565b92508282019050808211156152bf576152be615262565b5b92915050565b60006152d08261458b565b91506152db8361458b565b92508282039050818111156152f3576152f2615262565b5b92915050565b60006153048261458b565b91507fffffffffffffffffffffffffffffffffffffffffffffffffffffffffffffffff820361533657615335615262565b5b600182019050919050565b7f596f7520617265206e6f7420746865206f776e6572206f662074686973206c6f60008201527f636b000000000000000000000000000000000000000000000000000000000000602082015250565b600061539d602283615013565b91506153a882615341565b604082019050919050565b600060208201905081810360008301526153cc81615390565b9050919050565b60006060820190506153e860008301866147b0565b6153f56020830185614fcd565b6154026040830184614fcd565b949350505050565b7f496e76616c696420696e64657800000000000000000000000000000000000000600082015250565b6000615440600d83615013565b915061544b8261540a565b602082019050919050565b6000602082019050818103600083015261546f81615433565b9050919050565b7f4c6f636b2077617320756e6c6f636b6564000000000000000000000000000000600082015250565b60006154ac601183615013565b91506154b782615476565b602082019050919050565b600060208201905081810360008301526154db8161549f565b9050919050565b7f4e657720756e6c6f636b2074696d652073686f756c64206e6f7420626520626560008201527f666f7265206f6c6420756e6c6f636b2074696d65206f722063757272656e742060208201527f74696d6500000000000000000000000000000000000000000000000000000000604082015250565b6000615564604483615013565b915061556f826154e2565b606082019050919050565b6000602082019050818103600083015261559381615557565b9050919050565b7f4e657720616d6f756e742073686f756c64206e6f74206265206c65737320746860008201527f616e2063757272656e7420616d6f756e74000000000000000000000000000000602082015250565b60006155f6603183615013565b91506156018261559a565b604082019050919050565b60006020820190508181036000830152615625816155e9565b9050919050565b7f54474520646174652073686f756c6420626520696e2074686520667574757265600082015250565b6000615662602083615013565b915061566d8261562c565b602082019050919050565b6000602082019050818103600083015261569181615655565b9050919050565b7f496e76616c6964206379636c6500000000000000000000000000000000000000600082015250565b60006156ce600d83615013565b91506156d982615698565b602082019050919050565b600060208201905081810360008301526156fd816156c1565b9050919050565b7f496e76616c6964206269707320666f7220544745000000000000000000000000600082015250565b600061573a601483615013565b915061574582615704565b602082019050919050565b600060208201905081810360008301526157698161572d565b9050919050565b7f496e76616c6964206269707320666f72206379636c6500000000000000000000600082015250565b60006157a6601683615013565b91506157b182615770565b602082019050919050565b600060208201905081810360008301526157d581615799565b9050919050565b7f53756d206f66205447452062707320616e64206379636c652073686f756c642060008201527f6265206c657373207468616e2031303030300000000000000000000000000000602082015250565b6000615838603283615013565b9150615843826157dc565b604082019050919050565b600060208201905081810360008301526158678161582b565b9050919050565b60008190508160005260206000209050919050565b60006020601f8301049050919050565b600082821b905092915050565b6000600883026158d07fffffffffffffffffffffffffffffffffffffffffffffffffffffffffffffffff82615893565b6158da8683615893565b95508019841693508086168417925050509392505050565b6000819050919050565b600061591761591261590d8461458b565b6158f2565b61458b565b9050919050565b6000819050919050565b615931836158fc565b61594561593d8261591e565b8484546158a0565b825550505050565b600090565b61595a61594d565b615965818484615928565b505050565b5b818110156159895761597e600082615952565b60018101905061596b565b5050565b601f8211156159ce5761599f8161586e565b6159a884615883565b810160208510156159b7578190505b6159cb6159c385615883565b83018261596a565b50505b505050565b600082821c905092915050565b60006159f1600019846008026159d3565b1980831691505092915050565b6000615a0a83836159e0565b9150826002028217905092915050565b615a2382614852565b67ffffffffffffffff811115615a3c57615a3b6145dc565b5b615a468254615231565b615a5182828561598d565b600060209050601f831160018114615a845760008415615a72578287015190505b615a7c85826159fe565b865550615ae4565b601f198416615a928661586e565b60005b82811015615aba57848901518255600182019150602085019450602081019050615a95565b86831015615ad75784890151615ad3601f8916826159e0565b8355505b6001600288020188555050505b505050505050565b6000602082019050615b016000830184614fcd565b92915050565b600081519050615b1681614595565b92915050565b600060208284031215615b3257615b316144eb565b5b6000615b4084828501615b07565b91505092915050565b7f4e6f7420656e6f75676820746f6b656e20776173207472616e73666572656400600082015250565b6000615b7f601f83615013565b9150615b8a82615b49565b602082019050919050565b60006020820190508181036000830152615bae81615b72565b9050919050565b7f496e76616c6964206c6f636b2069640000000000000000000000000000000000600082015250565b6000615beb600f83615013565b9150615bf682615bb5565b602082019050919050565b60006020820190508181036000830152615c1a81615bde565b9050919050565b7f4e6f7468696e6720746f20756e6c6f636b000000000000000000000000000000600082015250565b6000615c57601183615013565b9150615c6282615c21565b602082019050919050565b60006020820190508181036000830152615c8681615c4a565b9050919050565b600060a082019050615ca26000830188614fcd565b615caf6020830187614fcd565b615cbc60408301866147b0565b615cc960608301856147b0565b615cd660808301846147b0565b9695505050505050565b7f4974206973206e6f742074696d6520746f20756e6c6f636b0000000000000000600082015250565b6000615d16601883615013565b9150615d2182615ce0565b602082019050919050565b60006020820190508181036000830152615d4581615d09565b9050919050565b7f4e487b7100000000000000000000000000000000000000000000000000000000600052601260045260246000fd5b6000615d868261458b565b9150615d918361458b565b925082615da157615da0615d4c565b5b828204905092915050565b6000615db78261458b565b9150615dc28361458b565b9250828202615dd08161458b565b91508282048414831517615de757615de6615262565b5b5092915050565b600081519050615dfd81614527565b92915050565b600060208284031215615e1957615e186144eb565b5b6000615e2784828501615dee565b91505092915050565b7f5468697320746f6b656e206973206e6f742061204c5020746f6b656e00000000600082015250565b6000615e66601c83615013565b9150615e7182615e30565b602082019050919050565b60006020820190508181036000830152615e9581615e59565b9050919050565b7f5468697320746f6b656e206973206e6f742061204c5020746f6b656e2e000000600082015250565b6000615ed2601d83615013565b9150615edd82615e9c565b602082019050919050565b60006020820190508181036000830152615f0181615ec5565b9050919050565b7f4e487b7100000000000000000000000000000000000000000000000000000000600052603160045260246000fd5b6000604082019050615f4c6000830185614fcd565b615f5960208301846147b0565b9392505050565b7f4469766973696f6e206279207a65726f00000000000000000000000000000000600082015250565b6000615f96601083615013565b9150615fa182615f60565b602082019050919050565b60006020820190508181036000830152615fc581615f89565b9050919050565b7f44656e6f6d696e61746f7220746f6f20736d616c6c0000000000000000000000600082015250565b6000616002601583615013565b915061600d82615fcc565b602082019050919050565b6000602082019050818103600083015261603181615ff5565b9050919050565b600060408201905061604d6000830185614fcd565b61605a6020830184614fcd565b9392505050565b6000815190506160708161455f565b92915050565b60006020828403121561608c5761608b6144eb565b5b600061609a84828501616061565b91505092915050565b600081519050919050565b600081905092915050565b60006160c4826160a3565b6160ce81856160ae565b93506160de81856020860161486e565b80840191505092915050565b60006160f682846160b9565b91508190509291505056fea26469706673582212202d090edf7f9550f29b6ce7d8e5917a0e70d6b610ef94c55b239ab80be919a3fe64736f6c63430008140033","opcodes":"PUSH1 0x80 PUSH1 0x40 MSTORE CALLVALUE DUP1 ISZERO PUSH2 0x10 JUMPI PUSH1 0x0 DUP1 REVERT JUMPDEST POP PUSH2 0x6137 DUP1 PUSH3 0x21 PUSH1 0x0 CODECOPY PUSH1 0x0 RETURN INVALID PUSH1 0x80 PUSH1 0x40 MSTORE PUSH1 0x4 CALLDATASIZE LT PUSH2 0x1B7 JUMPI PUSH1 0x0 CALLDATALOAD PUSH1 0xE0 SHR DUP1 PUSH4 0xA57E3141 GT PUSH2 0xEC JUMPI DUP1 PUSH4 0xD3CAC885 GT PUSH2 0x8A JUMPI DUP1 PUSH4 0xE3676F88 GT PUSH2 0x64 JUMPI DUP1 PUSH4 0xE3676F88 EQ PUSH2 0x6C2 JUMPI DUP1 PUSH4 0xEB80BDAE EQ PUSH2 0x6FF JUMPI DUP1 PUSH4 0xEEACF786 EQ PUSH2 0x73C JUMPI DUP1 PUSH4 0xFD981C66 EQ PUSH2 0x779 JUMPI PUSH2 0x1B7 JUMP JUMPDEST DUP1 PUSH4 0xD3CAC885 EQ PUSH2 0x61D JUMPI DUP1 PUSH4 0xDA1D8CFF EQ PUSH2 0x646 JUMPI DUP1 PUSH4 0xE1444FD6 EQ PUSH2 0x683 JUMPI PUSH2 0x1B7 JUMP JUMPDEST DUP1 PUSH4 0xB3B9AA48 GT PUSH2 0xC6 JUMPI DUP1 PUSH4 0xB3B9AA48 EQ PUSH2 0x55C JUMPI DUP1 PUSH4 0xB982922E EQ PUSH2 0x585 JUMPI DUP1 PUSH4 0xCB645E32 EQ PUSH2 0x5B0 JUMPI DUP1 PUSH4 0xCD83EADC EQ PUSH2 0x5E0 JUMPI PUSH2 0x1B7 JUMP JUMPDEST DUP1 PUSH4 0xA57E3141 EQ PUSH2 0x4B9 JUMPI DUP1 PUSH4 0xAEC640C6 EQ PUSH2 0x4E2 JUMPI DUP1 PUSH4 0xAEF0E540 EQ PUSH2 0x51F JUMPI PUSH2 0x1B7 JUMP JUMPDEST DUP1 PUSH4 0x5A04FB69 GT PUSH2 0x159 JUMPI DUP1 PUSH4 0x6DBDEAB3 GT PUSH2 0x133 JUMPI DUP1 PUSH4 0x6DBDEAB3 EQ PUSH2 0x3C5 JUMPI DUP1 PUSH4 0x76C12822 EQ PUSH2 0x402 JUMPI DUP1 PUSH4 0x7E6706D3 EQ PUSH2 0x43F JUMPI DUP1 PUSH4 0xA20B8C18 EQ PUSH2 0x47C JUMPI PUSH2 0x1B7 JUMP JUMPDEST DUP1 PUSH4 0x5A04FB69 EQ PUSH2 0x336 JUMPI DUP1 PUSH4 0x618DF7A3 EQ PUSH2 0x35F JUMPI DUP1 PUSH4 0x6198E339 EQ PUSH2 0x39C JUMPI PUSH2 0x1B7 JUMP JUMPDEST DUP1 PUSH4 0xD4F581A GT PUSH2 0x195 JUMPI DUP1 PUSH4 0xD4F581A EQ PUSH2 0x266 JUMPI DUP1 PUSH4 0x1982242C EQ PUSH2 0x2A3 JUMPI DUP1 PUSH4 0x332F26D7 EQ PUSH2 0x2CE JUMPI DUP1 PUSH4 0x475831C8 EQ PUSH2 0x30B JUMPI PUSH2 0x1B7 JUMP JUMPDEST DUP1 PUSH4 0x7279357 EQ PUSH2 0x1BC JUMPI DUP1 PUSH4 0x7873EF1 EQ PUSH2 0x1EC JUMPI DUP1 PUSH4 0x8F12470 EQ PUSH2 0x229 JUMPI JUMPDEST PUSH1 0x0 DUP1 REVERT JUMPDEST PUSH2 0x1D6 PUSH1 0x4 DUP1 CALLDATASIZE SUB DUP2 ADD SWAP1 PUSH2 0x1D1 SWAP2 SWAP1 PUSH2 0x4707 JUMP JUMPDEST PUSH2 0x7A4 JUMP JUMPDEST PUSH1 0x40 MLOAD PUSH2 0x1E3 SWAP2 SWAP1 PUSH2 0x47BF JUMP JUMPDEST PUSH1 0x40 MLOAD DUP1 SWAP2 SUB SWAP1 RETURN JUMPDEST CALLVALUE DUP1 ISZERO PUSH2 0x1F8 JUMPI PUSH1 0x0 DUP1 REVERT JUMPDEST POP PUSH2 0x213 PUSH1 0x4 DUP1 CALLDATASIZE SUB DUP2 ADD SWAP1 PUSH2 0x20E SWAP2 SWAP1 PUSH2 0x47DA JUMP JUMPDEST PUSH2 0x902 JUMP JUMPDEST PUSH1 0x40 MLOAD PUSH2 0x220 SWAP2 SWAP1 PUSH2 0x47BF JUMP JUMPDEST PUSH1 0x40 MLOAD DUP1 SWAP2 SUB SWAP1 RETURN JUMPDEST CALLVALUE DUP1 ISZERO PUSH2 0x235 JUMPI PUSH1 0x0 DUP1 REVERT JUMPDEST POP PUSH2 0x250 PUSH1 0x4 DUP1 CALLDATASIZE SUB DUP2 ADD SWAP1 PUSH2 0x24B SWAP2 SWAP1 PUSH2 0x4807 JUMP JUMPDEST PUSH2 0x952 JUMP JUMPDEST PUSH1 0x40 MLOAD PUSH2 0x25D SWAP2 SWAP1 PUSH2 0x49C0 JUMP JUMPDEST PUSH1 0x40 MLOAD DUP1 SWAP2 SUB SWAP1 RETURN JUMPDEST CALLVALUE DUP1 ISZERO PUSH2 0x272 JUMPI PUSH1 0x0 DUP1 REVERT JUMPDEST POP PUSH2 0x28D PUSH1 0x4 DUP1 CALLDATASIZE SUB DUP2 ADD SWAP1 PUSH2 0x288 SWAP2 SWAP1 PUSH2 0x4807 JUMP JUMPDEST PUSH2 0xB25 JUMP JUMPDEST PUSH1 0x40 MLOAD PUSH2 0x29A SWAP2 SWAP1 PUSH2 0x49C0 JUMP JUMPDEST PUSH1 0x40 MLOAD DUP1 SWAP2 SUB SWAP1 RETURN JUMPDEST CALLVALUE DUP1 ISZERO PUSH2 0x2AF JUMPI PUSH1 0x0 DUP1 REVERT JUMPDEST POP PUSH2 0x2B8 PUSH2 0xCF0 JUMP JUMPDEST PUSH1 0x40 MLOAD PUSH2 0x2C5 SWAP2 SWAP1 PUSH2 0x47BF JUMP JUMPDEST PUSH1 0x40 MLOAD DUP1 SWAP2 SUB SWAP1 RETURN JUMPDEST CALLVALUE DUP1 ISZERO PUSH2 0x2DA JUMPI PUSH1 0x0 DUP1 REVERT JUMPDEST POP PUSH2 0x2F5 PUSH1 0x4 DUP1 CALLDATASIZE SUB DUP2 ADD SWAP1 PUSH2 0x2F0 SWAP2 SWAP1 PUSH2 0x49E2 JUMP JUMPDEST PUSH2 0xD11 JUMP JUMPDEST PUSH1 0x40 MLOAD PUSH2 0x302 SWAP2 SWAP1 PUSH2 0x4BE6 JUMP JUMPDEST PUSH1 0x40 MLOAD DUP1 SWAP2 SUB SWAP1 RETURN JUMPDEST CALLVALUE DUP1 ISZERO PUSH2 0x317 JUMPI PUSH1 0x0 DUP1 REVERT JUMPDEST POP PUSH2 0x320 PUSH2 0xEDE JUMP JUMPDEST PUSH1 0x40 MLOAD PUSH2 0x32D SWAP2 SWAP1 PUSH2 0x47BF JUMP JUMPDEST PUSH1 0x40 MLOAD DUP1 SWAP2 SUB SWAP1 RETURN JUMPDEST CALLVALUE DUP1 ISZERO PUSH2 0x342 JUMPI PUSH1 0x0 DUP1 REVERT JUMPDEST POP PUSH2 0x35D PUSH1 0x4 DUP1 CALLDATASIZE SUB DUP2 ADD SWAP1 PUSH2 0x358 SWAP2 SWAP1 PUSH2 0x4C08 JUMP JUMPDEST PUSH2 0xEEF JUMP JUMPDEST STOP JUMPDEST CALLVALUE DUP1 ISZERO PUSH2 0x36B JUMPI PUSH1 0x0 DUP1 REVERT JUMPDEST POP PUSH2 0x386 PUSH1 0x4 DUP1 CALLDATASIZE SUB DUP2 ADD SWAP1 PUSH2 0x381 SWAP2 SWAP1 PUSH2 0x4C48 JUMP JUMPDEST PUSH2 0x1258 JUMP JUMPDEST PUSH1 0x40 MLOAD PUSH2 0x393 SWAP2 SWAP1 PUSH2 0x49C0 JUMP JUMPDEST PUSH1 0x40 MLOAD DUP1 SWAP2 SUB SWAP1 RETURN JUMPDEST CALLVALUE DUP1 ISZERO PUSH2 0x3A8 JUMPI PUSH1 0x0 DUP1 REVERT JUMPDEST POP PUSH2 0x3C3 PUSH1 0x4 DUP1 CALLDATASIZE SUB DUP2 ADD SWAP1 PUSH2 0x3BE SWAP2 SWAP1 PUSH2 0x4807 JUMP JUMPDEST PUSH2 0x130B JUMP JUMPDEST STOP JUMPDEST CALLVALUE DUP1 ISZERO PUSH2 0x3D1 JUMPI PUSH1 0x0 DUP1 REVERT JUMPDEST POP PUSH2 0x3EC PUSH1 0x4 DUP1 CALLDATASIZE SUB DUP2 ADD SWAP1 PUSH2 0x3E7 SWAP2 SWAP1 PUSH2 0x4807 JUMP JUMPDEST PUSH2 0x13FF JUMP JUMPDEST PUSH1 0x40 MLOAD PUSH2 0x3F9 SWAP2 SWAP1 PUSH2 0x47BF JUMP JUMPDEST PUSH1 0x40 MLOAD DUP1 SWAP2 SUB SWAP1 RETURN JUMPDEST CALLVALUE DUP1 ISZERO PUSH2 0x40E JUMPI PUSH1 0x0 DUP1 REVERT JUMPDEST POP PUSH2 0x429 PUSH1 0x4 DUP1 CALLDATASIZE SUB DUP2 ADD SWAP1 PUSH2 0x424 SWAP2 SWAP1 PUSH2 0x4C88 JUMP JUMPDEST PUSH2 0x141E JUMP JUMPDEST PUSH1 0x40 MLOAD PUSH2 0x436 SWAP2 SWAP1 PUSH2 0x4DB9 JUMP JUMPDEST PUSH1 0x40 MLOAD DUP1 SWAP2 SUB SWAP1 RETURN JUMPDEST CALLVALUE DUP1 ISZERO PUSH2 0x44B JUMPI PUSH1 0x0 DUP1 REVERT JUMPDEST POP PUSH2 0x466 PUSH1 0x4 DUP1 CALLDATASIZE SUB DUP2 ADD SWAP1 PUSH2 0x461 SWAP2 SWAP1 PUSH2 0x4807 JUMP JUMPDEST PUSH2 0x162A JUMP JUMPDEST PUSH1 0x40 MLOAD PUSH2 0x473 SWAP2 SWAP1 PUSH2 0x4E1D JUMP JUMPDEST PUSH1 0x40 MLOAD DUP1 SWAP2 SUB SWAP1 RETURN JUMPDEST CALLVALUE DUP1 ISZERO PUSH2 0x488 JUMPI PUSH1 0x0 DUP1 REVERT JUMPDEST POP PUSH2 0x4A3 PUSH1 0x4 DUP1 CALLDATASIZE SUB DUP2 ADD SWAP1 PUSH2 0x49E SWAP2 SWAP1 PUSH2 0x4807 JUMP JUMPDEST PUSH2 0x174C JUMP JUMPDEST PUSH1 0x40 MLOAD PUSH2 0x4B0 SWAP2 SWAP1 PUSH2 0x4E1D JUMP JUMPDEST PUSH1 0x40 MLOAD DUP1 SWAP2 SUB SWAP1 RETURN JUMPDEST CALLVALUE DUP1 ISZERO PUSH2 0x4C5 JUMPI PUSH1 0x0 DUP1 REVERT JUMPDEST POP PUSH2 0x4E0 PUSH1 0x4 DUP1 CALLDATASIZE SUB DUP2 ADD SWAP1 PUSH2 0x4DB SWAP2 SWAP1 PUSH2 0x4807 JUMP JUMPDEST PUSH2 0x186E JUMP JUMPDEST STOP JUMPDEST CALLVALUE DUP1 ISZERO PUSH2 0x4EE JUMPI PUSH1 0x0 DUP1 REVERT JUMPDEST POP PUSH2 0x509 PUSH1 0x4 DUP1 CALLDATASIZE SUB DUP2 ADD SWAP1 PUSH2 0x504 SWAP2 SWAP1 PUSH2 0x4C88 JUMP JUMPDEST PUSH2 0x187C JUMP JUMPDEST PUSH1 0x40 MLOAD PUSH2 0x516 SWAP2 SWAP1 PUSH2 0x4DB9 JUMP JUMPDEST PUSH1 0x40 MLOAD DUP1 SWAP2 SUB SWAP1 RETURN JUMPDEST CALLVALUE DUP1 ISZERO PUSH2 0x52B JUMPI PUSH1 0x0 DUP1 REVERT JUMPDEST POP PUSH2 0x546 PUSH1 0x4 DUP1 CALLDATASIZE SUB DUP2 ADD SWAP1 PUSH2 0x541 SWAP2 SWAP1 PUSH2 0x47DA JUMP JUMPDEST PUSH2 0x1A88 JUMP JUMPDEST PUSH1 0x40 MLOAD PUSH2 0x553 SWAP2 SWAP1 PUSH2 0x4BE6 JUMP JUMPDEST PUSH1 0x40 MLOAD DUP1 SWAP2 SUB SWAP1 RETURN JUMPDEST CALLVALUE DUP1 ISZERO PUSH2 0x568 JUMPI PUSH1 0x0 DUP1 REVERT JUMPDEST POP PUSH2 0x583 PUSH1 0x4 DUP1 CALLDATASIZE SUB DUP2 ADD SWAP1 PUSH2 0x57E SWAP2 SWAP1 PUSH2 0x4E38 JUMP JUMPDEST PUSH2 0x1BCD JUMP JUMPDEST STOP JUMPDEST CALLVALUE DUP1 ISZERO PUSH2 0x591 JUMPI PUSH1 0x0 DUP1 REVERT JUMPDEST POP PUSH2 0x59A PUSH2 0x1F05 JUMP JUMPDEST PUSH1 0x40 MLOAD PUSH2 0x5A7 SWAP2 SWAP1 PUSH2 0x47BF JUMP JUMPDEST PUSH1 0x40 MLOAD DUP1 SWAP2 SUB SWAP1 RETURN JUMPDEST PUSH2 0x5CA PUSH1 0x4 DUP1 CALLDATASIZE SUB DUP2 ADD SWAP1 PUSH2 0x5C5 SWAP2 SWAP1 PUSH2 0x4E8B JUMP JUMPDEST PUSH2 0x1F16 JUMP JUMPDEST PUSH1 0x40 MLOAD PUSH2 0x5D7 SWAP2 SWAP1 PUSH2 0x47BF JUMP JUMPDEST PUSH1 0x40 MLOAD DUP1 SWAP2 SUB SWAP1 RETURN JUMPDEST CALLVALUE DUP1 ISZERO PUSH2 0x5EC JUMPI PUSH1 0x0 DUP1 REVERT JUMPDEST POP PUSH2 0x607 PUSH1 0x4 DUP1 CALLDATASIZE SUB DUP2 ADD SWAP1 PUSH2 0x602 SWAP2 SWAP1 PUSH2 0x47DA JUMP JUMPDEST PUSH2 0x21A8 JUMP JUMPDEST PUSH1 0x40 MLOAD PUSH2 0x614 SWAP2 SWAP1 PUSH2 0x47BF JUMP JUMPDEST PUSH1 0x40 MLOAD DUP1 SWAP2 SUB SWAP1 RETURN JUMPDEST CALLVALUE DUP1 ISZERO PUSH2 0x629 JUMPI PUSH1 0x0 DUP1 REVERT JUMPDEST POP PUSH2 0x644 PUSH1 0x4 DUP1 CALLDATASIZE SUB DUP2 ADD SWAP1 PUSH2 0x63F SWAP2 SWAP1 PUSH2 0x4F71 JUMP JUMPDEST PUSH2 0x21CD JUMP JUMPDEST STOP JUMPDEST CALLVALUE DUP1 ISZERO PUSH2 0x652 JUMPI PUSH1 0x0 DUP1 REVERT JUMPDEST POP PUSH2 0x66D PUSH1 0x4 DUP1 CALLDATASIZE SUB DUP2 ADD SWAP1 PUSH2 0x668 SWAP2 SWAP1 PUSH2 0x47DA JUMP JUMPDEST PUSH2 0x22E6 JUMP JUMPDEST PUSH1 0x40 MLOAD PUSH2 0x67A SWAP2 SWAP1 PUSH2 0x4BE6 JUMP JUMPDEST PUSH1 0x40 MLOAD DUP1 SWAP2 SUB SWAP1 RETURN JUMPDEST CALLVALUE DUP1 ISZERO PUSH2 0x68F JUMPI PUSH1 0x0 DUP1 REVERT JUMPDEST POP PUSH2 0x6AA PUSH1 0x4 DUP1 CALLDATASIZE SUB DUP2 ADD SWAP1 PUSH2 0x6A5 SWAP2 SWAP1 PUSH2 0x47DA JUMP JUMPDEST PUSH2 0x242B JUMP JUMPDEST PUSH1 0x40 MLOAD PUSH2 0x6B9 SWAP4 SWAP3 SWAP2 SWAP1 PUSH2 0x4FDC JUMP JUMPDEST PUSH1 0x40 MLOAD DUP1 SWAP2 SUB SWAP1 RETURN JUMPDEST CALLVALUE DUP1 ISZERO PUSH2 0x6CE JUMPI PUSH1 0x0 DUP1 REVERT JUMPDEST POP PUSH2 0x6E9 PUSH1 0x4 DUP1 CALLDATASIZE SUB DUP2 ADD SWAP1 PUSH2 0x6E4 SWAP2 SWAP1 PUSH2 0x47DA JUMP JUMPDEST PUSH2 0x2495 JUMP JUMPDEST PUSH1 0x40 MLOAD PUSH2 0x6F6 SWAP2 SWAP1 PUSH2 0x47BF JUMP JUMPDEST PUSH1 0x40 MLOAD DUP1 SWAP2 SUB SWAP1 RETURN JUMPDEST CALLVALUE DUP1 ISZERO PUSH2 0x70B JUMPI PUSH1 0x0 DUP1 REVERT JUMPDEST POP PUSH2 0x726 PUSH1 0x4 DUP1 CALLDATASIZE SUB DUP2 ADD SWAP1 PUSH2 0x721 SWAP2 SWAP1 PUSH2 0x47DA JUMP JUMPDEST PUSH2 0x24E5 JUMP JUMPDEST PUSH1 0x40 MLOAD PUSH2 0x733 SWAP2 SWAP1 PUSH2 0x47BF JUMP JUMPDEST PUSH1 0x40 MLOAD DUP1 SWAP2 SUB SWAP1 RETURN JUMPDEST CALLVALUE DUP1 ISZERO PUSH2 0x748 JUMPI PUSH1 0x0 DUP1 REVERT JUMPDEST POP PUSH2 0x763 PUSH1 0x4 DUP1 CALLDATASIZE SUB DUP2 ADD SWAP1 PUSH2 0x75E SWAP2 SWAP1 PUSH2 0x4C48 JUMP JUMPDEST PUSH2 0x2535 JUMP JUMPDEST PUSH1 0x40 MLOAD PUSH2 0x770 SWAP2 SWAP1 PUSH2 0x49C0 JUMP JUMPDEST PUSH1 0x40 MLOAD DUP1 SWAP2 SUB SWAP1 RETURN JUMPDEST CALLVALUE DUP1 ISZERO PUSH2 0x785 JUMPI PUSH1 0x0 DUP1 REVERT JUMPDEST POP PUSH2 0x78E PUSH2 0x25E8 JUMP JUMPDEST PUSH1 0x40 MLOAD PUSH2 0x79B SWAP2 SWAP1 PUSH2 0x47BF JUMP JUMPDEST PUSH1 0x40 MLOAD DUP1 SWAP2 SUB SWAP1 RETURN JUMPDEST PUSH1 0x0 DUP1 PUSH20 0xFFFFFFFFFFFFFFFFFFFFFFFFFFFFFFFFFFFFFFFF AND DUP7 PUSH20 0xFFFFFFFFFFFFFFFFFFFFFFFFFFFFFFFFFFFFFFFF AND SUB PUSH2 0x814 JUMPI PUSH1 0x40 MLOAD PUSH32 0x8C379A000000000000000000000000000000000000000000000000000000000 DUP2 MSTORE PUSH1 0x4 ADD PUSH2 0x80B SWAP1 PUSH2 0x5070 JUMP JUMPDEST PUSH1 0x40 MLOAD DUP1 SWAP2 SUB SWAP1 REVERT JUMPDEST PUSH1 0x0 DUP5 GT PUSH2 0x857 JUMPI PUSH1 0x40 MLOAD PUSH32 0x8C379A000000000000000000000000000000000000000000000000000000000 DUP2 MSTORE PUSH1 0x4 ADD PUSH2 0x84E SWAP1 PUSH2 0x50DC JUMP JUMPDEST PUSH1 0x40 MLOAD DUP1 SWAP2 SUB SWAP1 REVERT JUMPDEST TIMESTAMP DUP4 GT PUSH2 0x899 JUMPI PUSH1 0x40 MLOAD PUSH32 0x8C379A000000000000000000000000000000000000000000000000000000000 DUP2 MSTORE PUSH1 0x4 ADD PUSH2 0x890 SWAP1 PUSH2 0x516E JUMP JUMPDEST PUSH1 0x40 MLOAD DUP1 SWAP2 SUB SWAP1 REVERT JUMPDEST PUSH2 0x8AC DUP8 DUP8 DUP8 DUP8 DUP8 PUSH1 0x0 DUP1 PUSH1 0x0 DUP11 PUSH2 0x25F4 JUMP JUMPDEST SWAP1 POP PUSH2 0x8BA DUP7 CALLER ADDRESS DUP8 PUSH2 0x2642 JUMP JUMPDEST DUP1 PUSH32 0x694AF1CC8727CDD0AFBDD53D9B87B69248BD490224E9DD090E788546506E076F DUP8 DUP10 DUP8 DUP8 PUSH1 0x40 MLOAD PUSH2 0x8F0 SWAP5 SWAP4 SWAP3 SWAP2 SWAP1 PUSH2 0x518E JUMP JUMPDEST PUSH1 0x40 MLOAD DUP1 SWAP2 SUB SWAP1 LOG2 SWAP7 SWAP6 POP POP POP POP POP POP JUMP JUMPDEST PUSH1 0x0 PUSH2 0x94B PUSH1 0x1 PUSH1 0x0 DUP5 PUSH20 0xFFFFFFFFFFFFFFFFFFFFFFFFFFFFFFFFFFFFFFFF AND PUSH20 0xFFFFFFFFFFFFFFFFFFFFFFFFFFFFFFFFFFFFFFFF AND DUP2 MSTORE PUSH1 0x20 ADD SWAP1 DUP2 MSTORE PUSH1 0x20 ADD PUSH1 0x0 KECCAK256 PUSH2 0x27C0 JUMP JUMPDEST SWAP1 POP SWAP2 SWAP1 POP JUMP JUMPDEST PUSH2 0x95A PUSH2 0x440E JUMP JUMPDEST PUSH1 0x0 PUSH2 0x965 DUP4 PUSH2 0x27D5 JUMP JUMPDEST DUP2 SLOAD DUP2 LT PUSH2 0x976 JUMPI PUSH2 0x975 PUSH2 0x51D3 JUMP JUMPDEST JUMPDEST SWAP1 PUSH1 0x0 MSTORE PUSH1 0x20 PUSH1 0x0 KECCAK256 SWAP1 PUSH1 0xB MUL ADD PUSH1 0x40 MLOAD DUP1 PUSH2 0x160 ADD PUSH1 0x40 MSTORE SWAP1 DUP2 PUSH1 0x0 DUP3 ADD SLOAD DUP2 MSTORE PUSH1 0x20 ADD PUSH1 0x1 DUP3 ADD PUSH1 0x0 SWAP1 SLOAD SWAP1 PUSH2 0x100 EXP SWAP1 DIV PUSH20 0xFFFFFFFFFFFFFFFFFFFFFFFFFFFFFFFFFFFFFFFF AND PUSH20 0xFFFFFFFFFFFFFFFFFFFFFFFFFFFFFFFFFFFFFFFF AND PUSH20 0xFFFFFFFFFFFFFFFFFFFFFFFFFFFFFFFFFFFFFFFF AND DUP2 MSTORE PUSH1 0x20 ADD PUSH1 0x2 DUP3 ADD PUSH1 0x0 SWAP1 SLOAD SWAP1 PUSH2 0x100 EXP SWAP1 DIV PUSH20 0xFFFFFFFFFFFFFFFFFFFFFFFFFFFFFFFFFFFFFFFF AND PUSH20 0xFFFFFFFFFFFFFFFFFFFFFFFFFFFFFFFFFFFFFFFF AND PUSH20 0xFFFFFFFFFFFFFFFFFFFFFFFFFFFFFFFFFFFFFFFF AND DUP2 MSTORE PUSH1 0x20 ADD PUSH1 0x3 DUP3 ADD SLOAD DUP2 MSTORE PUSH1 0x20 ADD PUSH1 0x4 DUP3 ADD SLOAD DUP2 MSTORE PUSH1 0x20 ADD PUSH1 0x5 DUP3 ADD SLOAD DUP2 MSTORE PUSH1 0x20 ADD PUSH1 0x6 DUP3 ADD SLOAD DUP2 MSTORE PUSH1 0x20 ADD PUSH1 0x7 DUP3 ADD SLOAD DUP2 MSTORE PUSH1 0x20 ADD PUSH1 0x8 DUP3 ADD SLOAD DUP2 MSTORE PUSH1 0x20 ADD PUSH1 0x9 DUP3 ADD SLOAD DUP2 MSTORE PUSH1 0x20 ADD PUSH1 0xA DUP3 ADD DUP1 SLOAD PUSH2 0xA9C SWAP1 PUSH2 0x5231 JUMP JUMPDEST DUP1 PUSH1 0x1F ADD PUSH1 0x20 DUP1 SWAP2 DIV MUL PUSH1 0x20 ADD PUSH1 0x40 MLOAD SWAP1 DUP2 ADD PUSH1 0x40 MSTORE DUP1 SWAP3 SWAP2 SWAP1 DUP2 DUP2 MSTORE PUSH1 0x20 ADD DUP3 DUP1 SLOAD PUSH2 0xAC8 SWAP1 PUSH2 0x5231 JUMP JUMPDEST DUP1 ISZERO PUSH2 0xB15 JUMPI DUP1 PUSH1 0x1F LT PUSH2 0xAEA JUMPI PUSH2 0x100 DUP1 DUP4 SLOAD DIV MUL DUP4 MSTORE SWAP2 PUSH1 0x20 ADD SWAP2 PUSH2 0xB15 JUMP JUMPDEST DUP3 ADD SWAP2 SWAP1 PUSH1 0x0 MSTORE PUSH1 0x20 PUSH1 0x0 KECCAK256 SWAP1 JUMPDEST DUP2 SLOAD DUP2 MSTORE SWAP1 PUSH1 0x1 ADD SWAP1 PUSH1 0x20 ADD DUP1 DUP4 GT PUSH2 0xAF8 JUMPI DUP3 SWAP1 SUB PUSH1 0x1F AND DUP3 ADD SWAP2 JUMPDEST POP POP POP POP POP DUP2 MSTORE POP POP SWAP1 POP SWAP2 SWAP1 POP JUMP JUMPDEST PUSH2 0xB2D PUSH2 0x440E JUMP JUMPDEST PUSH1 0x0 DUP3 DUP2 SLOAD DUP2 LT PUSH2 0xB41 JUMPI PUSH2 0xB40 PUSH2 0x51D3 JUMP JUMPDEST JUMPDEST SWAP1 PUSH1 0x0 MSTORE PUSH1 0x20 PUSH1 0x0 KECCAK256 SWAP1 PUSH1 0xB MUL ADD PUSH1 0x40 MLOAD DUP1 PUSH2 0x160 ADD PUSH1 0x40 MSTORE SWAP1 DUP2 PUSH1 0x0 DUP3 ADD SLOAD DUP2 MSTORE PUSH1 0x20 ADD PUSH1 0x1 DUP3 ADD PUSH1 0x0 SWAP1 SLOAD SWAP1 PUSH2 0x100 EXP SWAP1 DIV PUSH20 0xFFFFFFFFFFFFFFFFFFFFFFFFFFFFFFFFFFFFFFFF AND PUSH20 0xFFFFFFFFFFFFFFFFFFFFFFFFFFFFFFFFFFFFFFFF AND PUSH20 0xFFFFFFFFFFFFFFFFFFFFFFFFFFFFFFFFFFFFFFFF AND DUP2 MSTORE PUSH1 0x20 ADD PUSH1 0x2 DUP3 ADD PUSH1 0x0 SWAP1 SLOAD SWAP1 PUSH2 0x100 EXP SWAP1 DIV PUSH20 0xFFFFFFFFFFFFFFFFFFFFFFFFFFFFFFFFFFFFFFFF AND PUSH20 0xFFFFFFFFFFFFFFFFFFFFFFFFFFFFFFFFFFFFFFFF AND PUSH20 0xFFFFFFFFFFFFFFFFFFFFFFFFFFFFFFFFFFFFFFFF AND DUP2 MSTORE PUSH1 0x20 ADD PUSH1 0x3 DUP3 ADD SLOAD DUP2 MSTORE PUSH1 0x20 ADD PUSH1 0x4 DUP3 ADD SLOAD DUP2 MSTORE PUSH1 0x20 ADD PUSH1 0x5 DUP3 ADD SLOAD DUP2 MSTORE PUSH1 0x20 ADD PUSH1 0x6 DUP3 ADD SLOAD DUP2 MSTORE PUSH1 0x20 ADD PUSH1 0x7 DUP3 ADD SLOAD DUP2 MSTORE PUSH1 0x20 ADD PUSH1 0x8 DUP3 ADD SLOAD DUP2 MSTORE PUSH1 0x20 ADD PUSH1 0x9 DUP3 ADD SLOAD DUP2 MSTORE PUSH1 0x20 ADD PUSH1 0xA DUP3 ADD DUP1 SLOAD PUSH2 0xC67 SWAP1 PUSH2 0x5231 JUMP JUMPDEST DUP1 PUSH1 0x1F ADD PUSH1 0x20 DUP1 SWAP2 DIV MUL PUSH1 0x20 ADD PUSH1 0x40 MLOAD SWAP1 DUP2 ADD PUSH1 0x40 MSTORE DUP1 SWAP3 SWAP2 SWAP1 DUP2 DUP2 MSTORE PUSH1 0x20 ADD DUP3 DUP1 SLOAD PUSH2 0xC93 SWAP1 PUSH2 0x5231 JUMP JUMPDEST DUP1 ISZERO PUSH2 0xCE0 JUMPI DUP1 PUSH1 0x1F LT PUSH2 0xCB5 JUMPI PUSH2 0x100 DUP1 DUP4 SLOAD DIV MUL DUP4 MSTORE SWAP2 PUSH1 0x20 ADD SWAP2 PUSH2 0xCE0 JUMP JUMPDEST DUP3 ADD SWAP2 SWAP1 PUSH1 0x0 MSTORE PUSH1 0x20 PUSH1 0x0 KECCAK256 SWAP1 JUMPDEST DUP2 SLOAD DUP2 MSTORE SWAP1 PUSH1 0x1 ADD SWAP1 PUSH1 0x20 ADD DUP1 DUP4 GT PUSH2 0xCC3 JUMPI DUP3 SWAP1 SUB PUSH1 0x1F AND DUP3 ADD SWAP2 JUMPDEST POP POP POP POP POP DUP2 MSTORE POP POP SWAP1 POP SWAP2 SWAP1 POP JUMP JUMPDEST PUSH1 0x0 PUSH2 0xCFA PUSH2 0xEDE JUMP JUMPDEST PUSH2 0xD02 PUSH2 0x1F05 JUMP JUMPDEST PUSH2 0xD0C SWAP2 SWAP1 PUSH2 0x5291 JUMP JUMPDEST SWAP1 POP SWAP1 JUMP JUMPDEST PUSH1 0x60 PUSH2 0xD5A PUSH1 0x8 PUSH1 0x0 DUP7 PUSH20 0xFFFFFFFFFFFFFFFFFFFFFFFFFFFFFFFFFFFFFFFF AND PUSH20 0xFFFFFFFFFFFFFFFFFFFFFFFFFFFFFFFFFFFFFFFF AND DUP2 MSTORE PUSH1 0x20 ADD SWAP1 DUP2 MSTORE PUSH1 0x20 ADD PUSH1 0x0 KECCAK256 PUSH2 0x27C0 JUMP JUMPDEST DUP3 LT PUSH2 0xDB6 JUMPI PUSH1 0x1 PUSH2 0xDA9 PUSH1 0x8 PUSH1 0x0 DUP8 PUSH20 0xFFFFFFFFFFFFFFFFFFFFFFFFFFFFFFFFFFFFFFFF AND PUSH20 0xFFFFFFFFFFFFFFFFFFFFFFFFFFFFFFFFFFFFFFFF AND DUP2 MSTORE PUSH1 0x20 ADD SWAP1 DUP2 MSTORE PUSH1 0x20 ADD PUSH1 0x0 KECCAK256 PUSH2 0x27C0 JUMP JUMPDEST PUSH2 0xDB3 SWAP2 SWAP1 PUSH2 0x52C5 JUMP JUMPDEST SWAP2 POP JUMPDEST PUSH1 0x0 PUSH1 0x1 DUP5 DUP5 PUSH2 0xDC6 SWAP2 SWAP1 PUSH2 0x52C5 JUMP JUMPDEST PUSH2 0xDD0 SWAP2 SWAP1 PUSH2 0x5291 JUMP JUMPDEST SWAP1 POP PUSH1 0x0 DUP2 PUSH8 0xFFFFFFFFFFFFFFFF DUP2 GT ISZERO PUSH2 0xDEE JUMPI PUSH2 0xDED PUSH2 0x45DC JUMP JUMPDEST JUMPDEST PUSH1 0x40 MLOAD SWAP1 DUP1 DUP3 MSTORE DUP1 PUSH1 0x20 MUL PUSH1 0x20 ADD DUP3 ADD PUSH1 0x40 MSTORE DUP1 ISZERO PUSH2 0xE27 JUMPI DUP2 PUSH1 0x20 ADD JUMPDEST PUSH2 0xE14 PUSH2 0x440E JUMP JUMPDEST DUP2 MSTORE PUSH1 0x20 ADD SWAP1 PUSH1 0x1 SWAP1 SUB SWAP1 DUP2 PUSH2 0xE0C JUMPI SWAP1 POP JUMPDEST POP SWAP1 POP PUSH1 0x0 DUP1 DUP7 SWAP1 POP JUMPDEST DUP6 DUP2 GT PUSH2 0xED0 JUMPI PUSH2 0xE91 PUSH2 0xE8C DUP3 PUSH1 0x8 PUSH1 0x0 DUP13 PUSH20 0xFFFFFFFFFFFFFFFFFFFFFFFFFFFFFFFFFFFFFFFF AND PUSH20 0xFFFFFFFFFFFFFFFFFFFFFFFFFFFFFFFFFFFFFFFF AND DUP2 MSTORE PUSH1 0x20 ADD SWAP1 DUP2 MSTORE PUSH1 0x20 ADD PUSH1 0x0 KECCAK256 PUSH2 0x2880 SWAP1 SWAP2 SWAP1 PUSH4 0xFFFFFFFF AND JUMP JUMPDEST PUSH2 0x952 JUMP JUMPDEST DUP4 DUP4 DUP2 MLOAD DUP2 LT PUSH2 0xEA4 JUMPI PUSH2 0xEA3 PUSH2 0x51D3 JUMP JUMPDEST JUMPDEST PUSH1 0x20 MUL PUSH1 0x20 ADD ADD DUP2 SWAP1 MSTORE POP DUP2 DUP1 PUSH2 0xEBA SWAP1 PUSH2 0x52F9 JUMP JUMPDEST SWAP3 POP POP DUP1 DUP1 PUSH2 0xEC8 SWAP1 PUSH2 0x52F9 JUMP JUMPDEST SWAP2 POP POP PUSH2 0xE31 JUMP JUMPDEST POP DUP2 SWAP4 POP POP POP POP SWAP4 SWAP3 POP POP POP JUMP JUMPDEST PUSH1 0x0 PUSH2 0xEEA PUSH1 0x5 PUSH2 0x289A JUMP JUMPDEST SWAP1 POP SWAP1 JUMP JUMPDEST DUP2 PUSH2 0xEF9 DUP2 PUSH2 0x27D5 JUMP JUMPDEST POP PUSH1 0x0 DUP1 PUSH2 0xF06 DUP6 PUSH2 0x27D5 JUMP JUMPDEST DUP2 SLOAD DUP2 LT PUSH2 0xF17 JUMPI PUSH2 0xF16 PUSH2 0x51D3 JUMP JUMPDEST JUMPDEST SWAP1 PUSH1 0x0 MSTORE PUSH1 0x20 PUSH1 0x0 KECCAK256 SWAP1 PUSH1 0xB MUL ADD SWAP1 POP PUSH1 0x0 DUP2 PUSH1 0x2 ADD PUSH1 0x0 SWAP1 SLOAD SWAP1 PUSH2 0x100 EXP SWAP1 DIV PUSH20 0xFFFFFFFFFFFFFFFFFFFFFFFFFFFFFFFFFFFFFFFF AND SWAP1 POP CALLER PUSH20 0xFFFFFFFFFFFFFFFFFFFFFFFFFFFFFFFFFFFFFFFF AND DUP2 PUSH20 0xFFFFFFFFFFFFFFFFFFFFFFFFFFFFFFFFFFFFFFFF AND EQ PUSH2 0xFBE JUMPI PUSH1 0x40 MLOAD PUSH32 0x8C379A000000000000000000000000000000000000000000000000000000000 DUP2 MSTORE PUSH1 0x4 ADD PUSH2 0xFB5 SWAP1 PUSH2 0x53B3 JUMP JUMPDEST PUSH1 0x40 MLOAD DUP1 SWAP2 SUB SWAP1 REVERT JUMPDEST DUP4 DUP3 PUSH1 0x2 ADD PUSH1 0x0 PUSH2 0x100 EXP DUP2 SLOAD DUP2 PUSH20 0xFFFFFFFFFFFFFFFFFFFFFFFFFFFFFFFFFFFFFFFF MUL NOT AND SWAP1 DUP4 PUSH20 0xFFFFFFFFFFFFFFFFFFFFFFFFFFFFFFFFFFFFFFFF AND MUL OR SWAP1 SSTORE POP PUSH1 0x0 PUSH1 0x7 PUSH1 0x0 DUP5 PUSH1 0x1 ADD PUSH1 0x0 SWAP1 SLOAD SWAP1 PUSH2 0x100 EXP SWAP1 DIV PUSH20 0xFFFFFFFFFFFFFFFFFFFFFFFFFFFFFFFFFFFFFFFF AND PUSH20 0xFFFFFFFFFFFFFFFFFFFFFFFFFFFFFFFFFFFFFFFF AND PUSH20 0xFFFFFFFFFFFFFFFFFFFFFFFFFFFFFFFFFFFFFFFF AND DUP2 MSTORE PUSH1 0x20 ADD SWAP1 DUP2 MSTORE PUSH1 0x20 ADD PUSH1 0x0 KECCAK256 SWAP1 POP PUSH1 0x0 DUP1 PUSH20 0xFFFFFFFFFFFFFFFFFFFFFFFFFFFFFFFFFFFFFFFF AND DUP3 PUSH1 0x1 ADD PUSH1 0x0 SWAP1 SLOAD SWAP1 PUSH2 0x100 EXP SWAP1 DIV PUSH20 0xFFFFFFFFFFFFFFFFFFFFFFFFFFFFFFFFFFFFFFFF AND PUSH20 0xFFFFFFFFFFFFFFFFFFFFFFFFFFFFFFFFFFFFFFFF AND EQ ISZERO SWAP1 POP DUP1 ISZERO PUSH2 0x116F JUMPI PUSH2 0x1117 DUP8 PUSH1 0x1 PUSH1 0x0 DUP7 PUSH20 0xFFFFFFFFFFFFFFFFFFFFFFFFFFFFFFFFFFFFFFFF AND PUSH20 0xFFFFFFFFFFFFFFFFFFFFFFFFFFFFFFFFFFFFFFFF AND DUP2 MSTORE PUSH1 0x20 ADD SWAP1 DUP2 MSTORE PUSH1 0x20 ADD PUSH1 0x0 KECCAK256 PUSH2 0x28AF SWAP1 SWAP2 SWAP1 PUSH4 0xFFFFFFFF AND JUMP JUMPDEST POP PUSH2 0x1169 DUP8 PUSH1 0x1 PUSH1 0x0 DUP10 PUSH20 0xFFFFFFFFFFFFFFFFFFFFFFFFFFFFFFFFFFFFFFFF AND PUSH20 0xFFFFFFFFFFFFFFFFFFFFFFFFFFFFFFFFFFFFFFFF AND DUP2 MSTORE PUSH1 0x20 ADD SWAP1 DUP2 MSTORE PUSH1 0x20 ADD PUSH1 0x0 KECCAK256 PUSH2 0x28C9 SWAP1 SWAP2 SWAP1 PUSH4 0xFFFFFFFF AND JUMP JUMPDEST POP PUSH2 0x1214 JUMP JUMPDEST PUSH2 0x11C0 DUP8 PUSH1 0x2 PUSH1 0x0 DUP7 PUSH20 0xFFFFFFFFFFFFFFFFFFFFFFFFFFFFFFFFFFFFFFFF AND PUSH20 0xFFFFFFFFFFFFFFFFFFFFFFFFFFFFFFFFFFFFFFFF AND DUP2 MSTORE PUSH1 0x20 ADD SWAP1 DUP2 MSTORE PUSH1 0x20 ADD PUSH1 0x0 KECCAK256 PUSH2 0x28AF SWAP1 SWAP2 SWAP1 PUSH4 0xFFFFFFFF AND JUMP JUMPDEST POP PUSH2 0x1212 DUP8 PUSH1 0x2 PUSH1 0x0 DUP10 PUSH20 0xFFFFFFFFFFFFFFFFFFFFFFFFFFFFFFFFFFFFFFFF AND PUSH20 0xFFFFFFFFFFFFFFFFFFFFFFFFFFFFFFFFFFFFFFFF AND DUP2 MSTORE PUSH1 0x20 ADD SWAP1 DUP2 MSTORE PUSH1 0x20 ADD PUSH1 0x0 KECCAK256 PUSH2 0x28C9 SWAP1 SWAP2 SWAP1 PUSH4 0xFFFFFFFF AND JUMP JUMPDEST POP JUMPDEST PUSH32 0x9075AD040756C0D8743A1FED927066A92C4755071615BF61E04B17583D961CAF DUP8 DUP5 DUP9 PUSH1 0x40 MLOAD PUSH2 0x1247 SWAP4 SWAP3 SWAP2 SWAP1 PUSH2 0x53D3 JUMP JUMPDEST PUSH1 0x40 MLOAD DUP1 SWAP2 SUB SWAP1 LOG1 POP POP POP POP POP POP POP JUMP JUMPDEST PUSH2 0x1260 PUSH2 0x440E JUMP JUMPDEST DUP2 PUSH2 0x126A DUP5 PUSH2 0x24E5 JUMP JUMPDEST GT PUSH2 0x12AA JUMPI PUSH1 0x40 MLOAD PUSH32 0x8C379A000000000000000000000000000000000000000000000000000000000 DUP2 MSTORE PUSH1 0x4 ADD PUSH2 0x12A1 SWAP1 PUSH2 0x5456 JUMP JUMPDEST PUSH1 0x40 MLOAD DUP1 SWAP2 SUB SWAP1 REVERT JUMPDEST PUSH2 0x1303 PUSH2 0x12FE DUP4 PUSH1 0x2 PUSH1 0x0 DUP8 PUSH20 0xFFFFFFFFFFFFFFFFFFFFFFFFFFFFFFFFFFFFFFFF AND PUSH20 0xFFFFFFFFFFFFFFFFFFFFFFFFFFFFFFFFFFFFFFFF AND DUP2 MSTORE PUSH1 0x20 ADD SWAP1 DUP2 MSTORE PUSH1 0x20 ADD PUSH1 0x0 KECCAK256 PUSH2 0x2880 SWAP1 SWAP2 SWAP1 PUSH4 0xFFFFFFFF AND JUMP JUMPDEST PUSH2 0x952 JUMP JUMPDEST SWAP1 POP SWAP3 SWAP2 POP POP JUMP JUMPDEST DUP1 PUSH2 0x1315 DUP2 PUSH2 0x27D5 JUMP JUMPDEST POP PUSH1 0x0 DUP1 PUSH2 0x1322 DUP5 PUSH2 0x27D5 JUMP JUMPDEST DUP2 SLOAD DUP2 LT PUSH2 0x1333 JUMPI PUSH2 0x1332 PUSH2 0x51D3 JUMP JUMPDEST JUMPDEST SWAP1 PUSH1 0x0 MSTORE PUSH1 0x20 PUSH1 0x0 KECCAK256 SWAP1 PUSH1 0xB MUL ADD SWAP1 POP CALLER PUSH20 0xFFFFFFFFFFFFFFFFFFFFFFFFFFFFFFFFFFFFFFFF AND DUP2 PUSH1 0x2 ADD PUSH1 0x0 SWAP1 SLOAD SWAP1 PUSH2 0x100 EXP SWAP1 DIV PUSH20 0xFFFFFFFFFFFFFFFFFFFFFFFFFFFFFFFFFFFFFFFF AND PUSH20 0xFFFFFFFFFFFFFFFFFFFFFFFFFFFFFFFFFFFFFFFF AND EQ PUSH2 0x13D5 JUMPI PUSH1 0x40 MLOAD PUSH32 0x8C379A000000000000000000000000000000000000000000000000000000000 DUP2 MSTORE PUSH1 0x4 ADD PUSH2 0x13CC SWAP1 PUSH2 0x53B3 JUMP JUMPDEST PUSH1 0x40 MLOAD DUP1 SWAP2 SUB SWAP1 REVERT JUMPDEST PUSH1 0x0 DUP2 PUSH1 0x6 ADD SLOAD GT ISZERO PUSH2 0x13F0 JUMPI PUSH2 0x13EB DUP2 PUSH2 0x28E3 JUMP JUMPDEST PUSH2 0x13FA JUMP JUMPDEST PUSH2 0x13F9 DUP2 PUSH2 0x2F10 JUMP JUMPDEST JUMPDEST POP POP POP JUMP JUMPDEST PUSH1 0x0 DUP1 PUSH2 0x140B DUP4 PUSH2 0x952 JUMP JUMPDEST SWAP1 POP PUSH2 0x1416 DUP2 PUSH2 0x331A JUMP JUMPDEST SWAP2 POP POP SWAP2 SWAP1 POP JUMP JUMPDEST PUSH1 0x60 PUSH2 0x142A PUSH1 0x5 PUSH2 0x289A JUMP JUMPDEST DUP3 LT PUSH2 0x1449 JUMPI PUSH1 0x1 PUSH2 0x143C PUSH1 0x5 PUSH2 0x289A JUMP JUMPDEST PUSH2 0x1446 SWAP2 SWAP1 PUSH2 0x52C5 JUMP JUMPDEST SWAP2 POP JUMPDEST PUSH1 0x0 PUSH1 0x1 DUP5 DUP5 PUSH2 0x1459 SWAP2 SWAP1 PUSH2 0x52C5 JUMP JUMPDEST PUSH2 0x1463 SWAP2 SWAP1 PUSH2 0x5291 JUMP JUMPDEST SWAP1 POP PUSH1 0x0 DUP2 PUSH8 0xFFFFFFFFFFFFFFFF DUP2 GT ISZERO PUSH2 0x1481 JUMPI PUSH2 0x1480 PUSH2 0x45DC JUMP JUMPDEST JUMPDEST PUSH1 0x40 MLOAD SWAP1 DUP1 DUP3 MSTORE DUP1 PUSH1 0x20 MUL PUSH1 0x20 ADD DUP3 ADD PUSH1 0x40 MSTORE DUP1 ISZERO PUSH2 0x14BA JUMPI DUP2 PUSH1 0x20 ADD JUMPDEST PUSH2 0x14A7 PUSH2 0x4494 JUMP JUMPDEST DUP2 MSTORE PUSH1 0x20 ADD SWAP1 PUSH1 0x1 SWAP1 SUB SWAP1 DUP2 PUSH2 0x149F JUMPI SWAP1 POP JUMPDEST POP SWAP1 POP PUSH1 0x0 DUP1 DUP7 SWAP1 POP JUMPDEST DUP6 DUP2 GT PUSH2 0x161D JUMPI PUSH1 0x7 PUSH1 0x0 PUSH2 0x14E3 DUP4 PUSH1 0x5 PUSH2 0x3436 SWAP1 SWAP2 SWAP1 PUSH4 0xFFFFFFFF AND JUMP JUMPDEST PUSH20 0xFFFFFFFFFFFFFFFFFFFFFFFFFFFFFFFFFFFFFFFF AND PUSH20 0xFFFFFFFFFFFFFFFFFFFFFFFFFFFFFFFFFFFFFFFF AND DUP2 MSTORE PUSH1 0x20 ADD SWAP1 DUP2 MSTORE PUSH1 0x20 ADD PUSH1 0x0 KECCAK256 PUSH1 0x40 MLOAD DUP1 PUSH1 0x60 ADD PUSH1 0x40 MSTORE SWAP1 DUP2 PUSH1 0x0 DUP3 ADD PUSH1 0x0 SWAP1 SLOAD SWAP1 PUSH2 0x100 EXP SWAP1 DIV PUSH20 0xFFFFFFFFFFFFFFFFFFFFFFFFFFFFFFFFFFFFFFFF AND PUSH20 0xFFFFFFFFFFFFFFFFFFFFFFFFFFFFFFFFFFFFFFFF AND PUSH20 0xFFFFFFFFFFFFFFFFFFFFFFFFFFFFFFFFFFFFFFFF AND DUP2 MSTORE PUSH1 0x20 ADD PUSH1 0x1 DUP3 ADD PUSH1 0x0 SWAP1 SLOAD SWAP1 PUSH2 0x100 EXP SWAP1 DIV PUSH20 0xFFFFFFFFFFFFFFFFFFFFFFFFFFFFFFFFFFFFFFFF AND PUSH20 0xFFFFFFFFFFFFFFFFFFFFFFFFFFFFFFFFFFFFFFFF AND PUSH20 0xFFFFFFFFFFFFFFFFFFFFFFFFFFFFFFFFFFFFFFFF AND DUP2 MSTORE PUSH1 0x20 ADD PUSH1 0x2 DUP3 ADD SLOAD DUP2 MSTORE POP POP DUP4 DUP4 DUP2 MLOAD DUP2 LT PUSH2 0x15F1 JUMPI PUSH2 0x15F0 PUSH2 0x51D3 JUMP JUMPDEST JUMPDEST PUSH1 0x20 MUL PUSH1 0x20 ADD ADD DUP2 SWAP1 MSTORE POP DUP2 DUP1 PUSH2 0x1607 SWAP1 PUSH2 0x52F9 JUMP JUMPDEST SWAP3 POP POP DUP1 DUP1 PUSH2 0x1615 SWAP1 PUSH2 0x52F9 JUMP JUMPDEST SWAP2 POP POP PUSH2 0x14C4 JUMP JUMPDEST POP DUP2 SWAP4 POP POP POP POP SWAP3 SWAP2 POP POP JUMP JUMPDEST PUSH2 0x1632 PUSH2 0x4494 JUMP JUMPDEST PUSH1 0x7 PUSH1 0x0 PUSH2 0x164A DUP5 PUSH1 0x5 PUSH2 0x3436 SWAP1 SWAP2 SWAP1 PUSH4 0xFFFFFFFF AND JUMP JUMPDEST PUSH20 0xFFFFFFFFFFFFFFFFFFFFFFFFFFFFFFFFFFFFFFFF AND PUSH20 0xFFFFFFFFFFFFFFFFFFFFFFFFFFFFFFFFFFFFFFFF AND DUP2 MSTORE PUSH1 0x20 ADD SWAP1 DUP2 MSTORE PUSH1 0x20 ADD PUSH1 0x0 KECCAK256 PUSH1 0x40 MLOAD DUP1 PUSH1 0x60 ADD PUSH1 0x40 MSTORE SWAP1 DUP2 PUSH1 0x0 DUP3 ADD PUSH1 0x0 SWAP1 SLOAD SWAP1 PUSH2 0x100 EXP SWAP1 DIV PUSH20 0xFFFFFFFFFFFFFFFFFFFFFFFFFFFFFFFFFFFFFFFF AND PUSH20 0xFFFFFFFFFFFFFFFFFFFFFFFFFFFFFFFFFFFFFFFF AND PUSH20 0xFFFFFFFFFFFFFFFFFFFFFFFFFFFFFFFFFFFFFFFF AND DUP2 MSTORE PUSH1 0x20 ADD PUSH1 0x1 DUP3 ADD PUSH1 0x0 SWAP1 SLOAD SWAP1 PUSH2 0x100 EXP SWAP1 DIV PUSH20 0xFFFFFFFFFFFFFFFFFFFFFFFFFFFFFFFFFFFFFFFF AND PUSH20 0xFFFFFFFFFFFFFFFFFFFFFFFFFFFFFFFFFFFFFFFF AND PUSH20 0xFFFFFFFFFFFFFFFFFFFFFFFFFFFFFFFFFFFFFFFF AND DUP2 MSTORE PUSH1 0x20 ADD PUSH1 0x2 DUP3 ADD SLOAD DUP2 MSTORE POP POP SWAP1 POP SWAP2 SWAP1 POP JUMP JUMPDEST PUSH2 0x1754 PUSH2 0x4494 JUMP JUMPDEST PUSH1 0x7 PUSH1 0x0 PUSH2 0x176C DUP5 PUSH1 0x3 PUSH2 0x3436 SWAP1 SWAP2 SWAP1 PUSH4 0xFFFFFFFF AND JUMP JUMPDEST PUSH20 0xFFFFFFFFFFFFFFFFFFFFFFFFFFFFFFFFFFFFFFFF AND PUSH20 0xFFFFFFFFFFFFFFFFFFFFFFFFFFFFFFFFFFFFFFFF AND DUP2 MSTORE PUSH1 0x20 ADD SWAP1 DUP2 MSTORE PUSH1 0x20 ADD PUSH1 0x0 KECCAK256 PUSH1 0x40 MLOAD DUP1 PUSH1 0x60 ADD PUSH1 0x40 MSTORE SWAP1 DUP2 PUSH1 0x0 DUP3 ADD PUSH1 0x0 SWAP1 SLOAD SWAP1 PUSH2 0x100 EXP SWAP1 DIV PUSH20 0xFFFFFFFFFFFFFFFFFFFFFFFFFFFFFFFFFFFFFFFF AND PUSH20 0xFFFFFFFFFFFFFFFFFFFFFFFFFFFFFFFFFFFFFFFF AND PUSH20 0xFFFFFFFFFFFFFFFFFFFFFFFFFFFFFFFFFFFFFFFF AND DUP2 MSTORE PUSH1 0x20 ADD PUSH1 0x1 DUP3 ADD PUSH1 0x0 SWAP1 SLOAD SWAP1 PUSH2 0x100 EXP SWAP1 DIV PUSH20 0xFFFFFFFFFFFFFFFFFFFFFFFFFFFFFFFFFFFFFFFF AND PUSH20 0xFFFFFFFFFFFFFFFFFFFFFFFFFFFFFFFFFFFFFFFF AND PUSH20 0xFFFFFFFFFFFFFFFFFFFFFFFFFFFFFFFFFFFFFFFF AND DUP2 MSTORE PUSH1 0x20 ADD PUSH1 0x2 DUP3 ADD SLOAD DUP2 MSTORE POP POP SWAP1 POP SWAP2 SWAP1 POP JUMP JUMPDEST PUSH2 0x1879 DUP2 PUSH1 0x0 PUSH2 0xEEF JUMP JUMPDEST POP JUMP JUMPDEST PUSH1 0x60 PUSH2 0x1888 PUSH1 0x3 PUSH2 0x289A JUMP JUMPDEST DUP3 LT PUSH2 0x18A7 JUMPI PUSH1 0x1 PUSH2 0x189A PUSH1 0x3 PUSH2 0x289A JUMP JUMPDEST PUSH2 0x18A4 SWAP2 SWAP1 PUSH2 0x52C5 JUMP JUMPDEST SWAP2 POP JUMPDEST PUSH1 0x0 PUSH1 0x1 DUP5 DUP5 PUSH2 0x18B7 SWAP2 SWAP1 PUSH2 0x52C5 JUMP JUMPDEST PUSH2 0x18C1 SWAP2 SWAP1 PUSH2 0x5291 JUMP JUMPDEST SWAP1 POP PUSH1 0x0 DUP2 PUSH8 0xFFFFFFFFFFFFFFFF DUP2 GT ISZERO PUSH2 0x18DF JUMPI PUSH2 0x18DE PUSH2 0x45DC JUMP JUMPDEST JUMPDEST PUSH1 0x40 MLOAD SWAP1 DUP1 DUP3 MSTORE DUP1 PUSH1 0x20 MUL PUSH1 0x20 ADD DUP3 ADD PUSH1 0x40 MSTORE DUP1 ISZERO PUSH2 0x1918 JUMPI DUP2 PUSH1 0x20 ADD JUMPDEST PUSH2 0x1905 PUSH2 0x4494 JUMP JUMPDEST DUP2 MSTORE PUSH1 0x20 ADD SWAP1 PUSH1 0x1 SWAP1 SUB SWAP1 DUP2 PUSH2 0x18FD JUMPI SWAP1 POP JUMPDEST POP SWAP1 POP PUSH1 0x0 DUP1 DUP7 SWAP1 POP JUMPDEST DUP6 DUP2 GT PUSH2 0x1A7B JUMPI PUSH1 0x7 PUSH1 0x0 PUSH2 0x1941 DUP4 PUSH1 0x3 PUSH2 0x3436 SWAP1 SWAP2 SWAP1 PUSH4 0xFFFFFFFF AND JUMP JUMPDEST PUSH20 0xFFFFFFFFFFFFFFFFFFFFFFFFFFFFFFFFFFFFFFFF AND PUSH20 0xFFFFFFFFFFFFFFFFFFFFFFFFFFFFFFFFFFFFFFFF AND DUP2 MSTORE PUSH1 0x20 ADD SWAP1 DUP2 MSTORE PUSH1 0x20 ADD PUSH1 0x0 KECCAK256 PUSH1 0x40 MLOAD DUP1 PUSH1 0x60 ADD PUSH1 0x40 MSTORE SWAP1 DUP2 PUSH1 0x0 DUP3 ADD PUSH1 0x0 SWAP1 SLOAD SWAP1 PUSH2 0x100 EXP SWAP1 DIV PUSH20 0xFFFFFFFFFFFFFFFFFFFFFFFFFFFFFFFFFFFFFFFF AND PUSH20 0xFFFFFFFFFFFFFFFFFFFFFFFFFFFFFFFFFFFFFFFF AND PUSH20 0xFFFFFFFFFFFFFFFFFFFFFFFFFFFFFFFFFFFFFFFF AND DUP2 MSTORE PUSH1 0x20 ADD PUSH1 0x1 DUP3 ADD PUSH1 0x0 SWAP1 SLOAD SWAP1 PUSH2 0x100 EXP SWAP1 DIV PUSH20 0xFFFFFFFFFFFFFFFFFFFFFFFFFFFFFFFFFFFFFFFF AND PUSH20 0xFFFFFFFFFFFFFFFFFFFFFFFFFFFFFFFFFFFFFFFF AND PUSH20 0xFFFFFFFFFFFFFFFFFFFFFFFFFFFFFFFFFFFFFFFF AND DUP2 MSTORE PUSH1 0x20 ADD PUSH1 0x2 DUP3 ADD SLOAD DUP2 MSTORE POP POP DUP4 DUP4 DUP2 MLOAD DUP2 LT PUSH2 0x1A4F JUMPI PUSH2 0x1A4E PUSH2 0x51D3 JUMP JUMPDEST JUMPDEST PUSH1 0x20 MUL PUSH1 0x20 ADD ADD DUP2 SWAP1 MSTORE POP DUP2 DUP1 PUSH2 0x1A65 SWAP1 PUSH2 0x52F9 JUMP JUMPDEST SWAP3 POP POP DUP1 DUP1 PUSH2 0x1A73 SWAP1 PUSH2 0x52F9 JUMP JUMPDEST SWAP2 POP POP PUSH2 0x1922 JUMP JUMPDEST POP DUP2 SWAP4 POP POP POP POP SWAP3 SWAP2 POP POP JUMP JUMPDEST PUSH1 0x60 PUSH1 0x0 PUSH2 0x1AD3 PUSH1 0x1 PUSH1 0x0 DUP6 PUSH20 0xFFFFFFFFFFFFFFFFFFFFFFFFFFFFFFFFFFFFFFFF AND PUSH20 0xFFFFFFFFFFFFFFFFFFFFFFFFFFFFFFFFFFFFFFFF AND DUP2 MSTORE PUSH1 0x20 ADD SWAP1 DUP2 MSTORE PUSH1 0x20 ADD PUSH1 0x0 KECCAK256 PUSH2 0x27C0 JUMP JUMPDEST SWAP1 POP PUSH1 0x0 DUP2 PUSH8 0xFFFFFFFFFFFFFFFF DUP2 GT ISZERO PUSH2 0x1AF1 JUMPI PUSH2 0x1AF0 PUSH2 0x45DC JUMP JUMPDEST JUMPDEST PUSH1 0x40 MLOAD SWAP1 DUP1 DUP3 MSTORE DUP1 PUSH1 0x20 MUL PUSH1 0x20 ADD DUP3 ADD PUSH1 0x40 MSTORE DUP1 ISZERO PUSH2 0x1B2A JUMPI DUP2 PUSH1 0x20 ADD JUMPDEST PUSH2 0x1B17 PUSH2 0x440E JUMP JUMPDEST DUP2 MSTORE PUSH1 0x20 ADD SWAP1 PUSH1 0x1 SWAP1 SUB SWAP1 DUP2 PUSH2 0x1B0F JUMPI SWAP1 POP JUMPDEST POP SWAP1 POP PUSH1 0x0 JUMPDEST DUP3 DUP2 LT ISZERO PUSH2 0x1BC2 JUMPI PUSH2 0x1B91 PUSH2 0x1B8C DUP3 PUSH1 0x1 PUSH1 0x0 DUP10 PUSH20 0xFFFFFFFFFFFFFFFFFFFFFFFFFFFFFFFFFFFFFFFF AND PUSH20 0xFFFFFFFFFFFFFFFFFFFFFFFFFFFFFFFFFFFFFFFF AND DUP2 MSTORE PUSH1 0x20 ADD SWAP1 DUP2 MSTORE PUSH1 0x20 ADD PUSH1 0x0 KECCAK256 PUSH2 0x2880 SWAP1 SWAP2 SWAP1 PUSH4 0xFFFFFFFF AND JUMP JUMPDEST PUSH2 0x952 JUMP JUMPDEST DUP3 DUP3 DUP2 MLOAD DUP2 LT PUSH2 0x1BA4 JUMPI PUSH2 0x1BA3 PUSH2 0x51D3 JUMP JUMPDEST JUMPDEST PUSH1 0x20 MUL PUSH1 0x20 ADD ADD DUP2 SWAP1 MSTORE POP DUP1 DUP1 PUSH2 0x1BBA SWAP1 PUSH2 0x52F9 JUMP JUMPDEST SWAP2 POP POP PUSH2 0x1B30 JUMP JUMPDEST POP DUP1 SWAP3 POP POP POP SWAP2 SWAP1 POP JUMP JUMPDEST DUP3 PUSH2 0x1BD7 DUP2 PUSH2 0x27D5 JUMP JUMPDEST POP PUSH1 0x0 DUP1 PUSH2 0x1BE4 DUP7 PUSH2 0x27D5 JUMP JUMPDEST DUP2 SLOAD DUP2 LT PUSH2 0x1BF5 JUMPI PUSH2 0x1BF4 PUSH2 0x51D3 JUMP JUMPDEST JUMPDEST SWAP1 PUSH1 0x0 MSTORE PUSH1 0x20 PUSH1 0x0 KECCAK256 SWAP1 PUSH1 0xB MUL ADD SWAP1 POP CALLER PUSH20 0xFFFFFFFFFFFFFFFFFFFFFFFFFFFFFFFFFFFFFFFF AND DUP2 PUSH1 0x2 ADD PUSH1 0x0 SWAP1 SLOAD SWAP1 PUSH2 0x100 EXP SWAP1 DIV PUSH20 0xFFFFFFFFFFFFFFFFFFFFFFFFFFFFFFFFFFFFFFFF AND PUSH20 0xFFFFFFFFFFFFFFFFFFFFFFFFFFFFFFFFFFFFFFFF AND EQ PUSH2 0x1C97 JUMPI PUSH1 0x40 MLOAD PUSH32 0x8C379A000000000000000000000000000000000000000000000000000000000 DUP2 MSTORE PUSH1 0x4 ADD PUSH2 0x1C8E SWAP1 PUSH2 0x53B3 JUMP JUMPDEST PUSH1 0x40 MLOAD DUP1 SWAP2 SUB SWAP1 REVERT JUMPDEST PUSH1 0x0 DUP2 PUSH1 0x9 ADD SLOAD EQ PUSH2 0x1CDE JUMPI PUSH1 0x40 MLOAD PUSH32 0x8C379A000000000000000000000000000000000000000000000000000000000 DUP2 MSTORE PUSH1 0x4 ADD PUSH2 0x1CD5 SWAP1 PUSH2 0x54C2 JUMP JUMPDEST PUSH1 0x40 MLOAD DUP1 SWAP2 SUB SWAP1 REVERT JUMPDEST PUSH1 0x0 DUP4 GT ISZERO PUSH2 0x1D43 JUMPI DUP1 PUSH1 0x5 ADD SLOAD DUP4 LT ISZERO DUP1 ISZERO PUSH2 0x1CFA JUMPI POP TIMESTAMP DUP4 GT JUMPDEST PUSH2 0x1D39 JUMPI PUSH1 0x40 MLOAD PUSH32 0x8C379A000000000000000000000000000000000000000000000000000000000 DUP2 MSTORE PUSH1 0x4 ADD PUSH2 0x1D30 SWAP1 PUSH2 0x557A JUMP JUMPDEST PUSH1 0x40 MLOAD DUP1 SWAP2 SUB SWAP1 REVERT JUMPDEST DUP3 DUP2 PUSH1 0x5 ADD DUP2 SWAP1 SSTORE POP JUMPDEST PUSH1 0x0 DUP5 GT ISZERO PUSH2 0x1E6C JUMPI DUP1 PUSH1 0x3 ADD SLOAD DUP5 LT ISZERO PUSH2 0x1D93 JUMPI PUSH1 0x40 MLOAD PUSH32 0x8C379A000000000000000000000000000000000000000000000000000000000 DUP2 MSTORE PUSH1 0x4 ADD PUSH2 0x1D8A SWAP1 PUSH2 0x560C JUMP JUMPDEST PUSH1 0x40 MLOAD DUP1 SWAP2 SUB SWAP1 REVERT JUMPDEST PUSH1 0x0 DUP2 PUSH1 0x3 ADD SLOAD DUP6 PUSH2 0x1DA5 SWAP2 SWAP1 PUSH2 0x52C5 JUMP JUMPDEST SWAP1 POP PUSH1 0x0 DUP2 GT ISZERO PUSH2 0x1E6A JUMPI DUP5 DUP3 PUSH1 0x3 ADD DUP2 SWAP1 SSTORE POP PUSH1 0x0 PUSH1 0x7 PUSH1 0x0 DUP5 PUSH1 0x1 ADD PUSH1 0x0 SWAP1 SLOAD SWAP1 PUSH2 0x100 EXP SWAP1 DIV PUSH20 0xFFFFFFFFFFFFFFFFFFFFFFFFFFFFFFFFFFFFFFFF AND PUSH20 0xFFFFFFFFFFFFFFFFFFFFFFFFFFFFFFFFFFFFFFFF AND PUSH20 0xFFFFFFFFFFFFFFFFFFFFFFFFFFFFFFFFFFFFFFFF AND DUP2 MSTORE PUSH1 0x20 ADD SWAP1 DUP2 MSTORE PUSH1 0x20 ADD PUSH1 0x0 KECCAK256 SWAP1 POP DUP2 DUP2 PUSH1 0x2 ADD SLOAD PUSH2 0x1E30 SWAP2 SWAP1 PUSH2 0x5291 JUMP JUMPDEST DUP2 PUSH1 0x2 ADD DUP2 SWAP1 SSTORE POP PUSH2 0x1E68 DUP4 PUSH1 0x1 ADD PUSH1 0x0 SWAP1 SLOAD SWAP1 PUSH2 0x100 EXP SWAP1 DIV PUSH20 0xFFFFFFFFFFFFFFFFFFFFFFFFFFFFFFFFFFFFFFFF AND CALLER ADDRESS DUP6 PUSH2 0x2642 JUMP JUMPDEST POP JUMPDEST POP JUMPDEST DUP1 PUSH1 0x0 ADD SLOAD PUSH32 0xA8B26360DF8D5E154FFA5A8A7E894E85F781ACFBBEF0B744FB9551D8FD0FD36C DUP3 PUSH1 0x1 ADD PUSH1 0x0 SWAP1 SLOAD SWAP1 PUSH2 0x100 EXP SWAP1 DIV PUSH20 0xFFFFFFFFFFFFFFFFFFFFFFFFFFFFFFFFFFFFFFFF AND DUP4 PUSH1 0x2 ADD PUSH1 0x0 SWAP1 SLOAD SWAP1 PUSH2 0x100 EXP SWAP1 DIV PUSH20 0xFFFFFFFFFFFFFFFFFFFFFFFFFFFFFFFFFFFFFFFF AND DUP5 PUSH1 0x3 ADD SLOAD DUP6 PUSH1 0x5 ADD SLOAD PUSH1 0x40 MLOAD PUSH2 0x1EF6 SWAP5 SWAP4 SWAP3 SWAP2 SWAP1 PUSH2 0x518E JUMP JUMPDEST PUSH1 0x40 MLOAD DUP1 SWAP2 SUB SWAP1 LOG2 POP POP POP POP POP JUMP JUMPDEST PUSH1 0x0 PUSH2 0x1F11 PUSH1 0x3 PUSH2 0x289A JUMP JUMPDEST SWAP1 POP SWAP1 JUMP JUMPDEST PUSH1 0x0 DUP1 PUSH20 0xFFFFFFFFFFFFFFFFFFFFFFFFFFFFFFFFFFFFFFFF AND DUP10 PUSH20 0xFFFFFFFFFFFFFFFFFFFFFFFFFFFFFFFFFFFFFFFF AND SUB PUSH2 0x1F86 JUMPI PUSH1 0x40 MLOAD PUSH32 0x8C379A000000000000000000000000000000000000000000000000000000000 DUP2 MSTORE PUSH1 0x4 ADD PUSH2 0x1F7D SWAP1 PUSH2 0x5070 JUMP JUMPDEST PUSH1 0x40 MLOAD DUP1 SWAP2 SUB SWAP1 REVERT JUMPDEST PUSH1 0x0 DUP8 GT PUSH2 0x1FC9 JUMPI PUSH1 0x40 MLOAD PUSH32 0x8C379A000000000000000000000000000000000000000000000000000000000 DUP2 MSTORE PUSH1 0x4 ADD PUSH2 0x1FC0 SWAP1 PUSH2 0x50DC JUMP JUMPDEST PUSH1 0x40 MLOAD DUP1 SWAP2 SUB SWAP1 REVERT JUMPDEST TIMESTAMP DUP7 GT PUSH2 0x200B JUMPI PUSH1 0x40 MLOAD PUSH32 0x8C379A000000000000000000000000000000000000000000000000000000000 DUP2 MSTORE PUSH1 0x4 ADD PUSH2 0x2002 SWAP1 PUSH2 0x5678 JUMP JUMPDEST PUSH1 0x40 MLOAD DUP1 SWAP2 SUB SWAP1 REVERT JUMPDEST PUSH1 0x0 DUP5 GT PUSH2 0x204E JUMPI PUSH1 0x40 MLOAD PUSH32 0x8C379A000000000000000000000000000000000000000000000000000000000 DUP2 MSTORE PUSH1 0x4 ADD PUSH2 0x2045 SWAP1 PUSH2 0x56E4 JUMP JUMPDEST PUSH1 0x40 MLOAD DUP1 SWAP2 SUB SWAP1 REVERT JUMPDEST PUSH1 0x0 DUP6 GT DUP1 ISZERO PUSH2 0x205F JUMPI POP PUSH2 0x2710 DUP6 LT JUMPDEST PUSH2 0x209E JUMPI PUSH1 0x40 MLOAD PUSH32 0x8C379A000000000000000000000000000000000000000000000000000000000 DUP2 MSTORE PUSH1 0x4 ADD PUSH2 0x2095 SWAP1 PUSH2 0x5750 JUMP JUMPDEST PUSH1 0x40 MLOAD DUP1 SWAP2 SUB SWAP1 REVERT JUMPDEST PUSH1 0x0 DUP4 GT DUP1 ISZERO PUSH2 0x20AF JUMPI POP PUSH2 0x2710 DUP4 LT JUMPDEST PUSH2 0x20EE JUMPI PUSH1 0x40 MLOAD PUSH32 0x8C379A000000000000000000000000000000000000000000000000000000000 DUP2 MSTORE PUSH1 0x4 ADD PUSH2 0x20E5 SWAP1 PUSH2 0x57BC JUMP JUMPDEST PUSH1 0x40 MLOAD DUP1 SWAP2 SUB SWAP1 REVERT JUMPDEST PUSH2 0x2710 DUP4 DUP7 PUSH2 0x20FD SWAP2 SWAP1 PUSH2 0x5291 JUMP JUMPDEST GT ISZERO PUSH2 0x213E JUMPI PUSH1 0x40 MLOAD PUSH32 0x8C379A000000000000000000000000000000000000000000000000000000000 DUP2 MSTORE PUSH1 0x4 ADD PUSH2 0x2135 SWAP1 PUSH2 0x584E JUMP JUMPDEST PUSH1 0x40 MLOAD DUP1 SWAP2 SUB SWAP1 REVERT JUMPDEST PUSH2 0x214F DUP11 DUP11 DUP11 DUP11 DUP11 DUP11 DUP11 DUP11 DUP11 PUSH2 0x25F4 JUMP JUMPDEST SWAP1 POP PUSH2 0x215D DUP10 CALLER ADDRESS DUP11 PUSH2 0x2642 JUMP JUMPDEST DUP1 PUSH32 0x694AF1CC8727CDD0AFBDD53D9B87B69248BD490224E9DD090E788546506E076F DUP11 DUP13 DUP11 DUP11 PUSH1 0x40 MLOAD PUSH2 0x2193 SWAP5 SWAP4 SWAP3 SWAP2 SWAP1 PUSH2 0x518E JUMP JUMPDEST PUSH1 0x40 MLOAD DUP1 SWAP2 SUB SWAP1 LOG2 SWAP10 SWAP9 POP POP POP POP POP POP POP POP POP JUMP JUMPDEST PUSH1 0x0 PUSH2 0x21B3 DUP3 PUSH2 0x902 JUMP JUMPDEST PUSH2 0x21BC DUP4 PUSH2 0x24E5 JUMP JUMPDEST PUSH2 0x21C6 SWAP2 SWAP1 PUSH2 0x5291 JUMP JUMPDEST SWAP1 POP SWAP2 SWAP1 POP JUMP JUMPDEST DUP2 PUSH2 0x21D7 DUP2 PUSH2 0x27D5 JUMP JUMPDEST POP PUSH1 0x0 DUP1 PUSH2 0x21E4 DUP6 PUSH2 0x27D5 JUMP JUMPDEST DUP2 SLOAD DUP2 LT PUSH2 0x21F5 JUMPI PUSH2 0x21F4 PUSH2 0x51D3 JUMP JUMPDEST JUMPDEST SWAP1 PUSH1 0x0 MSTORE PUSH1 0x20 PUSH1 0x0 KECCAK256 SWAP1 PUSH1 0xB MUL ADD SWAP1 POP CALLER PUSH20 0xFFFFFFFFFFFFFFFFFFFFFFFFFFFFFFFFFFFFFFFF AND DUP2 PUSH1 0x2 ADD PUSH1 0x0 SWAP1 SLOAD SWAP1 PUSH2 0x100 EXP SWAP1 DIV PUSH20 0xFFFFFFFFFFFFFFFFFFFFFFFFFFFFFFFFFFFFFFFF AND PUSH20 0xFFFFFFFFFFFFFFFFFFFFFFFFFFFFFFFFFFFFFFFF AND EQ PUSH2 0x2297 JUMPI PUSH1 0x40 MLOAD PUSH32 0x8C379A000000000000000000000000000000000000000000000000000000000 DUP2 MSTORE PUSH1 0x4 ADD PUSH2 0x228E SWAP1 PUSH2 0x53B3 JUMP JUMPDEST PUSH1 0x40 MLOAD DUP1 SWAP2 SUB SWAP1 REVERT JUMPDEST DUP3 DUP2 PUSH1 0xA ADD SWAP1 DUP2 PUSH2 0x22A8 SWAP2 SWAP1 PUSH2 0x5A1A JUMP JUMPDEST POP PUSH32 0xE4A1120FD509C50AEC65802FD3C3C9A4B72BF746FE9A552396185C6DE928E8AA DUP5 PUSH1 0x40 MLOAD PUSH2 0x22D8 SWAP2 SWAP1 PUSH2 0x47BF JUMP JUMPDEST PUSH1 0x40 MLOAD DUP1 SWAP2 SUB SWAP1 LOG1 POP POP POP POP JUMP JUMPDEST PUSH1 0x60 PUSH1 0x0 PUSH2 0x2331 PUSH1 0x2 PUSH1 0x0 DUP6 PUSH20 0xFFFFFFFFFFFFFFFFFFFFFFFFFFFFFFFFFFFFFFFF AND PUSH20 0xFFFFFFFFFFFFFFFFFFFFFFFFFFFFFFFFFFFFFFFF AND DUP2 MSTORE PUSH1 0x20 ADD SWAP1 DUP2 MSTORE PUSH1 0x20 ADD PUSH1 0x0 KECCAK256 PUSH2 0x27C0 JUMP JUMPDEST SWAP1 POP PUSH1 0x0 DUP2 PUSH8 0xFFFFFFFFFFFFFFFF DUP2 GT ISZERO PUSH2 0x234F JUMPI PUSH2 0x234E PUSH2 0x45DC JUMP JUMPDEST JUMPDEST PUSH1 0x40 MLOAD SWAP1 DUP1 DUP3 MSTORE DUP1 PUSH1 0x20 MUL PUSH1 0x20 ADD DUP3 ADD PUSH1 0x40 MSTORE DUP1 ISZERO PUSH2 0x2388 JUMPI DUP2 PUSH1 0x20 ADD JUMPDEST PUSH2 0x2375 PUSH2 0x440E JUMP JUMPDEST DUP2 MSTORE PUSH1 0x20 ADD SWAP1 PUSH1 0x1 SWAP1 SUB SWAP1 DUP2 PUSH2 0x236D JUMPI SWAP1 POP JUMPDEST POP SWAP1 POP PUSH1 0x0 JUMPDEST DUP3 DUP2 LT ISZERO PUSH2 0x2420 JUMPI PUSH2 0x23EF PUSH2 0x23EA DUP3 PUSH1 0x2 PUSH1 0x0 DUP10 PUSH20 0xFFFFFFFFFFFFFFFFFFFFFFFFFFFFFFFFFFFFFFFF AND PUSH20 0xFFFFFFFFFFFFFFFFFFFFFFFFFFFFFFFFFFFFFFFF AND DUP2 MSTORE PUSH1 0x20 ADD SWAP1 DUP2 MSTORE PUSH1 0x20 ADD PUSH1 0x0 KECCAK256 PUSH2 0x2880 SWAP1 SWAP2 SWAP1 PUSH4 0xFFFFFFFF AND JUMP JUMPDEST PUSH2 0x952 JUMP JUMPDEST DUP3 DUP3 DUP2 MLOAD DUP2 LT PUSH2 0x2402 JUMPI PUSH2 0x2401 PUSH2 0x51D3 JUMP JUMPDEST JUMPDEST PUSH1 0x20 MUL PUSH1 0x20 ADD ADD DUP2 SWAP1 MSTORE POP DUP1 DUP1 PUSH2 0x2418 SWAP1 PUSH2 0x52F9 JUMP JUMPDEST SWAP2 POP POP PUSH2 0x238E JUMP JUMPDEST POP DUP1 SWAP3 POP POP POP SWAP2 SWAP1 POP JUMP JUMPDEST PUSH1 0x7 PUSH1 0x20 MSTORE DUP1 PUSH1 0x0 MSTORE PUSH1 0x40 PUSH1 0x0 KECCAK256 PUSH1 0x0 SWAP2 POP SWAP1 POP DUP1 PUSH1 0x0 ADD PUSH1 0x0 SWAP1 SLOAD SWAP1 PUSH2 0x100 EXP SWAP1 DIV PUSH20 0xFFFFFFFFFFFFFFFFFFFFFFFFFFFFFFFFFFFFFFFF AND SWAP1 DUP1 PUSH1 0x1 ADD PUSH1 0x0 SWAP1 SLOAD SWAP1 PUSH2 0x100 EXP SWAP1 DIV PUSH20 0xFFFFFFFFFFFFFFFFFFFFFFFFFFFFFFFFFFFFFFFF AND SWAP1 DUP1 PUSH1 0x2 ADD SLOAD SWAP1 POP DUP4 JUMP JUMPDEST PUSH1 0x0 PUSH2 0x24DE PUSH1 0x8 PUSH1 0x0 DUP5 PUSH20 0xFFFFFFFFFFFFFFFFFFFFFFFFFFFFFFFFFFFFFFFF AND PUSH20 0xFFFFFFFFFFFFFFFFFFFFFFFFFFFFFFFFFFFFFFFF AND DUP2 MSTORE PUSH1 0x20 ADD SWAP1 DUP2 MSTORE PUSH1 0x20 ADD PUSH1 0x0 KECCAK256 PUSH2 0x27C0 JUMP JUMPDEST SWAP1 POP SWAP2 SWAP1 POP JUMP JUMPDEST PUSH1 0x0 PUSH2 0x252E PUSH1 0x2 PUSH1 0x0 DUP5 PUSH20 0xFFFFFFFFFFFFFFFFFFFFFFFFFFFFFFFFFFFFFFFF AND PUSH20 0xFFFFFFFFFFFFFFFFFFFFFFFFFFFFFFFFFFFFFFFF AND DUP2 MSTORE PUSH1 0x20 ADD SWAP1 DUP2 MSTORE PUSH1 0x20 ADD PUSH1 0x0 KECCAK256 PUSH2 0x27C0 JUMP JUMPDEST SWAP1 POP SWAP2 SWAP1 POP JUMP JUMPDEST PUSH2 0x253D PUSH2 0x440E JUMP JUMPDEST DUP2 PUSH2 0x2547 DUP5 PUSH2 0x902 JUMP JUMPDEST GT PUSH2 0x2587 JUMPI PUSH1 0x40 MLOAD PUSH32 0x8C379A000000000000000000000000000000000000000000000000000000000 DUP2 MSTORE PUSH1 0x4 ADD PUSH2 0x257E SWAP1 PUSH2 0x5456 JUMP JUMPDEST PUSH1 0x40 MLOAD DUP1 SWAP2 SUB SWAP1 REVERT JUMPDEST PUSH2 0x25E0 PUSH2 0x25DB DUP4 PUSH1 0x1 PUSH1 0x0 DUP8 PUSH20 0xFFFFFFFFFFFFFFFFFFFFFFFFFFFFFFFFFFFFFFFF AND PUSH20 0xFFFFFFFFFFFFFFFFFFFFFFFFFFFFFFFFFFFFFFFF AND DUP2 MSTORE PUSH1 0x20 ADD SWAP1 DUP2 MSTORE PUSH1 0x20 ADD PUSH1 0x0 KECCAK256 PUSH2 0x2880 SWAP1 SWAP2 SWAP1 PUSH4 0xFFFFFFFF AND JUMP JUMPDEST PUSH2 0x952 JUMP JUMPDEST SWAP1 POP SWAP3 SWAP2 POP POP JUMP JUMPDEST PUSH1 0x0 DUP1 DUP1 SLOAD SWAP1 POP SWAP1 POP SWAP1 JUMP JUMPDEST PUSH1 0x0 DUP8 ISZERO PUSH2 0x2622 JUMPI PUSH1 0x0 PUSH2 0x2607 DUP11 PUSH2 0x3450 JUMP JUMPDEST SWAP1 POP PUSH2 0x261A DUP12 DUP12 DUP4 DUP12 DUP12 DUP12 DUP12 DUP12 DUP12 PUSH2 0x3589 JUMP JUMPDEST SWAP2 POP POP PUSH2 0x2635 JUMP JUMPDEST PUSH2 0x2632 DUP11 DUP11 DUP10 DUP10 DUP10 DUP10 DUP10 DUP10 PUSH2 0x379E JUMP JUMPDEST SWAP1 POP JUMPDEST SWAP10 SWAP9 POP POP POP POP POP POP POP POP POP JUMP JUMPDEST PUSH1 0x0 DUP5 PUSH20 0xFFFFFFFFFFFFFFFFFFFFFFFFFFFFFFFFFFFFFFFF AND PUSH4 0x70A08231 DUP5 PUSH1 0x40 MLOAD DUP3 PUSH4 0xFFFFFFFF AND PUSH1 0xE0 SHL DUP2 MSTORE PUSH1 0x4 ADD PUSH2 0x267D SWAP2 SWAP1 PUSH2 0x5AEC JUMP JUMPDEST PUSH1 0x20 PUSH1 0x40 MLOAD DUP1 DUP4 SUB DUP2 DUP7 GAS STATICCALL ISZERO DUP1 ISZERO PUSH2 0x269A JUMPI RETURNDATASIZE PUSH1 0x0 DUP1 RETURNDATACOPY RETURNDATASIZE PUSH1 0x0 REVERT JUMPDEST POP POP POP POP PUSH1 0x40 MLOAD RETURNDATASIZE PUSH1 0x1F NOT PUSH1 0x1F DUP3 ADD AND DUP3 ADD DUP1 PUSH1 0x40 MSTORE POP DUP2 ADD SWAP1 PUSH2 0x26BE SWAP2 SWAP1 PUSH2 0x5B1C JUMP JUMPDEST SWAP1 POP PUSH2 0x26ED DUP5 DUP5 DUP5 DUP9 PUSH20 0xFFFFFFFFFFFFFFFFFFFFFFFFFFFFFFFFFFFFFFFF AND PUSH2 0x39B3 SWAP1 SWAP4 SWAP3 SWAP2 SWAP1 PUSH4 0xFFFFFFFF AND JUMP JUMPDEST PUSH1 0x0 DUP6 PUSH20 0xFFFFFFFFFFFFFFFFFFFFFFFFFFFFFFFFFFFFFFFF AND PUSH4 0x70A08231 DUP6 PUSH1 0x40 MLOAD DUP3 PUSH4 0xFFFFFFFF AND PUSH1 0xE0 SHL DUP2 MSTORE PUSH1 0x4 ADD PUSH2 0x2728 SWAP2 SWAP1 PUSH2 0x5AEC JUMP JUMPDEST PUSH1 0x20 PUSH1 0x40 MLOAD DUP1 DUP4 SUB DUP2 DUP7 GAS STATICCALL ISZERO DUP1 ISZERO PUSH2 0x2745 JUMPI RETURNDATASIZE PUSH1 0x0 DUP1 RETURNDATACOPY RETURNDATASIZE PUSH1 0x0 REVERT JUMPDEST POP POP POP POP PUSH1 0x40 MLOAD RETURNDATASIZE PUSH1 0x1F NOT PUSH1 0x1F DUP3 ADD AND DUP3 ADD DUP1 PUSH1 0x40 MSTORE POP DUP2 ADD SWAP1 PUSH2 0x2769 SWAP2 SWAP1 PUSH2 0x5B1C JUMP JUMPDEST SWAP1 POP DUP3 DUP3 DUP3 PUSH2 0x2778 SWAP2 SWAP1 PUSH2 0x52C5 JUMP JUMPDEST EQ PUSH2 0x27B8 JUMPI PUSH1 0x40 MLOAD PUSH32 0x8C379A000000000000000000000000000000000000000000000000000000000 DUP2 MSTORE PUSH1 0x4 ADD PUSH2 0x27AF SWAP1 PUSH2 0x5B95 JUMP JUMPDEST PUSH1 0x40 MLOAD DUP1 SWAP2 SUB SWAP1 REVERT JUMPDEST POP POP POP POP POP POP JUMP JUMPDEST PUSH1 0x0 PUSH2 0x27CE DUP3 PUSH1 0x0 ADD PUSH2 0x3A35 JUMP JUMPDEST SWAP1 POP SWAP2 SWAP1 POP JUMP JUMPDEST PUSH1 0x0 PUSH3 0xF4240 DUP3 LT ISZERO PUSH2 0x281D JUMPI PUSH1 0x40 MLOAD PUSH32 0x8C379A000000000000000000000000000000000000000000000000000000000 DUP2 MSTORE PUSH1 0x4 ADD PUSH2 0x2814 SWAP1 PUSH2 0x5C01 JUMP JUMPDEST PUSH1 0x40 MLOAD DUP1 SWAP2 SUB SWAP1 REVERT JUMPDEST PUSH1 0x0 PUSH3 0xF4240 DUP4 PUSH2 0x282E SWAP2 SWAP1 PUSH2 0x52C5 JUMP JUMPDEST SWAP1 POP PUSH1 0x0 DUP1 SLOAD SWAP1 POP DUP2 LT PUSH2 0x2877 JUMPI PUSH1 0x40 MLOAD PUSH32 0x8C379A000000000000000000000000000000000000000000000000000000000 DUP2 MSTORE PUSH1 0x4 ADD PUSH2 0x286E SWAP1 PUSH2 0x5C01 JUMP JUMPDEST PUSH1 0x40 MLOAD DUP1 SWAP2 SUB SWAP1 REVERT JUMPDEST DUP1 SWAP2 POP POP SWAP2 SWAP1 POP JUMP JUMPDEST PUSH1 0x0 PUSH2 0x288F DUP4 PUSH1 0x0 ADD DUP4 PUSH2 0x3A46 JUMP JUMPDEST PUSH1 0x0 SHR SWAP1 POP SWAP3 SWAP2 POP POP JUMP JUMPDEST PUSH1 0x0 PUSH2 0x28A8 DUP3 PUSH1 0x0 ADD PUSH2 0x3A35 JUMP JUMPDEST SWAP1 POP SWAP2 SWAP1 POP JUMP JUMPDEST PUSH1 0x0 PUSH2 0x28C1 DUP4 PUSH1 0x0 ADD DUP4 PUSH1 0x0 SHL PUSH2 0x3A71 JUMP JUMPDEST SWAP1 POP SWAP3 SWAP2 POP POP JUMP JUMPDEST PUSH1 0x0 PUSH2 0x28DB DUP4 PUSH1 0x0 ADD DUP4 PUSH1 0x0 SHL PUSH2 0x3B85 JUMP JUMPDEST SWAP1 POP SWAP3 SWAP2 POP POP JUMP JUMPDEST PUSH1 0x0 PUSH2 0x2A88 DUP3 PUSH1 0x40 MLOAD DUP1 PUSH2 0x160 ADD PUSH1 0x40 MSTORE SWAP1 DUP2 PUSH1 0x0 DUP3 ADD SLOAD DUP2 MSTORE PUSH1 0x20 ADD PUSH1 0x1 DUP3 ADD PUSH1 0x0 SWAP1 SLOAD SWAP1 PUSH2 0x100 EXP SWAP1 DIV PUSH20 0xFFFFFFFFFFFFFFFFFFFFFFFFFFFFFFFFFFFFFFFF AND PUSH20 0xFFFFFFFFFFFFFFFFFFFFFFFFFFFFFFFFFFFFFFFF AND PUSH20 0xFFFFFFFFFFFFFFFFFFFFFFFFFFFFFFFFFFFFFFFF AND DUP2 MSTORE PUSH1 0x20 ADD PUSH1 0x2 DUP3 ADD PUSH1 0x0 SWAP1 SLOAD SWAP1 PUSH2 0x100 EXP SWAP1 DIV PUSH20 0xFFFFFFFFFFFFFFFFFFFFFFFFFFFFFFFFFFFFFFFF AND PUSH20 0xFFFFFFFFFFFFFFFFFFFFFFFFFFFFFFFFFFFFFFFF AND PUSH20 0xFFFFFFFFFFFFFFFFFFFFFFFFFFFFFFFFFFFFFFFF AND DUP2 MSTORE PUSH1 0x20 ADD PUSH1 0x3 DUP3 ADD SLOAD DUP2 MSTORE PUSH1 0x20 ADD PUSH1 0x4 DUP3 ADD SLOAD DUP2 MSTORE PUSH1 0x20 ADD PUSH1 0x5 DUP3 ADD SLOAD DUP2 MSTORE PUSH1 0x20 ADD PUSH1 0x6 DUP3 ADD SLOAD DUP2 MSTORE PUSH1 0x20 ADD PUSH1 0x7 DUP3 ADD SLOAD DUP2 MSTORE PUSH1 0x20 ADD PUSH1 0x8 DUP3 ADD SLOAD DUP2 MSTORE PUSH1 0x20 ADD PUSH1 0x9 DUP3 ADD SLOAD DUP2 MSTORE PUSH1 0x20 ADD PUSH1 0xA DUP3 ADD DUP1 SLOAD PUSH2 0x2A01 SWAP1 PUSH2 0x5231 JUMP JUMPDEST DUP1 PUSH1 0x1F ADD PUSH1 0x20 DUP1 SWAP2 DIV MUL PUSH1 0x20 ADD PUSH1 0x40 MLOAD SWAP1 DUP2 ADD PUSH1 0x40 MSTORE DUP1 SWAP3 SWAP2 SWAP1 DUP2 DUP2 MSTORE PUSH1 0x20 ADD DUP3 DUP1 SLOAD PUSH2 0x2A2D SWAP1 PUSH2 0x5231 JUMP JUMPDEST DUP1 ISZERO PUSH2 0x2A7A JUMPI DUP1 PUSH1 0x1F LT PUSH2 0x2A4F JUMPI PUSH2 0x100 DUP1 DUP4 SLOAD DIV MUL DUP4 MSTORE SWAP2 PUSH1 0x20 ADD SWAP2 PUSH2 0x2A7A JUMP JUMPDEST DUP3 ADD SWAP2 SWAP1 PUSH1 0x0 MSTORE PUSH1 0x20 PUSH1 0x0 KECCAK256 SWAP1 JUMPDEST DUP2 SLOAD DUP2 MSTORE SWAP1 PUSH1 0x1 ADD SWAP1 PUSH1 0x20 ADD DUP1 DUP4 GT PUSH2 0x2A5D JUMPI DUP3 SWAP1 SUB PUSH1 0x1F AND DUP3 ADD SWAP2 JUMPDEST POP POP POP POP POP DUP2 MSTORE POP POP PUSH2 0x331A JUMP JUMPDEST SWAP1 POP PUSH1 0x0 DUP2 DUP4 PUSH1 0x9 ADD SLOAD PUSH2 0x2A9C SWAP2 SWAP1 PUSH2 0x5291 JUMP JUMPDEST SWAP1 POP PUSH1 0x0 DUP3 GT DUP1 ISZERO PUSH2 0x2AB2 JUMPI POP DUP3 PUSH1 0x3 ADD SLOAD DUP2 GT ISZERO JUMPDEST PUSH2 0x2AF1 JUMPI PUSH1 0x40 MLOAD PUSH32 0x8C379A000000000000000000000000000000000000000000000000000000000 DUP2 MSTORE PUSH1 0x4 ADD PUSH2 0x2AE8 SWAP1 PUSH2 0x5C6D JUMP JUMPDEST PUSH1 0x40 MLOAD DUP1 SWAP2 SUB SWAP1 REVERT JUMPDEST PUSH1 0x0 PUSH1 0x7 PUSH1 0x0 DUP6 PUSH1 0x1 ADD PUSH1 0x0 SWAP1 SLOAD SWAP1 PUSH2 0x100 EXP SWAP1 DIV PUSH20 0xFFFFFFFFFFFFFFFFFFFFFFFFFFFFFFFFFFFFFFFF AND PUSH20 0xFFFFFFFFFFFFFFFFFFFFFFFFFFFFFFFFFFFFFFFF AND PUSH20 0xFFFFFFFFFFFFFFFFFFFFFFFFFFFFFFFFFFFFFFFF AND DUP2 MSTORE PUSH1 0x20 ADD SWAP1 DUP2 MSTORE PUSH1 0x20 ADD PUSH1 0x0 KECCAK256 SWAP1 POP PUSH1 0x0 DUP1 PUSH20 0xFFFFFFFFFFFFFFFFFFFFFFFFFFFFFFFFFFFFFFFF AND DUP3 PUSH1 0x1 ADD PUSH1 0x0 SWAP1 SLOAD SWAP1 PUSH2 0x100 EXP SWAP1 DIV PUSH20 0xFFFFFFFFFFFFFFFFFFFFFFFFFFFFFFFFFFFFFFFF AND PUSH20 0xFFFFFFFFFFFFFFFFFFFFFFFFFFFFFFFFFFFFFFFF AND EQ ISZERO SWAP1 POP DUP5 PUSH1 0x3 ADD SLOAD DUP4 SUB PUSH2 0x2D54 JUMPI DUP1 ISZERO PUSH2 0x2C1C JUMPI PUSH2 0x2C16 DUP6 PUSH1 0x0 ADD SLOAD PUSH1 0x1 PUSH1 0x0 CALLER PUSH20 0xFFFFFFFFFFFFFFFFFFFFFFFFFFFFFFFFFFFFFFFF AND PUSH20 0xFFFFFFFFFFFFFFFFFFFFFFFFFFFFFFFFFFFFFFFF AND DUP2 MSTORE PUSH1 0x20 ADD SWAP1 DUP2 MSTORE PUSH1 0x20 ADD PUSH1 0x0 KECCAK256 PUSH2 0x28AF SWAP1 SWAP2 SWAP1 PUSH4 0xFFFFFFFF AND JUMP JUMPDEST POP PUSH2 0x2C73 JUMP JUMPDEST PUSH2 0x2C71 DUP6 PUSH1 0x0 ADD SLOAD PUSH1 0x2 PUSH1 0x0 CALLER PUSH20 0xFFFFFFFFFFFFFFFFFFFFFFFFFFFFFFFFFFFFFFFF AND PUSH20 0xFFFFFFFFFFFFFFFFFFFFFFFFFFFFFFFFFFFFFFFF AND DUP2 MSTORE PUSH1 0x20 ADD SWAP1 DUP2 MSTORE PUSH1 0x20 ADD PUSH1 0x0 KECCAK256 PUSH2 0x28AF SWAP1 SWAP2 SWAP1 PUSH4 0xFFFFFFFF AND JUMP JUMPDEST POP JUMPDEST PUSH2 0x2CEC DUP6 PUSH1 0x0 ADD SLOAD PUSH1 0x8 PUSH1 0x0 DUP9 PUSH1 0x1 ADD PUSH1 0x0 SWAP1 SLOAD SWAP1 PUSH2 0x100 EXP SWAP1 DIV PUSH20 0xFFFFFFFFFFFFFFFFFFFFFFFFFFFFFFFFFFFFFFFF AND PUSH20 0xFFFFFFFFFFFFFFFFFFFFFFFFFFFFFFFFFFFFFFFF AND PUSH20 0xFFFFFFFFFFFFFFFFFFFFFFFFFFFFFFFFFFFFFFFF AND DUP2 MSTORE PUSH1 0x20 ADD SWAP1 DUP2 MSTORE PUSH1 0x20 ADD PUSH1 0x0 KECCAK256 PUSH2 0x28AF SWAP1 SWAP2 SWAP1 PUSH4 0xFFFFFFFF AND JUMP JUMPDEST POP DUP5 PUSH1 0x0 ADD SLOAD PUSH32 0xC6532367992B32E42A62DD89FC3574876D97D081A263AA6E030F34B79B7E6E8B DUP7 PUSH1 0x1 ADD PUSH1 0x0 SWAP1 SLOAD SWAP1 PUSH2 0x100 EXP SWAP1 DIV PUSH20 0xFFFFFFFFFFFFFFFFFFFFFFFFFFFFFFFFFFFFFFFF AND CALLER DUP7 TIMESTAMP PUSH1 0x40 MLOAD PUSH2 0x2D4B SWAP5 SWAP4 SWAP3 SWAP2 SWAP1 PUSH2 0x518E JUMP JUMPDEST PUSH1 0x40 MLOAD DUP1 SWAP2 SUB SWAP1 LOG2 JUMPDEST DUP4 DUP3 PUSH1 0x2 ADD SLOAD GT PUSH2 0x2D6E JUMPI PUSH1 0x0 DUP3 PUSH1 0x2 ADD DUP2 SWAP1 SSTORE POP PUSH2 0x2D87 JUMP JUMPDEST DUP4 DUP3 PUSH1 0x2 ADD SLOAD PUSH2 0x2D7E SWAP2 SWAP1 PUSH2 0x52C5 JUMP JUMPDEST DUP3 PUSH1 0x2 ADD DUP2 SWAP1 SSTORE POP JUMPDEST PUSH1 0x0 DUP3 PUSH1 0x2 ADD SLOAD SUB PUSH2 0x2E12 JUMPI DUP1 ISZERO PUSH2 0x2DD7 JUMPI PUSH2 0x2DD1 DUP6 PUSH1 0x1 ADD PUSH1 0x0 SWAP1 SLOAD SWAP1 PUSH2 0x100 EXP SWAP1 DIV PUSH20 0xFFFFFFFFFFFFFFFFFFFFFFFFFFFFFFFFFFFFFFFF AND PUSH1 0x3 PUSH2 0x3BF5 SWAP1 SWAP2 SWAP1 PUSH4 0xFFFFFFFF AND JUMP JUMPDEST POP PUSH2 0x2E11 JUMP JUMPDEST PUSH2 0x2E0F DUP6 PUSH1 0x1 ADD PUSH1 0x0 SWAP1 SLOAD SWAP1 PUSH2 0x100 EXP SWAP1 DIV PUSH20 0xFFFFFFFFFFFFFFFFFFFFFFFFFFFFFFFFFFFFFFFF AND PUSH1 0x5 PUSH2 0x3BF5 SWAP1 SWAP2 SWAP1 PUSH4 0xFFFFFFFF AND JUMP JUMPDEST POP JUMPDEST JUMPDEST DUP3 DUP6 PUSH1 0x9 ADD DUP2 SWAP1 SSTORE POP PUSH2 0x2E8E DUP6 PUSH1 0x2 ADD PUSH1 0x0 SWAP1 SLOAD SWAP1 PUSH2 0x100 EXP SWAP1 DIV PUSH20 0xFFFFFFFFFFFFFFFFFFFFFFFFFFFFFFFFFFFFFFFF AND DUP6 DUP8 PUSH1 0x1 ADD PUSH1 0x0 SWAP1 SLOAD SWAP1 PUSH2 0x100 EXP SWAP1 DIV PUSH20 0xFFFFFFFFFFFFFFFFFFFFFFFFFFFFFFFFFFFFFFFF AND PUSH20 0xFFFFFFFFFFFFFFFFFFFFFFFFFFFFFFFFFFFFFFFF AND PUSH2 0x3C25 SWAP1 SWAP3 SWAP2 SWAP1 PUSH4 0xFFFFFFFF AND JUMP JUMPDEST DUP5 PUSH1 0x0 ADD SLOAD PUSH32 0xF93385FFDF40B698B13993C059834B8E91D0CA8E7ABF827A34001CA03C03F6FF DUP7 PUSH1 0x1 ADD PUSH1 0x0 SWAP1 SLOAD SWAP1 PUSH2 0x100 EXP SWAP1 DIV PUSH20 0xFFFFFFFFFFFFFFFFFFFFFFFFFFFFFFFFFFFFFFFF AND CALLER DUP8 DUP10 PUSH1 0x9 ADD SLOAD DUP11 PUSH1 0x3 ADD SLOAD PUSH2 0x2EEF SWAP2 SWAP1 PUSH2 0x52C5 JUMP JUMPDEST TIMESTAMP PUSH1 0x40 MLOAD PUSH2 0x2F01 SWAP6 SWAP5 SWAP4 SWAP3 SWAP2 SWAP1 PUSH2 0x5C8D JUMP JUMPDEST PUSH1 0x40 MLOAD DUP1 SWAP2 SUB SWAP1 LOG2 POP POP POP POP POP JUMP JUMPDEST DUP1 PUSH1 0x5 ADD SLOAD TIMESTAMP LT ISZERO PUSH2 0x2F57 JUMPI PUSH1 0x40 MLOAD PUSH32 0x8C379A000000000000000000000000000000000000000000000000000000000 DUP2 MSTORE PUSH1 0x4 ADD PUSH2 0x2F4E SWAP1 PUSH2 0x5D2C JUMP JUMPDEST PUSH1 0x40 MLOAD DUP1 SWAP2 SUB SWAP1 REVERT JUMPDEST PUSH1 0x0 DUP2 PUSH1 0x9 ADD SLOAD EQ PUSH2 0x2F9E JUMPI PUSH1 0x40 MLOAD PUSH32 0x8C379A000000000000000000000000000000000000000000000000000000000 DUP2 MSTORE PUSH1 0x4 ADD PUSH2 0x2F95 SWAP1 PUSH2 0x5C6D JUMP JUMPDEST PUSH1 0x40 MLOAD DUP1 SWAP2 SUB SWAP1 REVERT JUMPDEST PUSH1 0x0 PUSH1 0x7 PUSH1 0x0 DUP4 PUSH1 0x1 ADD PUSH1 0x0 SWAP1 SLOAD SWAP1 PUSH2 0x100 EXP SWAP1 DIV PUSH20 0xFFFFFFFFFFFFFFFFFFFFFFFFFFFFFFFFFFFFFFFF AND PUSH20 0xFFFFFFFFFFFFFFFFFFFFFFFFFFFFFFFFFFFFFFFF AND PUSH20 0xFFFFFFFFFFFFFFFFFFFFFFFFFFFFFFFFFFFFFFFF AND DUP2 MSTORE PUSH1 0x20 ADD SWAP1 DUP2 MSTORE PUSH1 0x20 ADD PUSH1 0x0 KECCAK256 SWAP1 POP PUSH1 0x0 DUP1 PUSH20 0xFFFFFFFFFFFFFFFFFFFFFFFFFFFFFFFFFFFFFFFF AND DUP3 PUSH1 0x1 ADD PUSH1 0x0 SWAP1 SLOAD SWAP1 PUSH2 0x100 EXP SWAP1 DIV PUSH20 0xFFFFFFFFFFFFFFFFFFFFFFFFFFFFFFFFFFFFFFFF AND PUSH20 0xFFFFFFFFFFFFFFFFFFFFFFFFFFFFFFFFFFFFFFFF AND EQ ISZERO SWAP1 POP DUP1 ISZERO PUSH2 0x30BE JUMPI PUSH2 0x30B8 DUP4 PUSH1 0x0 ADD SLOAD PUSH1 0x1 PUSH1 0x0 CALLER PUSH20 0xFFFFFFFFFFFFFFFFFFFFFFFFFFFFFFFFFFFFFFFF AND PUSH20 0xFFFFFFFFFFFFFFFFFFFFFFFFFFFFFFFFFFFFFFFF AND DUP2 MSTORE PUSH1 0x20 ADD SWAP1 DUP2 MSTORE PUSH1 0x20 ADD PUSH1 0x0 KECCAK256 PUSH2 0x28AF SWAP1 SWAP2 SWAP1 PUSH4 0xFFFFFFFF AND JUMP JUMPDEST POP PUSH2 0x3115 JUMP JUMPDEST PUSH2 0x3113 DUP4 PUSH1 0x0 ADD SLOAD PUSH1 0x2 PUSH1 0x0 CALLER PUSH20 0xFFFFFFFFFFFFFFFFFFFFFFFFFFFFFFFFFFFFFFFF AND PUSH20 0xFFFFFFFFFFFFFFFFFFFFFFFFFFFFFFFFFFFFFFFF AND DUP2 MSTORE PUSH1 0x20 ADD SWAP1 DUP2 MSTORE PUSH1 0x20 ADD PUSH1 0x0 KECCAK256 PUSH2 0x28AF SWAP1 SWAP2 SWAP1 PUSH4 0xFFFFFFFF AND JUMP JUMPDEST POP JUMPDEST PUSH1 0x0 DUP4 PUSH1 0x3 ADD SLOAD SWAP1 POP DUP1 DUP4 PUSH1 0x2 ADD SLOAD GT PUSH2 0x3138 JUMPI PUSH1 0x0 DUP4 PUSH1 0x2 ADD DUP2 SWAP1 SSTORE POP PUSH2 0x3151 JUMP JUMPDEST DUP1 DUP4 PUSH1 0x2 ADD SLOAD PUSH2 0x3148 SWAP2 SWAP1 PUSH2 0x52C5 JUMP JUMPDEST DUP4 PUSH1 0x2 ADD DUP2 SWAP1 SSTORE POP JUMPDEST PUSH1 0x0 DUP4 PUSH1 0x2 ADD SLOAD SUB PUSH2 0x31DC JUMPI DUP2 ISZERO PUSH2 0x31A1 JUMPI PUSH2 0x319B DUP5 PUSH1 0x1 ADD PUSH1 0x0 SWAP1 SLOAD SWAP1 PUSH2 0x100 EXP SWAP1 DIV PUSH20 0xFFFFFFFFFFFFFFFFFFFFFFFFFFFFFFFFFFFFFFFF AND PUSH1 0x3 PUSH2 0x3BF5 SWAP1 SWAP2 SWAP1 PUSH4 0xFFFFFFFF AND JUMP JUMPDEST POP PUSH2 0x31DB JUMP JUMPDEST PUSH2 0x31D9 DUP5 PUSH1 0x1 ADD PUSH1 0x0 SWAP1 SLOAD SWAP1 PUSH2 0x100 EXP SWAP1 DIV PUSH20 0xFFFFFFFFFFFFFFFFFFFFFFFFFFFFFFFFFFFFFFFF AND PUSH1 0x5 PUSH2 0x3BF5 SWAP1 SWAP2 SWAP1 PUSH4 0xFFFFFFFF AND JUMP JUMPDEST POP JUMPDEST JUMPDEST DUP1 DUP5 PUSH1 0x9 ADD DUP2 SWAP1 SSTORE POP PUSH2 0x325E DUP5 PUSH1 0x0 ADD SLOAD PUSH1 0x8 PUSH1 0x0 DUP8 PUSH1 0x1 ADD PUSH1 0x0 SWAP1 SLOAD SWAP1 PUSH2 0x100 EXP SWAP1 DIV PUSH20 0xFFFFFFFFFFFFFFFFFFFFFFFFFFFFFFFFFFFFFFFF AND PUSH20 0xFFFFFFFFFFFFFFFFFFFFFFFFFFFFFFFFFFFFFFFF AND PUSH20 0xFFFFFFFFFFFFFFFFFFFFFFFFFFFFFFFFFFFFFFFF AND DUP2 MSTORE PUSH1 0x20 ADD SWAP1 DUP2 MSTORE PUSH1 0x20 ADD PUSH1 0x0 KECCAK256 PUSH2 0x28AF SWAP1 SWAP2 SWAP1 PUSH4 0xFFFFFFFF AND JUMP JUMPDEST POP PUSH2 0x32AE CALLER DUP3 DUP7 PUSH1 0x1 ADD PUSH1 0x0 SWAP1 SLOAD SWAP1 PUSH2 0x100 EXP SWAP1 DIV PUSH20 0xFFFFFFFFFFFFFFFFFFFFFFFFFFFFFFFFFFFFFFFF AND PUSH20 0xFFFFFFFFFFFFFFFFFFFFFFFFFFFFFFFFFFFFFFFF AND PUSH2 0x3C25 SWAP1 SWAP3 SWAP2 SWAP1 PUSH4 0xFFFFFFFF AND JUMP JUMPDEST DUP4 PUSH1 0x0 ADD SLOAD PUSH32 0xC6532367992B32E42A62DD89FC3574876D97D081A263AA6E030F34B79B7E6E8B DUP6 PUSH1 0x1 ADD PUSH1 0x0 SWAP1 SLOAD SWAP1 PUSH2 0x100 EXP SWAP1 DIV PUSH20 0xFFFFFFFFFFFFFFFFFFFFFFFFFFFFFFFFFFFFFFFF AND CALLER DUP5 TIMESTAMP PUSH1 0x40 MLOAD PUSH2 0x330C SWAP5 SWAP4 SWAP3 SWAP2 SWAP1 PUSH2 0x518E JUMP JUMPDEST PUSH1 0x40 MLOAD DUP1 SWAP2 SUB SWAP1 LOG2 POP POP POP POP JUMP JUMPDEST PUSH1 0x0 DUP1 DUP3 PUSH1 0x60 ADD MLOAD SUB PUSH2 0x3330 JUMPI PUSH1 0x0 SWAP1 POP PUSH2 0x3431 JUMP JUMPDEST DUP2 PUSH1 0x60 ADD MLOAD DUP3 PUSH2 0x120 ADD MLOAD LT PUSH2 0x3349 JUMPI PUSH1 0x0 SWAP1 POP PUSH2 0x3431 JUMP JUMPDEST DUP2 PUSH1 0xA0 ADD MLOAD TIMESTAMP LT ISZERO PUSH2 0x335E JUMPI PUSH1 0x0 SWAP1 POP PUSH2 0x3431 JUMP JUMPDEST PUSH1 0x0 DUP3 PUSH1 0xE0 ADD MLOAD SUB PUSH2 0x3373 JUMPI PUSH1 0x0 SWAP1 POP PUSH2 0x3431 JUMP JUMPDEST PUSH1 0x0 PUSH2 0x338A DUP4 PUSH1 0x60 ADD MLOAD DUP5 PUSH1 0xC0 ADD MLOAD PUSH2 0x2710 PUSH2 0x3CA4 JUMP JUMPDEST SWAP1 POP PUSH1 0x0 PUSH2 0x33A4 DUP5 PUSH1 0x60 ADD MLOAD DUP6 PUSH2 0x100 ADD MLOAD PUSH2 0x2710 PUSH2 0x3CA4 JUMP JUMPDEST SWAP1 POP PUSH1 0x0 DUP5 PUSH1 0xA0 ADD MLOAD TIMESTAMP LT PUSH2 0x33EB JUMPI DUP3 DUP3 DUP7 PUSH1 0xE0 ADD MLOAD DUP8 PUSH1 0xA0 ADD MLOAD TIMESTAMP PUSH2 0x33CA SWAP2 SWAP1 PUSH2 0x52C5 JUMP JUMPDEST PUSH2 0x33D4 SWAP2 SWAP1 PUSH2 0x5D7B JUMP JUMPDEST PUSH2 0x33DE SWAP2 SWAP1 PUSH2 0x5DAC JUMP JUMPDEST PUSH2 0x33E8 SWAP2 SWAP1 PUSH2 0x5291 JUMP JUMPDEST SWAP1 POP JUMPDEST PUSH1 0x0 DUP6 PUSH1 0x60 ADD MLOAD DUP3 GT ISZERO PUSH2 0x3415 JUMPI DUP6 PUSH2 0x120 ADD MLOAD DUP7 PUSH1 0x60 ADD MLOAD PUSH2 0x340E SWAP2 SWAP1 PUSH2 0x52C5 JUMP JUMPDEST SWAP1 POP PUSH2 0x3429 JUMP JUMPDEST DUP6 PUSH2 0x120 ADD MLOAD DUP3 PUSH2 0x3426 SWAP2 SWAP1 PUSH2 0x52C5 JUMP JUMPDEST SWAP1 POP JUMPDEST DUP1 SWAP5 POP POP POP POP POP JUMPDEST SWAP2 SWAP1 POP JUMP JUMPDEST PUSH1 0x0 PUSH2 0x3445 DUP4 PUSH1 0x0 ADD DUP4 PUSH2 0x3A46 JUMP JUMPDEST PUSH1 0x0 SHR SWAP1 POP SWAP3 SWAP2 POP POP JUMP JUMPDEST PUSH1 0x0 DUP1 DUP3 PUSH20 0xFFFFFFFFFFFFFFFFFFFFFFFFFFFFFFFFFFFFFFFF AND PUSH4 0xC45A0155 PUSH1 0x40 MLOAD DUP2 PUSH4 0xFFFFFFFF AND PUSH1 0xE0 SHL DUP2 MSTORE PUSH1 0x4 ADD PUSH1 0x20 PUSH1 0x40 MLOAD DUP1 DUP4 SUB DUP2 DUP7 GAS STATICCALL SWAP3 POP POP POP DUP1 ISZERO PUSH2 0x34BB JUMPI POP PUSH1 0x40 MLOAD RETURNDATASIZE PUSH1 0x1F NOT PUSH1 0x1F DUP3 ADD AND DUP3 ADD DUP1 PUSH1 0x40 MSTORE POP DUP2 ADD SWAP1 PUSH2 0x34B8 SWAP2 SWAP1 PUSH2 0x5E03 JUMP JUMPDEST PUSH1 0x1 JUMPDEST PUSH2 0x34FA JUMPI PUSH1 0x40 MLOAD PUSH32 0x8C379A000000000000000000000000000000000000000000000000000000000 DUP2 MSTORE PUSH1 0x4 ADD PUSH2 0x34F1 SWAP1 PUSH2 0x5E7C JUMP JUMPDEST PUSH1 0x40 MLOAD DUP1 SWAP2 SUB SWAP1 REVERT JUMPDEST DUP1 SWAP2 POP POP PUSH1 0x0 PUSH20 0xFFFFFFFFFFFFFFFFFFFFFFFFFFFFFFFFFFFFFFFF AND DUP2 PUSH20 0xFFFFFFFFFFFFFFFFFFFFFFFFFFFFFFFFFFFFFFFF AND EQ ISZERO DUP1 ISZERO PUSH2 0x3541 JUMPI POP PUSH2 0x3540 DUP4 DUP3 PUSH2 0x3E0B JUMP JUMPDEST JUMPDEST PUSH2 0x3580 JUMPI PUSH1 0x40 MLOAD PUSH32 0x8C379A000000000000000000000000000000000000000000000000000000000 DUP2 MSTORE PUSH1 0x4 ADD PUSH2 0x3577 SWAP1 PUSH2 0x5EE8 JUMP JUMPDEST PUSH1 0x40 MLOAD DUP1 SWAP2 SUB SWAP1 REVERT JUMPDEST DUP1 SWAP2 POP POP SWAP2 SWAP1 POP JUMP JUMPDEST PUSH1 0x0 PUSH2 0x359B DUP11 DUP11 DUP10 DUP10 DUP10 DUP10 DUP10 DUP10 PUSH2 0x3FA6 JUMP JUMPDEST SWAP1 POP PUSH2 0x35EE DUP2 PUSH1 0x1 PUSH1 0x0 DUP14 PUSH20 0xFFFFFFFFFFFFFFFFFFFFFFFFFFFFFFFFFFFFFFFF AND PUSH20 0xFFFFFFFFFFFFFFFFFFFFFFFFFFFFFFFFFFFFFFFF AND DUP2 MSTORE PUSH1 0x20 ADD SWAP1 DUP2 MSTORE PUSH1 0x20 ADD PUSH1 0x0 KECCAK256 PUSH2 0x28C9 SWAP1 SWAP2 SWAP1 PUSH4 0xFFFFFFFF AND JUMP JUMPDEST POP PUSH2 0x3603 DUP10 PUSH1 0x3 PUSH2 0x416D SWAP1 SWAP2 SWAP1 PUSH4 0xFFFFFFFF AND JUMP JUMPDEST POP PUSH1 0x0 PUSH1 0x7 PUSH1 0x0 DUP12 PUSH20 0xFFFFFFFFFFFFFFFFFFFFFFFFFFFFFFFFFFFFFFFF AND PUSH20 0xFFFFFFFFFFFFFFFFFFFFFFFFFFFFFFFFFFFFFFFF AND DUP2 MSTORE PUSH1 0x20 ADD SWAP1 DUP2 MSTORE PUSH1 0x20 ADD PUSH1 0x0 KECCAK256 SWAP1 POP PUSH1 0x0 PUSH20 0xFFFFFFFFFFFFFFFFFFFFFFFFFFFFFFFFFFFFFFFF AND DUP2 PUSH1 0x0 ADD PUSH1 0x0 SWAP1 SLOAD SWAP1 PUSH2 0x100 EXP SWAP1 DIV PUSH20 0xFFFFFFFFFFFFFFFFFFFFFFFFFFFFFFFFFFFFFFFF AND PUSH20 0xFFFFFFFFFFFFFFFFFFFFFFFFFFFFFFFFFFFFFFFF AND SUB PUSH2 0x3726 JUMPI DUP10 DUP2 PUSH1 0x0 ADD PUSH1 0x0 PUSH2 0x100 EXP DUP2 SLOAD DUP2 PUSH20 0xFFFFFFFFFFFFFFFFFFFFFFFFFFFFFFFFFFFFFFFF MUL NOT AND SWAP1 DUP4 PUSH20 0xFFFFFFFFFFFFFFFFFFFFFFFFFFFFFFFFFFFFFFFF AND MUL OR SWAP1 SSTORE POP DUP9 DUP2 PUSH1 0x1 ADD PUSH1 0x0 PUSH2 0x100 EXP DUP2 SLOAD DUP2 PUSH20 0xFFFFFFFFFFFFFFFFFFFFFFFFFFFFFFFFFFFFFFFF MUL NOT AND SWAP1 DUP4 PUSH20 0xFFFFFFFFFFFFFFFFFFFFFFFFFFFFFFFFFFFFFFFF AND MUL OR SWAP1 SSTORE POP JUMPDEST DUP8 DUP2 PUSH1 0x2 ADD SLOAD PUSH2 0x3736 SWAP2 SWAP1 PUSH2 0x5291 JUMP JUMPDEST DUP2 PUSH1 0x2 ADD DUP2 SWAP1 SSTORE POP PUSH2 0x378F DUP3 PUSH1 0x8 PUSH1 0x0 DUP14 PUSH20 0xFFFFFFFFFFFFFFFFFFFFFFFFFFFFFFFFFFFFFFFF AND PUSH20 0xFFFFFFFFFFFFFFFFFFFFFFFFFFFFFFFFFFFFFFFF AND DUP2 MSTORE PUSH1 0x20 ADD SWAP1 DUP2 MSTORE PUSH1 0x20 ADD PUSH1 0x0 KECCAK256 PUSH2 0x28C9 SWAP1 SWAP2 SWAP1 PUSH4 0xFFFFFFFF AND JUMP JUMPDEST POP POP SWAP10 SWAP9 POP POP POP POP POP POP POP POP POP JUMP JUMPDEST PUSH1 0x0 PUSH2 0x37B0 DUP10 DUP10 DUP10 DUP10 DUP10 DUP10 DUP10 DUP10 PUSH2 0x3FA6 JUMP JUMPDEST SWAP1 POP PUSH2 0x3803 DUP2 PUSH1 0x2 PUSH1 0x0 DUP13 PUSH20 0xFFFFFFFFFFFFFFFFFFFFFFFFFFFFFFFFFFFFFFFF AND PUSH20 0xFFFFFFFFFFFFFFFFFFFFFFFFFFFFFFFFFFFFFFFF AND DUP2 MSTORE PUSH1 0x20 ADD SWAP1 DUP2 MSTORE PUSH1 0x20 ADD PUSH1 0x0 KECCAK256 PUSH2 0x28C9 SWAP1 SWAP2 SWAP1 PUSH4 0xFFFFFFFF AND JUMP JUMPDEST POP PUSH2 0x3818 DUP9 PUSH1 0x5 PUSH2 0x416D SWAP1 SWAP2 SWAP1 PUSH4 0xFFFFFFFF AND JUMP JUMPDEST POP PUSH1 0x0 PUSH1 0x7 PUSH1 0x0 DUP11 PUSH20 0xFFFFFFFFFFFFFFFFFFFFFFFFFFFFFFFFFFFFFFFF AND PUSH20 0xFFFFFFFFFFFFFFFFFFFFFFFFFFFFFFFFFFFFFFFF AND DUP2 MSTORE PUSH1 0x20 ADD SWAP1 DUP2 MSTORE PUSH1 0x20 ADD PUSH1 0x0 KECCAK256 SWAP1 POP PUSH1 0x0 PUSH20 0xFFFFFFFFFFFFFFFFFFFFFFFFFFFFFFFFFFFFFFFF AND DUP2 PUSH1 0x0 ADD PUSH1 0x0 SWAP1 SLOAD SWAP1 PUSH2 0x100 EXP SWAP1 DIV PUSH20 0xFFFFFFFFFFFFFFFFFFFFFFFFFFFFFFFFFFFFFFFF AND PUSH20 0xFFFFFFFFFFFFFFFFFFFFFFFFFFFFFFFFFFFFFFFF AND SUB PUSH2 0x393C JUMPI DUP9 DUP2 PUSH1 0x0 ADD PUSH1 0x0 PUSH2 0x100 EXP DUP2 SLOAD DUP2 PUSH20 0xFFFFFFFFFFFFFFFFFFFFFFFFFFFFFFFFFFFFFFFF MUL NOT AND SWAP1 DUP4 PUSH20 0xFFFFFFFFFFFFFFFFFFFFFFFFFFFFFFFFFFFFFFFF AND MUL OR SWAP1 SSTORE POP PUSH1 0x0 DUP2 PUSH1 0x1 ADD PUSH1 0x0 PUSH2 0x100 EXP DUP2 SLOAD DUP2 PUSH20 0xFFFFFFFFFFFFFFFFFFFFFFFFFFFFFFFFFFFFFFFF MUL NOT AND SWAP1 DUP4 PUSH20 0xFFFFFFFFFFFFFFFFFFFFFFFFFFFFFFFFFFFFFFFF AND MUL OR SWAP1 SSTORE POP JUMPDEST DUP8 DUP2 PUSH1 0x2 ADD SLOAD PUSH2 0x394C SWAP2 SWAP1 PUSH2 0x5291 JUMP JUMPDEST DUP2 PUSH1 0x2 ADD DUP2 SWAP1 SSTORE POP PUSH2 0x39A5 DUP3 PUSH1 0x8 PUSH1 0x0 DUP13 PUSH20 0xFFFFFFFFFFFFFFFFFFFFFFFFFFFFFFFFFFFFFFFF AND PUSH20 0xFFFFFFFFFFFFFFFFFFFFFFFFFFFFFFFFFFFFFFFF AND DUP2 MSTORE PUSH1 0x20 ADD SWAP1 DUP2 MSTORE PUSH1 0x20 ADD PUSH1 0x0 KECCAK256 PUSH2 0x28C9 SWAP1 SWAP2 SWAP1 PUSH4 0xFFFFFFFF AND JUMP JUMPDEST POP POP SWAP9 SWAP8 POP POP POP POP POP POP POP POP JUMP JUMPDEST PUSH2 0x3A2F DUP5 DUP6 PUSH20 0xFFFFFFFFFFFFFFFFFFFFFFFFFFFFFFFFFFFFFFFF AND PUSH4 0x23B872DD DUP7 DUP7 DUP7 PUSH1 0x40 MLOAD PUSH1 0x24 ADD PUSH2 0x39E8 SWAP4 SWAP3 SWAP2 SWAP1 PUSH2 0x4FDC JUMP JUMPDEST PUSH1 0x40 MLOAD PUSH1 0x20 DUP2 DUP4 SUB SUB DUP2 MSTORE SWAP1 PUSH1 0x40 MSTORE SWAP2 POP PUSH1 0xE0 SHL PUSH1 0x20 DUP3 ADD DUP1 MLOAD PUSH28 0xFFFFFFFFFFFFFFFFFFFFFFFFFFFFFFFFFFFFFFFFFFFFFFFFFFFFFFFF DUP4 DUP2 DUP4 AND OR DUP4 MSTORE POP POP POP POP PUSH2 0x419D JUMP JUMPDEST POP POP POP POP JUMP JUMPDEST PUSH1 0x0 DUP2 PUSH1 0x0 ADD DUP1 SLOAD SWAP1 POP SWAP1 POP SWAP2 SWAP1 POP JUMP JUMPDEST PUSH1 0x0 DUP3 PUSH1 0x0 ADD DUP3 DUP2 SLOAD DUP2 LT PUSH2 0x3A5E JUMPI PUSH2 0x3A5D PUSH2 0x51D3 JUMP JUMPDEST JUMPDEST SWAP1 PUSH1 0x0 MSTORE PUSH1 0x20 PUSH1 0x0 KECCAK256 ADD SLOAD SWAP1 POP SWAP3 SWAP2 POP POP JUMP JUMPDEST PUSH1 0x0 DUP1 DUP4 PUSH1 0x1 ADD PUSH1 0x0 DUP5 DUP2 MSTORE PUSH1 0x20 ADD SWAP1 DUP2 MSTORE PUSH1 0x20 ADD PUSH1 0x0 KECCAK256 SLOAD SWAP1 POP PUSH1 0x0 DUP2 EQ PUSH2 0x3B79 JUMPI PUSH1 0x0 PUSH1 0x1 DUP3 PUSH2 0x3AA3 SWAP2 SWAP1 PUSH2 0x52C5 JUMP JUMPDEST SWAP1 POP PUSH1 0x0 PUSH1 0x1 DUP7 PUSH1 0x0 ADD DUP1 SLOAD SWAP1 POP PUSH2 0x3ABB SWAP2 SWAP1 PUSH2 0x52C5 JUMP JUMPDEST SWAP1 POP DUP1 DUP3 EQ PUSH2 0x3B2A JUMPI PUSH1 0x0 DUP7 PUSH1 0x0 ADD DUP3 DUP2 SLOAD DUP2 LT PUSH2 0x3ADC JUMPI PUSH2 0x3ADB PUSH2 0x51D3 JUMP JUMPDEST JUMPDEST SWAP1 PUSH1 0x0 MSTORE PUSH1 0x20 PUSH1 0x0 KECCAK256 ADD SLOAD SWAP1 POP DUP1 DUP8 PUSH1 0x0 ADD DUP5 DUP2 SLOAD DUP2 LT PUSH2 0x3B00 JUMPI PUSH2 0x3AFF PUSH2 0x51D3 JUMP JUMPDEST JUMPDEST SWAP1 PUSH1 0x0 MSTORE PUSH1 0x20 PUSH1 0x0 KECCAK256 ADD DUP2 SWAP1 SSTORE POP DUP4 DUP8 PUSH1 0x1 ADD PUSH1 0x0 DUP4 DUP2 MSTORE PUSH1 0x20 ADD SWAP1 DUP2 MSTORE PUSH1 0x20 ADD PUSH1 0x0 KECCAK256 DUP2 SWAP1 SSTORE POP POP JUMPDEST DUP6 PUSH1 0x0 ADD DUP1 SLOAD DUP1 PUSH2 0x3B3E JUMPI PUSH2 0x3B3D PUSH2 0x5F08 JUMP JUMPDEST JUMPDEST PUSH1 0x1 SWAP1 SUB DUP2 DUP2 SWAP1 PUSH1 0x0 MSTORE PUSH1 0x20 PUSH1 0x0 KECCAK256 ADD PUSH1 0x0 SWAP1 SSTORE SWAP1 SSTORE DUP6 PUSH1 0x1 ADD PUSH1 0x0 DUP7 DUP2 MSTORE PUSH1 0x20 ADD SWAP1 DUP2 MSTORE PUSH1 0x20 ADD PUSH1 0x0 KECCAK256 PUSH1 0x0 SWAP1 SSTORE PUSH1 0x1 SWAP4 POP POP POP POP PUSH2 0x3B7F JUMP JUMPDEST PUSH1 0x0 SWAP2 POP POP JUMPDEST SWAP3 SWAP2 POP POP JUMP JUMPDEST PUSH1 0x0 PUSH2 0x3B91 DUP4 DUP4 PUSH2 0x4234 JUMP JUMPDEST PUSH2 0x3BEA JUMPI DUP3 PUSH1 0x0 ADD DUP3 SWAP1 DUP1 PUSH1 0x1 DUP2 SLOAD ADD DUP1 DUP3 SSTORE DUP1 SWAP2 POP POP PUSH1 0x1 SWAP1 SUB SWAP1 PUSH1 0x0 MSTORE PUSH1 0x20 PUSH1 0x0 KECCAK256 ADD PUSH1 0x0 SWAP1 SWAP2 SWAP1 SWAP2 SWAP1 SWAP2 POP SSTORE DUP3 PUSH1 0x0 ADD DUP1 SLOAD SWAP1 POP DUP4 PUSH1 0x1 ADD PUSH1 0x0 DUP5 DUP2 MSTORE PUSH1 0x20 ADD SWAP1 DUP2 MSTORE PUSH1 0x20 ADD PUSH1 0x0 KECCAK256 DUP2 SWAP1 SSTORE POP PUSH1 0x1 SWAP1 POP PUSH2 0x3BEF JUMP JUMPDEST PUSH1 0x0 SWAP1 POP JUMPDEST SWAP3 SWAP2 POP POP JUMP JUMPDEST PUSH1 0x0 PUSH2 0x3C1D DUP4 PUSH1 0x0 ADD DUP4 PUSH20 0xFFFFFFFFFFFFFFFFFFFFFFFFFFFFFFFFFFFFFFFF AND PUSH1 0x0 SHL PUSH2 0x3A71 JUMP JUMPDEST SWAP1 POP SWAP3 SWAP2 POP POP JUMP JUMPDEST PUSH2 0x3C9F DUP4 DUP5 PUSH20 0xFFFFFFFFFFFFFFFFFFFFFFFFFFFFFFFFFFFFFFFF AND PUSH4 0xA9059CBB DUP6 DUP6 PUSH1 0x40 MLOAD PUSH1 0x24 ADD PUSH2 0x3C58 SWAP3 SWAP2 SWAP1 PUSH2 0x5F37 JUMP JUMPDEST PUSH1 0x40 MLOAD PUSH1 0x20 DUP2 DUP4 SUB SUB DUP2 MSTORE SWAP1 PUSH1 0x40 MSTORE SWAP2 POP PUSH1 0xE0 SHL PUSH1 0x20 DUP3 ADD DUP1 MLOAD PUSH28 0xFFFFFFFFFFFFFFFFFFFFFFFFFFFFFFFFFFFFFFFFFFFFFFFFFFFFFFFF DUP4 DUP2 DUP4 AND OR DUP4 MSTORE POP POP POP POP PUSH2 0x419D JUMP JUMPDEST POP POP POP JUMP JUMPDEST PUSH1 0x0 DUP1 PUSH1 0x0 DUP1 NOT DUP6 DUP8 MULMOD DUP6 DUP8 MUL SWAP3 POP DUP3 DUP2 LT DUP4 DUP3 SUB SUB SWAP2 POP POP PUSH1 0x0 DUP2 SUB PUSH2 0x3D14 JUMPI PUSH1 0x0 DUP5 GT PUSH2 0x3D08 JUMPI PUSH1 0x40 MLOAD PUSH32 0x8C379A000000000000000000000000000000000000000000000000000000000 DUP2 MSTORE PUSH1 0x4 ADD PUSH2 0x3CFF SWAP1 PUSH2 0x5FAC JUMP JUMPDEST PUSH1 0x40 MLOAD DUP1 SWAP2 SUB SWAP1 REVERT JUMPDEST DUP4 DUP3 DIV SWAP3 POP POP POP PUSH2 0x3E04 JUMP JUMPDEST DUP1 DUP5 GT PUSH2 0x3D56 JUMPI PUSH1 0x40 MLOAD PUSH32 0x8C379A000000000000000000000000000000000000000000000000000000000 DUP2 MSTORE PUSH1 0x4 ADD PUSH2 0x3D4D SWAP1 PUSH2 0x6018 JUMP JUMPDEST PUSH1 0x40 MLOAD DUP1 SWAP2 SUB SWAP1 REVERT JUMPDEST PUSH1 0x0 DUP5 DUP7 DUP9 MULMOD SWAP1 POP DUP3 DUP2 GT DUP3 SUB SWAP2 POP DUP1 DUP4 SUB SWAP3 POP PUSH1 0x0 DUP6 PUSH1 0x1 DUP8 PUSH32 0xFFFFFFFFFFFFFFFFFFFFFFFFFFFFFFFFFFFFFFFFFFFFFFFFFFFFFFFFFFFFFFFF SUB ADD AND SWAP1 POP DUP1 DUP7 DIV SWAP6 POP DUP1 DUP5 DIV SWAP4 POP PUSH1 0x1 DUP2 DUP3 PUSH1 0x0 SUB DIV ADD SWAP1 POP DUP1 DUP4 MUL DUP5 OR SWAP4 POP PUSH1 0x0 PUSH1 0x2 DUP8 PUSH1 0x3 MUL XOR SWAP1 POP DUP1 DUP8 MUL PUSH1 0x2 SUB DUP2 MUL SWAP1 POP DUP1 DUP8 MUL PUSH1 0x2 SUB DUP2 MUL SWAP1 POP DUP1 DUP8 MUL PUSH1 0x2 SUB DUP2 MUL SWAP1 POP DUP1 DUP8 MUL PUSH1 0x2 SUB DUP2 MUL SWAP1 POP DUP1 DUP8 MUL PUSH1 0x2 SUB DUP2 MUL SWAP1 POP DUP1 DUP8 MUL PUSH1 0x2 SUB DUP2 MUL SWAP1 POP DUP1 DUP6 MUL SWAP6 POP POP POP POP POP POP JUMPDEST SWAP4 SWAP3 POP POP POP JUMP JUMPDEST PUSH1 0x0 DUP1 DUP4 SWAP1 POP PUSH1 0x0 DUP4 PUSH20 0xFFFFFFFFFFFFFFFFFFFFFFFFFFFFFFFFFFFFFFFF AND PUSH4 0xE6A43905 DUP4 PUSH20 0xFFFFFFFFFFFFFFFFFFFFFFFFFFFFFFFFFFFFFFFF AND PUSH4 0xDFE1681 PUSH1 0x40 MLOAD DUP2 PUSH4 0xFFFFFFFF AND PUSH1 0xE0 SHL DUP2 MSTORE PUSH1 0x4 ADD PUSH1 0x20 PUSH1 0x40 MLOAD DUP1 DUP4 SUB DUP2 DUP7 GAS STATICCALL ISZERO DUP1 ISZERO PUSH2 0x3E7A JUMPI RETURNDATASIZE PUSH1 0x0 DUP1 RETURNDATACOPY RETURNDATASIZE PUSH1 0x0 REVERT JUMPDEST POP POP POP POP PUSH1 0x40 MLOAD RETURNDATASIZE PUSH1 0x1F NOT PUSH1 0x1F DUP3 ADD AND DUP3 ADD DUP1 PUSH1 0x40 MSTORE POP DUP2 ADD SWAP1 PUSH2 0x3E9E SWAP2 SWAP1 PUSH2 0x5E03 JUMP JUMPDEST DUP5 PUSH20 0xFFFFFFFFFFFFFFFFFFFFFFFFFFFFFFFFFFFFFFFF AND PUSH4 0xD21220A7 PUSH1 0x40 MLOAD DUP2 PUSH4 0xFFFFFFFF AND PUSH1 0xE0 SHL DUP2 MSTORE PUSH1 0x4 ADD PUSH1 0x20 PUSH1 0x40 MLOAD DUP1 DUP4 SUB DUP2 DUP7 GAS STATICCALL ISZERO DUP1 ISZERO PUSH2 0x3EE9 JUMPI RETURNDATASIZE PUSH1 0x0 DUP1 RETURNDATACOPY RETURNDATASIZE PUSH1 0x0 REVERT JUMPDEST POP POP POP POP PUSH1 0x40 MLOAD RETURNDATASIZE PUSH1 0x1F NOT PUSH1 0x1F DUP3 ADD AND DUP3 ADD DUP1 PUSH1 0x40 MSTORE POP DUP2 ADD SWAP1 PUSH2 0x3F0D SWAP2 SWAP1 PUSH2 0x5E03 JUMP JUMPDEST PUSH1 0x40 MLOAD DUP4 PUSH4 0xFFFFFFFF AND PUSH1 0xE0 SHL DUP2 MSTORE PUSH1 0x4 ADD PUSH2 0x3F2A SWAP3 SWAP2 SWAP1 PUSH2 0x6038 JUMP JUMPDEST PUSH1 0x20 PUSH1 0x40 MLOAD DUP1 DUP4 SUB DUP2 DUP7 GAS STATICCALL ISZERO DUP1 ISZERO PUSH2 0x3F47 JUMPI RETURNDATASIZE PUSH1 0x0 DUP1 RETURNDATACOPY RETURNDATASIZE PUSH1 0x0 REVERT JUMPDEST POP POP POP POP PUSH1 0x40 MLOAD RETURNDATASIZE PUSH1 0x1F NOT PUSH1 0x1F DUP3 ADD AND DUP3 ADD DUP1 PUSH1 0x40 MSTORE POP DUP2 ADD SWAP1 PUSH2 0x3F6B SWAP2 SWAP1 PUSH2 0x5E03 JUMP JUMPDEST SWAP1 POP DUP5 PUSH20 0xFFFFFFFFFFFFFFFFFFFFFFFFFFFFFFFFFFFFFFFF AND DUP2 PUSH20 0xFFFFFFFFFFFFFFFFFFFFFFFFFFFFFFFFFFFFFFFF AND EQ SWAP3 POP POP POP SWAP3 SWAP2 POP POP JUMP JUMPDEST PUSH1 0x0 PUSH3 0xF4240 PUSH1 0x0 DUP1 SLOAD SWAP1 POP PUSH2 0x3FBC SWAP2 SWAP1 PUSH2 0x5291 JUMP JUMPDEST SWAP1 POP PUSH1 0x0 PUSH1 0x40 MLOAD DUP1 PUSH2 0x160 ADD PUSH1 0x40 MSTORE DUP1 DUP4 DUP2 MSTORE PUSH1 0x20 ADD DUP11 PUSH20 0xFFFFFFFFFFFFFFFFFFFFFFFFFFFFFFFFFFFFFFFF AND DUP2 MSTORE PUSH1 0x20 ADD DUP12 PUSH20 0xFFFFFFFFFFFFFFFFFFFFFFFFFFFFFFFFFFFFFFFF AND DUP2 MSTORE PUSH1 0x20 ADD DUP10 DUP2 MSTORE PUSH1 0x20 ADD TIMESTAMP DUP2 MSTORE PUSH1 0x20 ADD DUP9 DUP2 MSTORE PUSH1 0x20 ADD DUP8 DUP2 MSTORE PUSH1 0x20 ADD DUP7 DUP2 MSTORE PUSH1 0x20 ADD DUP6 DUP2 MSTORE PUSH1 0x20 ADD PUSH1 0x0 DUP2 MSTORE PUSH1 0x20 ADD DUP5 DUP2 MSTORE POP SWAP1 POP PUSH1 0x0 DUP2 SWAP1 DUP1 PUSH1 0x1 DUP2 SLOAD ADD DUP1 DUP3 SSTORE DUP1 SWAP2 POP POP PUSH1 0x1 SWAP1 SUB SWAP1 PUSH1 0x0 MSTORE PUSH1 0x20 PUSH1 0x0 KECCAK256 SWAP1 PUSH1 0xB MUL ADD PUSH1 0x0 SWAP1 SWAP2 SWAP1 SWAP2 SWAP1 SWAP2 POP PUSH1 0x0 DUP3 ADD MLOAD DUP2 PUSH1 0x0 ADD SSTORE PUSH1 0x20 DUP3 ADD MLOAD DUP2 PUSH1 0x1 ADD PUSH1 0x0 PUSH2 0x100 EXP DUP2 SLOAD DUP2 PUSH20 0xFFFFFFFFFFFFFFFFFFFFFFFFFFFFFFFFFFFFFFFF MUL NOT AND SWAP1 DUP4 PUSH20 0xFFFFFFFFFFFFFFFFFFFFFFFFFFFFFFFFFFFFFFFF AND MUL OR SWAP1 SSTORE POP PUSH1 0x40 DUP3 ADD MLOAD DUP2 PUSH1 0x2 ADD PUSH1 0x0 PUSH2 0x100 EXP DUP2 SLOAD DUP2 PUSH20 0xFFFFFFFFFFFFFFFFFFFFFFFFFFFFFFFFFFFFFFFF MUL NOT AND SWAP1 DUP4 PUSH20 0xFFFFFFFFFFFFFFFFFFFFFFFFFFFFFFFFFFFFFFFF AND MUL OR SWAP1 SSTORE POP PUSH1 0x60 DUP3 ADD MLOAD DUP2 PUSH1 0x3 ADD SSTORE PUSH1 0x80 DUP3 ADD MLOAD DUP2 PUSH1 0x4 ADD SSTORE PUSH1 0xA0 DUP3 ADD MLOAD DUP2 PUSH1 0x5 ADD SSTORE PUSH1 0xC0 DUP3 ADD MLOAD DUP2 PUSH1 0x6 ADD SSTORE PUSH1 0xE0 DUP3 ADD MLOAD DUP2 PUSH1 0x7 ADD SSTORE PUSH2 0x100 DUP3 ADD MLOAD DUP2 PUSH1 0x8 ADD SSTORE PUSH2 0x120 DUP3 ADD MLOAD DUP2 PUSH1 0x9 ADD SSTORE PUSH2 0x140 DUP3 ADD MLOAD DUP2 PUSH1 0xA ADD SWAP1 DUP2 PUSH2 0x415D SWAP2 SWAP1 PUSH2 0x5A1A JUMP JUMPDEST POP POP POP POP SWAP9 SWAP8 POP POP POP POP POP POP POP POP JUMP JUMPDEST PUSH1 0x0 PUSH2 0x4195 DUP4 PUSH1 0x0 ADD DUP4 PUSH20 0xFFFFFFFFFFFFFFFFFFFFFFFFFFFFFFFFFFFFFFFF AND PUSH1 0x0 SHL PUSH2 0x3B85 JUMP JUMPDEST SWAP1 POP SWAP3 SWAP2 POP POP JUMP JUMPDEST PUSH1 0x0 PUSH2 0x41C8 DUP3 DUP5 PUSH20 0xFFFFFFFFFFFFFFFFFFFFFFFFFFFFFFFFFFFFFFFF AND PUSH2 0x4257 SWAP1 SWAP2 SWAP1 PUSH4 0xFFFFFFFF AND JUMP JUMPDEST SWAP1 POP PUSH1 0x0 DUP2 MLOAD EQ ISZERO DUP1 ISZERO PUSH2 0x41ED JUMPI POP DUP1 DUP1 PUSH1 0x20 ADD SWAP1 MLOAD DUP2 ADD SWAP1 PUSH2 0x41EB SWAP2 SWAP1 PUSH2 0x6076 JUMP JUMPDEST ISZERO JUMPDEST ISZERO PUSH2 0x422F JUMPI DUP3 PUSH1 0x40 MLOAD PUSH32 0x5274AFE700000000000000000000000000000000000000000000000000000000 DUP2 MSTORE PUSH1 0x4 ADD PUSH2 0x4226 SWAP2 SWAP1 PUSH2 0x5AEC JUMP JUMPDEST PUSH1 0x40 MLOAD DUP1 SWAP2 SUB SWAP1 REVERT JUMPDEST POP POP POP JUMP JUMPDEST PUSH1 0x0 DUP1 DUP4 PUSH1 0x1 ADD PUSH1 0x0 DUP5 DUP2 MSTORE PUSH1 0x20 ADD SWAP1 DUP2 MSTORE PUSH1 0x20 ADD PUSH1 0x0 KECCAK256 SLOAD EQ ISZERO SWAP1 POP SWAP3 SWAP2 POP POP JUMP JUMPDEST PUSH1 0x60 PUSH2 0x4265 DUP4 DUP4 PUSH1 0x0 PUSH2 0x426D JUMP JUMPDEST SWAP1 POP SWAP3 SWAP2 POP POP JUMP JUMPDEST PUSH1 0x60 DUP2 SELFBALANCE LT ISZERO PUSH2 0x42B4 JUMPI ADDRESS PUSH1 0x40 MLOAD PUSH32 0xCD78605900000000000000000000000000000000000000000000000000000000 DUP2 MSTORE PUSH1 0x4 ADD PUSH2 0x42AB SWAP2 SWAP1 PUSH2 0x5AEC JUMP JUMPDEST PUSH1 0x40 MLOAD DUP1 SWAP2 SUB SWAP1 REVERT JUMPDEST PUSH1 0x0 DUP1 DUP6 PUSH20 0xFFFFFFFFFFFFFFFFFFFFFFFFFFFFFFFFFFFFFFFF AND DUP5 DUP7 PUSH1 0x40 MLOAD PUSH2 0x42DD SWAP2 SWAP1 PUSH2 0x60EA JUMP JUMPDEST PUSH1 0x0 PUSH1 0x40 MLOAD DUP1 DUP4 SUB DUP2 DUP6 DUP8 GAS CALL SWAP3 POP POP POP RETURNDATASIZE DUP1 PUSH1 0x0 DUP2 EQ PUSH2 0x431A JUMPI PUSH1 0x40 MLOAD SWAP2 POP PUSH1 0x1F NOT PUSH1 0x3F RETURNDATASIZE ADD AND DUP3 ADD PUSH1 0x40 MSTORE RETURNDATASIZE DUP3 MSTORE RETURNDATASIZE PUSH1 0x0 PUSH1 0x20 DUP5 ADD RETURNDATACOPY PUSH2 0x431F JUMP JUMPDEST PUSH1 0x60 SWAP2 POP JUMPDEST POP SWAP2 POP SWAP2 POP PUSH2 0x432F DUP7 DUP4 DUP4 PUSH2 0x433A JUMP JUMPDEST SWAP3 POP POP POP SWAP4 SWAP3 POP POP POP JUMP JUMPDEST PUSH1 0x60 DUP3 PUSH2 0x434F JUMPI PUSH2 0x434A DUP3 PUSH2 0x43C9 JUMP JUMPDEST PUSH2 0x43C1 JUMP JUMPDEST PUSH1 0x0 DUP3 MLOAD EQ DUP1 ISZERO PUSH2 0x4377 JUMPI POP PUSH1 0x0 DUP5 PUSH20 0xFFFFFFFFFFFFFFFFFFFFFFFFFFFFFFFFFFFFFFFF AND EXTCODESIZE EQ JUMPDEST ISZERO PUSH2 0x43B9 JUMPI DUP4 PUSH1 0x40 MLOAD PUSH32 0x9996B31500000000000000000000000000000000000000000000000000000000 DUP2 MSTORE PUSH1 0x4 ADD PUSH2 0x43B0 SWAP2 SWAP1 PUSH2 0x5AEC JUMP JUMPDEST PUSH1 0x40 MLOAD DUP1 SWAP2 SUB SWAP1 REVERT JUMPDEST DUP2 SWAP1 POP PUSH2 0x43C2 JUMP JUMPDEST JUMPDEST SWAP4 SWAP3 POP POP POP JUMP JUMPDEST PUSH1 0x0 DUP2 MLOAD GT ISZERO PUSH2 0x43DC JUMPI DUP1 MLOAD DUP1 DUP3 PUSH1 0x20 ADD REVERT JUMPDEST PUSH1 0x40 MLOAD PUSH32 0x1425EA4200000000000000000000000000000000000000000000000000000000 DUP2 MSTORE PUSH1 0x4 ADD PUSH1 0x40 MLOAD DUP1 SWAP2 SUB SWAP1 REVERT JUMPDEST PUSH1 0x40 MLOAD DUP1 PUSH2 0x160 ADD PUSH1 0x40 MSTORE DUP1 PUSH1 0x0 DUP2 MSTORE PUSH1 0x20 ADD PUSH1 0x0 PUSH20 0xFFFFFFFFFFFFFFFFFFFFFFFFFFFFFFFFFFFFFFFF AND DUP2 MSTORE PUSH1 0x20 ADD PUSH1 0x0 PUSH20 0xFFFFFFFFFFFFFFFFFFFFFFFFFFFFFFFFFFFFFFFF AND DUP2 MSTORE PUSH1 0x20 ADD PUSH1 0x0 DUP2 MSTORE PUSH1 0x20 ADD PUSH1 0x0 DUP2 MSTORE PUSH1 0x20 ADD PUSH1 0x0 DUP2 MSTORE PUSH1 0x20 ADD PUSH1 0x0 DUP2 MSTORE PUSH1 0x20 ADD PUSH1 0x0 DUP2 MSTORE PUSH1 0x20 ADD PUSH1 0x0 DUP2 MSTORE PUSH1 0x20 ADD PUSH1 0x0 DUP2 MSTORE PUSH1 0x20 ADD PUSH1 0x60 DUP2 MSTORE POP SWAP1 JUMP JUMPDEST PUSH1 0x40 MLOAD DUP1 PUSH1 0x60 ADD PUSH1 0x40 MSTORE DUP1 PUSH1 0x0 PUSH20 0xFFFFFFFFFFFFFFFFFFFFFFFFFFFFFFFFFFFFFFFF AND DUP2 MSTORE PUSH1 0x20 ADD PUSH1 0x0 PUSH20 0xFFFFFFFFFFFFFFFFFFFFFFFFFFFFFFFFFFFFFFFF AND DUP2 MSTORE PUSH1 0x20 ADD PUSH1 0x0 DUP2 MSTORE POP SWAP1 JUMP JUMPDEST PUSH1 0x0 PUSH1 0x40 MLOAD SWAP1 POP SWAP1 JUMP JUMPDEST PUSH1 0x0 DUP1 REVERT JUMPDEST PUSH1 0x0 DUP1 REVERT JUMPDEST PUSH1 0x0 PUSH20 0xFFFFFFFFFFFFFFFFFFFFFFFFFFFFFFFFFFFFFFFF DUP3 AND SWAP1 POP SWAP2 SWAP1 POP JUMP JUMPDEST PUSH1 0x0 PUSH2 0x4520 DUP3 PUSH2 0x44F5 JUMP JUMPDEST SWAP1 POP SWAP2 SWAP1 POP JUMP JUMPDEST PUSH2 0x4530 DUP2 PUSH2 0x4515 JUMP JUMPDEST DUP2 EQ PUSH2 0x453B JUMPI PUSH1 0x0 DUP1 REVERT JUMPDEST POP JUMP JUMPDEST PUSH1 0x0 DUP2 CALLDATALOAD SWAP1 POP PUSH2 0x454D DUP2 PUSH2 0x4527 JUMP JUMPDEST SWAP3 SWAP2 POP POP JUMP JUMPDEST PUSH1 0x0 DUP2 ISZERO ISZERO SWAP1 POP SWAP2 SWAP1 POP JUMP JUMPDEST PUSH2 0x4568 DUP2 PUSH2 0x4553 JUMP JUMPDEST DUP2 EQ PUSH2 0x4573 JUMPI PUSH1 0x0 DUP1 REVERT JUMPDEST POP JUMP JUMPDEST PUSH1 0x0 DUP2 CALLDATALOAD SWAP1 POP PUSH2 0x4585 DUP2 PUSH2 0x455F JUMP JUMPDEST SWAP3 SWAP2 POP POP JUMP JUMPDEST PUSH1 0x0 DUP2 SWAP1 POP SWAP2 SWAP1 POP JUMP JUMPDEST PUSH2 0x459E DUP2 PUSH2 0x458B JUMP JUMPDEST DUP2 EQ PUSH2 0x45A9 JUMPI PUSH1 0x0 DUP1 REVERT JUMPDEST POP JUMP JUMPDEST PUSH1 0x0 DUP2 CALLDATALOAD SWAP1 POP PUSH2 0x45BB DUP2 PUSH2 0x4595 JUMP JUMPDEST SWAP3 SWAP2 POP POP JUMP JUMPDEST PUSH1 0x0 DUP1 REVERT JUMPDEST PUSH1 0x0 DUP1 REVERT JUMPDEST PUSH1 0x0 PUSH1 0x1F NOT PUSH1 0x1F DUP4 ADD AND SWAP1 POP SWAP2 SWAP1 POP JUMP JUMPDEST PUSH32 0x4E487B7100000000000000000000000000000000000000000000000000000000 PUSH1 0x0 MSTORE PUSH1 0x41 PUSH1 0x4 MSTORE PUSH1 0x24 PUSH1 0x0 REVERT JUMPDEST PUSH2 0x4614 DUP3 PUSH2 0x45CB JUMP JUMPDEST DUP2 ADD DUP2 DUP2 LT PUSH8 0xFFFFFFFFFFFFFFFF DUP3 GT OR ISZERO PUSH2 0x4633 JUMPI PUSH2 0x4632 PUSH2 0x45DC JUMP JUMPDEST JUMPDEST DUP1 PUSH1 0x40 MSTORE POP POP POP JUMP JUMPDEST PUSH1 0x0 PUSH2 0x4646 PUSH2 0x44E1 JUMP JUMPDEST SWAP1 POP PUSH2 0x4652 DUP3 DUP3 PUSH2 0x460B JUMP JUMPDEST SWAP2 SWAP1 POP JUMP JUMPDEST PUSH1 0x0 PUSH8 0xFFFFFFFFFFFFFFFF DUP3 GT ISZERO PUSH2 0x4672 JUMPI PUSH2 0x4671 PUSH2 0x45DC JUMP JUMPDEST JUMPDEST PUSH2 0x467B DUP3 PUSH2 0x45CB JUMP JUMPDEST SWAP1 POP PUSH1 0x20 DUP2 ADD SWAP1 POP SWAP2 SWAP1 POP JUMP JUMPDEST DUP3 DUP2 DUP4 CALLDATACOPY PUSH1 0x0 DUP4 DUP4 ADD MSTORE POP POP POP JUMP JUMPDEST PUSH1 0x0 PUSH2 0x46AA PUSH2 0x46A5 DUP5 PUSH2 0x4657 JUMP JUMPDEST PUSH2 0x463C JUMP JUMPDEST SWAP1 POP DUP3 DUP2 MSTORE PUSH1 0x20 DUP2 ADD DUP5 DUP5 DUP5 ADD GT ISZERO PUSH2 0x46C6 JUMPI PUSH2 0x46C5 PUSH2 0x45C6 JUMP JUMPDEST JUMPDEST PUSH2 0x46D1 DUP5 DUP3 DUP6 PUSH2 0x4688 JUMP JUMPDEST POP SWAP4 SWAP3 POP POP POP JUMP JUMPDEST PUSH1 0x0 DUP3 PUSH1 0x1F DUP4 ADD SLT PUSH2 0x46EE JUMPI PUSH2 0x46ED PUSH2 0x45C1 JUMP JUMPDEST JUMPDEST DUP2 CALLDATALOAD PUSH2 0x46FE DUP5 DUP3 PUSH1 0x20 DUP7 ADD PUSH2 0x4697 JUMP JUMPDEST SWAP2 POP POP SWAP3 SWAP2 POP POP JUMP JUMPDEST PUSH1 0x0 DUP1 PUSH1 0x0 DUP1 PUSH1 0x0 DUP1 PUSH1 0xC0 DUP8 DUP10 SUB SLT ISZERO PUSH2 0x4724 JUMPI PUSH2 0x4723 PUSH2 0x44EB JUMP JUMPDEST JUMPDEST PUSH1 0x0 PUSH2 0x4732 DUP10 DUP3 DUP11 ADD PUSH2 0x453E JUMP JUMPDEST SWAP7 POP POP PUSH1 0x20 PUSH2 0x4743 DUP10 DUP3 DUP11 ADD PUSH2 0x453E JUMP JUMPDEST SWAP6 POP POP PUSH1 0x40 PUSH2 0x4754 DUP10 DUP3 DUP11 ADD PUSH2 0x4576 JUMP JUMPDEST SWAP5 POP POP PUSH1 0x60 PUSH2 0x4765 DUP10 DUP3 DUP11 ADD PUSH2 0x45AC JUMP JUMPDEST SWAP4 POP POP PUSH1 0x80 PUSH2 0x4776 DUP10 DUP3 DUP11 ADD PUSH2 0x45AC JUMP JUMPDEST SWAP3 POP POP PUSH1 0xA0 DUP8 ADD CALLDATALOAD PUSH8 0xFFFFFFFFFFFFFFFF DUP2 GT ISZERO PUSH2 0x4797 JUMPI PUSH2 0x4796 PUSH2 0x44F0 JUMP JUMPDEST JUMPDEST PUSH2 0x47A3 DUP10 DUP3 DUP11 ADD PUSH2 0x46D9 JUMP JUMPDEST SWAP2 POP POP SWAP3 SWAP6 POP SWAP3 SWAP6 POP SWAP3 SWAP6 JUMP JUMPDEST PUSH2 0x47B9 DUP2 PUSH2 0x458B JUMP JUMPDEST DUP3 MSTORE POP POP JUMP JUMPDEST PUSH1 0x0 PUSH1 0x20 DUP3 ADD SWAP1 POP PUSH2 0x47D4 PUSH1 0x0 DUP4 ADD DUP5 PUSH2 0x47B0 JUMP JUMPDEST SWAP3 SWAP2 POP POP JUMP JUMPDEST PUSH1 0x0 PUSH1 0x20 DUP3 DUP5 SUB SLT ISZERO PUSH2 0x47F0 JUMPI PUSH2 0x47EF PUSH2 0x44EB JUMP JUMPDEST JUMPDEST PUSH1 0x0 PUSH2 0x47FE DUP5 DUP3 DUP6 ADD PUSH2 0x453E JUMP JUMPDEST SWAP2 POP POP SWAP3 SWAP2 POP POP JUMP JUMPDEST PUSH1 0x0 PUSH1 0x20 DUP3 DUP5 SUB SLT ISZERO PUSH2 0x481D JUMPI PUSH2 0x481C PUSH2 0x44EB JUMP JUMPDEST JUMPDEST PUSH1 0x0 PUSH2 0x482B DUP5 DUP3 DUP6 ADD PUSH2 0x45AC JUMP JUMPDEST SWAP2 POP POP SWAP3 SWAP2 POP POP JUMP JUMPDEST PUSH2 0x483D DUP2 PUSH2 0x458B JUMP JUMPDEST DUP3 MSTORE POP POP JUMP JUMPDEST PUSH2 0x484C DUP2 PUSH2 0x4515 JUMP JUMPDEST DUP3 MSTORE POP POP JUMP JUMPDEST PUSH1 0x0 DUP2 MLOAD SWAP1 POP SWAP2 SWAP1 POP JUMP JUMPDEST PUSH1 0x0 DUP3 DUP3 MSTORE PUSH1 0x20 DUP3 ADD SWAP1 POP SWAP3 SWAP2 POP POP JUMP JUMPDEST PUSH1 0x0 JUMPDEST DUP4 DUP2 LT ISZERO PUSH2 0x488C JUMPI DUP1 DUP3 ADD MLOAD DUP2 DUP5 ADD MSTORE PUSH1 0x20 DUP2 ADD SWAP1 POP PUSH2 0x4871 JUMP JUMPDEST PUSH1 0x0 DUP5 DUP5 ADD MSTORE POP POP POP POP JUMP JUMPDEST PUSH1 0x0 PUSH2 0x48A3 DUP3 PUSH2 0x4852 JUMP JUMPDEST PUSH2 0x48AD DUP2 DUP6 PUSH2 0x485D JUMP JUMPDEST SWAP4 POP PUSH2 0x48BD DUP2 DUP6 PUSH1 0x20 DUP7 ADD PUSH2 0x486E JUMP JUMPDEST PUSH2 0x48C6 DUP2 PUSH2 0x45CB JUMP JUMPDEST DUP5 ADD SWAP2 POP POP SWAP3 SWAP2 POP POP JUMP JUMPDEST PUSH1 0x0 PUSH2 0x160 DUP4 ADD PUSH1 0x0 DUP4 ADD MLOAD PUSH2 0x48EA PUSH1 0x0 DUP7 ADD DUP3 PUSH2 0x4834 JUMP JUMPDEST POP PUSH1 0x20 DUP4 ADD MLOAD PUSH2 0x48FD PUSH1 0x20 DUP7 ADD DUP3 PUSH2 0x4843 JUMP JUMPDEST POP PUSH1 0x40 DUP4 ADD MLOAD PUSH2 0x4910 PUSH1 0x40 DUP7 ADD DUP3 PUSH2 0x4843 JUMP JUMPDEST POP PUSH1 0x60 DUP4 ADD MLOAD PUSH2 0x4923 PUSH1 0x60 DUP7 ADD DUP3 PUSH2 0x4834 JUMP JUMPDEST POP PUSH1 0x80 DUP4 ADD MLOAD PUSH2 0x4936 PUSH1 0x80 DUP7 ADD DUP3 PUSH2 0x4834 JUMP JUMPDEST POP PUSH1 0xA0 DUP4 ADD MLOAD PUSH2 0x4949 PUSH1 0xA0 DUP7 ADD DUP3 PUSH2 0x4834 JUMP JUMPDEST POP PUSH1 0xC0 DUP4 ADD MLOAD PUSH2 0x495C PUSH1 0xC0 DUP7 ADD DUP3 PUSH2 0x4834 JUMP JUMPDEST POP PUSH1 0xE0 DUP4 ADD MLOAD PUSH2 0x496F PUSH1 0xE0 DUP7 ADD DUP3 PUSH2 0x4834 JUMP JUMPDEST POP PUSH2 0x100 DUP4 ADD MLOAD PUSH2 0x4984 PUSH2 0x100 DUP7 ADD DUP3 PUSH2 0x4834 JUMP JUMPDEST POP PUSH2 0x120 DUP4 ADD MLOAD PUSH2 0x4999 PUSH2 0x120 DUP7 ADD DUP3 PUSH2 0x4834 JUMP JUMPDEST POP PUSH2 0x140 DUP4 ADD MLOAD DUP5 DUP3 SUB PUSH2 0x140 DUP7 ADD MSTORE PUSH2 0x49B3 DUP3 DUP3 PUSH2 0x4898 JUMP JUMPDEST SWAP2 POP POP DUP1 SWAP2 POP POP SWAP3 SWAP2 POP POP JUMP JUMPDEST PUSH1 0x0 PUSH1 0x20 DUP3 ADD SWAP1 POP DUP2 DUP2 SUB PUSH1 0x0 DUP4 ADD MSTORE PUSH2 0x49DA DUP2 DUP5 PUSH2 0x48D1 JUMP JUMPDEST SWAP1 POP SWAP3 SWAP2 POP POP JUMP JUMPDEST PUSH1 0x0 DUP1 PUSH1 0x0 PUSH1 0x60 DUP5 DUP7 SUB SLT ISZERO PUSH2 0x49FB JUMPI PUSH2 0x49FA PUSH2 0x44EB JUMP JUMPDEST JUMPDEST PUSH1 0x0 PUSH2 0x4A09 DUP7 DUP3 DUP8 ADD PUSH2 0x453E JUMP JUMPDEST SWAP4 POP POP PUSH1 0x20 PUSH2 0x4A1A DUP7 DUP3 DUP8 ADD PUSH2 0x45AC JUMP JUMPDEST SWAP3 POP POP PUSH1 0x40 PUSH2 0x4A2B DUP7 DUP3 DUP8 ADD PUSH2 0x45AC JUMP JUMPDEST SWAP2 POP POP SWAP3 POP SWAP3 POP SWAP3 JUMP JUMPDEST PUSH1 0x0 DUP2 MLOAD SWAP1 POP SWAP2 SWAP1 POP JUMP JUMPDEST PUSH1 0x0 DUP3 DUP3 MSTORE PUSH1 0x20 DUP3 ADD SWAP1 POP SWAP3 SWAP2 POP POP JUMP JUMPDEST PUSH1 0x0 DUP2 SWAP1 POP PUSH1 0x20 DUP3 ADD SWAP1 POP SWAP2 SWAP1 POP JUMP JUMPDEST PUSH1 0x0 PUSH2 0x160 DUP4 ADD PUSH1 0x0 DUP4 ADD MLOAD PUSH2 0x4A7A PUSH1 0x0 DUP7 ADD DUP3 PUSH2 0x4834 JUMP JUMPDEST POP PUSH1 0x20 DUP4 ADD MLOAD PUSH2 0x4A8D PUSH1 0x20 DUP7 ADD DUP3 PUSH2 0x4843 JUMP JUMPDEST POP PUSH1 0x40 DUP4 ADD MLOAD PUSH2 0x4AA0 PUSH1 0x40 DUP7 ADD DUP3 PUSH2 0x4843 JUMP JUMPDEST POP PUSH1 0x60 DUP4 ADD MLOAD PUSH2 0x4AB3 PUSH1 0x60 DUP7 ADD DUP3 PUSH2 0x4834 JUMP JUMPDEST POP PUSH1 0x80 DUP4 ADD MLOAD PUSH2 0x4AC6 PUSH1 0x80 DUP7 ADD DUP3 PUSH2 0x4834 JUMP JUMPDEST POP PUSH1 0xA0 DUP4 ADD MLOAD PUSH2 0x4AD9 PUSH1 0xA0 DUP7 ADD DUP3 PUSH2 0x4834 JUMP JUMPDEST POP PUSH1 0xC0 DUP4 ADD MLOAD PUSH2 0x4AEC PUSH1 0xC0 DUP7 ADD DUP3 PUSH2 0x4834 JUMP JUMPDEST POP PUSH1 0xE0 DUP4 ADD MLOAD PUSH2 0x4AFF PUSH1 0xE0 DUP7 ADD DUP3 PUSH2 0x4834 JUMP JUMPDEST POP PUSH2 0x100 DUP4 ADD MLOAD PUSH2 0x4B14 PUSH2 0x100 DUP7 ADD DUP3 PUSH2 0x4834 JUMP JUMPDEST POP PUSH2 0x120 DUP4 ADD MLOAD PUSH2 0x4B29 PUSH2 0x120 DUP7 ADD DUP3 PUSH2 0x4834 JUMP JUMPDEST POP PUSH2 0x140 DUP4 ADD MLOAD DUP5 DUP3 SUB PUSH2 0x140 DUP7 ADD MSTORE PUSH2 0x4B43 DUP3 DUP3 PUSH2 0x4898 JUMP JUMPDEST SWAP2 POP POP DUP1 SWAP2 POP POP SWAP3 SWAP2 POP POP JUMP JUMPDEST PUSH1 0x0 PUSH2 0x4B5C DUP4 DUP4 PUSH2 0x4A61 JUMP JUMPDEST SWAP1 POP SWAP3 SWAP2 POP POP JUMP JUMPDEST PUSH1 0x0 PUSH1 0x20 DUP3 ADD SWAP1 POP SWAP2 SWAP1 POP JUMP JUMPDEST PUSH1 0x0 PUSH2 0x4B7C DUP3 PUSH2 0x4A35 JUMP JUMPDEST PUSH2 0x4B86 DUP2 DUP6 PUSH2 0x4A40 JUMP JUMPDEST SWAP4 POP DUP4 PUSH1 0x20 DUP3 MUL DUP6 ADD PUSH2 0x4B98 DUP6 PUSH2 0x4A51 JUMP JUMPDEST DUP1 PUSH1 0x0 JUMPDEST DUP6 DUP2 LT ISZERO PUSH2 0x4BD4 JUMPI DUP5 DUP5 SUB DUP10 MSTORE DUP2 MLOAD PUSH2 0x4BB5 DUP6 DUP3 PUSH2 0x4B50 JUMP JUMPDEST SWAP5 POP PUSH2 0x4BC0 DUP4 PUSH2 0x4B64 JUMP JUMPDEST SWAP3 POP PUSH1 0x20 DUP11 ADD SWAP10 POP POP PUSH1 0x1 DUP2 ADD SWAP1 POP PUSH2 0x4B9C JUMP JUMPDEST POP DUP3 SWAP8 POP DUP8 SWAP6 POP POP POP POP POP POP SWAP3 SWAP2 POP POP JUMP JUMPDEST PUSH1 0x0 PUSH1 0x20 DUP3 ADD SWAP1 POP DUP2 DUP2 SUB PUSH1 0x0 DUP4 ADD MSTORE PUSH2 0x4C00 DUP2 DUP5 PUSH2 0x4B71 JUMP JUMPDEST SWAP1 POP SWAP3 SWAP2 POP POP JUMP JUMPDEST PUSH1 0x0 DUP1 PUSH1 0x40 DUP4 DUP6 SUB SLT ISZERO PUSH2 0x4C1F JUMPI PUSH2 0x4C1E PUSH2 0x44EB JUMP JUMPDEST JUMPDEST PUSH1 0x0 PUSH2 0x4C2D DUP6 DUP3 DUP7 ADD PUSH2 0x45AC JUMP JUMPDEST SWAP3 POP POP PUSH1 0x20 PUSH2 0x4C3E DUP6 DUP3 DUP7 ADD PUSH2 0x453E JUMP JUMPDEST SWAP2 POP POP SWAP3 POP SWAP3 SWAP1 POP JUMP JUMPDEST PUSH1 0x0 DUP1 PUSH1 0x40 DUP4 DUP6 SUB SLT ISZERO PUSH2 0x4C5F JUMPI PUSH2 0x4C5E PUSH2 0x44EB JUMP JUMPDEST JUMPDEST PUSH1 0x0 PUSH2 0x4C6D DUP6 DUP3 DUP7 ADD PUSH2 0x453E JUMP JUMPDEST SWAP3 POP POP PUSH1 0x20 PUSH2 0x4C7E DUP6 DUP3 DUP7 ADD PUSH2 0x45AC JUMP JUMPDEST SWAP2 POP POP SWAP3 POP SWAP3 SWAP1 POP JUMP JUMPDEST PUSH1 0x0 DUP1 PUSH1 0x40 DUP4 DUP6 SUB SLT ISZERO PUSH2 0x4C9F JUMPI PUSH2 0x4C9E PUSH2 0x44EB JUMP JUMPDEST JUMPDEST PUSH1 0x0 PUSH2 0x4CAD DUP6 DUP3 DUP7 ADD PUSH2 0x45AC JUMP JUMPDEST SWAP3 POP POP PUSH1 0x20 PUSH2 0x4CBE DUP6 DUP3 DUP7 ADD PUSH2 0x45AC JUMP JUMPDEST SWAP2 POP POP SWAP3 POP SWAP3 SWAP1 POP JUMP JUMPDEST PUSH1 0x0 DUP2 MLOAD SWAP1 POP SWAP2 SWAP1 POP JUMP JUMPDEST PUSH1 0x0 DUP3 DUP3 MSTORE PUSH1 0x20 DUP3 ADD SWAP1 POP SWAP3 SWAP2 POP POP JUMP JUMPDEST PUSH1 0x0 DUP2 SWAP1 POP PUSH1 0x20 DUP3 ADD SWAP1 POP SWAP2 SWAP1 POP JUMP JUMPDEST PUSH1 0x60 DUP3 ADD PUSH1 0x0 DUP3 ADD MLOAD PUSH2 0x4D0A PUSH1 0x0 DUP6 ADD DUP3 PUSH2 0x4843 JUMP JUMPDEST POP PUSH1 0x20 DUP3 ADD MLOAD PUSH2 0x4D1D PUSH1 0x20 DUP6 ADD DUP3 PUSH2 0x4843 JUMP JUMPDEST POP PUSH1 0x40 DUP3 ADD MLOAD PUSH2 0x4D30 PUSH1 0x40 DUP6 ADD DUP3 PUSH2 0x4834 JUMP JUMPDEST POP POP POP POP JUMP JUMPDEST PUSH1 0x0 PUSH2 0x4D42 DUP4 DUP4 PUSH2 0x4CF4 JUMP JUMPDEST PUSH1 0x60 DUP4 ADD SWAP1 POP SWAP3 SWAP2 POP POP JUMP JUMPDEST PUSH1 0x0 PUSH1 0x20 DUP3 ADD SWAP1 POP SWAP2 SWAP1 POP JUMP JUMPDEST PUSH1 0x0 PUSH2 0x4D66 DUP3 PUSH2 0x4CC8 JUMP JUMPDEST PUSH2 0x4D70 DUP2 DUP6 PUSH2 0x4CD3 JUMP JUMPDEST SWAP4 POP PUSH2 0x4D7B DUP4 PUSH2 0x4CE4 JUMP JUMPDEST DUP1 PUSH1 0x0 JUMPDEST DUP4 DUP2 LT ISZERO PUSH2 0x4DAC JUMPI DUP2 MLOAD PUSH2 0x4D93 DUP9 DUP3 PUSH2 0x4D36 JUMP JUMPDEST SWAP8 POP PUSH2 0x4D9E DUP4 PUSH2 0x4D4E JUMP JUMPDEST SWAP3 POP POP PUSH1 0x1 DUP2 ADD SWAP1 POP PUSH2 0x4D7F JUMP JUMPDEST POP DUP6 SWAP4 POP POP POP POP SWAP3 SWAP2 POP POP JUMP JUMPDEST PUSH1 0x0 PUSH1 0x20 DUP3 ADD SWAP1 POP DUP2 DUP2 SUB PUSH1 0x0 DUP4 ADD MSTORE PUSH2 0x4DD3 DUP2 DUP5 PUSH2 0x4D5B JUMP JUMPDEST SWAP1 POP SWAP3 SWAP2 POP POP JUMP JUMPDEST PUSH1 0x60 DUP3 ADD PUSH1 0x0 DUP3 ADD MLOAD PUSH2 0x4DF1 PUSH1 0x0 DUP6 ADD DUP3 PUSH2 0x4843 JUMP JUMPDEST POP PUSH1 0x20 DUP3 ADD MLOAD PUSH2 0x4E04 PUSH1 0x20 DUP6 ADD DUP3 PUSH2 0x4843 JUMP JUMPDEST POP PUSH1 0x40 DUP3 ADD MLOAD PUSH2 0x4E17 PUSH1 0x40 DUP6 ADD DUP3 PUSH2 0x4834 JUMP JUMPDEST POP POP POP POP JUMP JUMPDEST PUSH1 0x0 PUSH1 0x60 DUP3 ADD SWAP1 POP PUSH2 0x4E32 PUSH1 0x0 DUP4 ADD DUP5 PUSH2 0x4DDB JUMP JUMPDEST SWAP3 SWAP2 POP POP JUMP JUMPDEST PUSH1 0x0 DUP1 PUSH1 0x0 PUSH1 0x60 DUP5 DUP7 SUB SLT ISZERO PUSH2 0x4E51 JUMPI PUSH2 0x4E50 PUSH2 0x44EB JUMP JUMPDEST JUMPDEST PUSH1 0x0 PUSH2 0x4E5F DUP7 DUP3 DUP8 ADD PUSH2 0x45AC JUMP JUMPDEST SWAP4 POP POP PUSH1 0x20 PUSH2 0x4E70 DUP7 DUP3 DUP8 ADD PUSH2 0x45AC JUMP JUMPDEST SWAP3 POP POP PUSH1 0x40 PUSH2 0x4E81 DUP7 DUP3 DUP8 ADD PUSH2 0x45AC JUMP JUMPDEST SWAP2 POP POP SWAP3 POP SWAP3 POP SWAP3 JUMP JUMPDEST PUSH1 0x0 DUP1 PUSH1 0x0 DUP1 PUSH1 0x0 DUP1 PUSH1 0x0 DUP1 PUSH1 0x0 PUSH2 0x120 DUP11 DUP13 SUB SLT ISZERO PUSH2 0x4EAE JUMPI PUSH2 0x4EAD PUSH2 0x44EB JUMP JUMPDEST JUMPDEST PUSH1 0x0 PUSH2 0x4EBC DUP13 DUP3 DUP14 ADD PUSH2 0x453E JUMP JUMPDEST SWAP10 POP POP PUSH1 0x20 PUSH2 0x4ECD DUP13 DUP3 DUP14 ADD PUSH2 0x453E JUMP JUMPDEST SWAP9 POP POP PUSH1 0x40 PUSH2 0x4EDE DUP13 DUP3 DUP14 ADD PUSH2 0x4576 JUMP JUMPDEST SWAP8 POP POP PUSH1 0x60 PUSH2 0x4EEF DUP13 DUP3 DUP14 ADD PUSH2 0x45AC JUMP JUMPDEST SWAP7 POP POP PUSH1 0x80 PUSH2 0x4F00 DUP13 DUP3 DUP14 ADD PUSH2 0x45AC JUMP JUMPDEST SWAP6 POP POP PUSH1 0xA0 PUSH2 0x4F11 DUP13 DUP3 DUP14 ADD PUSH2 0x45AC JUMP JUMPDEST SWAP5 POP POP PUSH1 0xC0 PUSH2 0x4F22 DUP13 DUP3 DUP14 ADD PUSH2 0x45AC JUMP JUMPDEST SWAP4 POP POP PUSH1 0xE0 PUSH2 0x4F33 DUP13 DUP3 DUP14 ADD PUSH2 0x45AC JUMP JUMPDEST SWAP3 POP POP PUSH2 0x100 DUP11 ADD CALLDATALOAD PUSH8 0xFFFFFFFFFFFFFFFF DUP2 GT ISZERO PUSH2 0x4F55 JUMPI PUSH2 0x4F54 PUSH2 0x44F0 JUMP JUMPDEST JUMPDEST PUSH2 0x4F61 DUP13 DUP3 DUP14 ADD PUSH2 0x46D9 JUMP JUMPDEST SWAP2 POP POP SWAP3 SWAP6 SWAP9 POP SWAP3 SWAP6 SWAP9 POP SWAP3 SWAP6 SWAP9 JUMP JUMPDEST PUSH1 0x0 DUP1 PUSH1 0x40 DUP4 DUP6 SUB SLT ISZERO PUSH2 0x4F88 JUMPI PUSH2 0x4F87 PUSH2 0x44EB JUMP JUMPDEST JUMPDEST PUSH1 0x0 PUSH2 0x4F96 DUP6 DUP3 DUP7 ADD PUSH2 0x45AC JUMP JUMPDEST SWAP3 POP POP PUSH1 0x20 DUP4 ADD CALLDATALOAD PUSH8 0xFFFFFFFFFFFFFFFF DUP2 GT ISZERO PUSH2 0x4FB7 JUMPI PUSH2 0x4FB6 PUSH2 0x44F0 JUMP JUMPDEST JUMPDEST PUSH2 0x4FC3 DUP6 DUP3 DUP7 ADD PUSH2 0x46D9 JUMP JUMPDEST SWAP2 POP POP SWAP3 POP SWAP3 SWAP1 POP JUMP JUMPDEST PUSH2 0x4FD6 DUP2 PUSH2 0x4515 JUMP JUMPDEST DUP3 MSTORE POP POP JUMP JUMPDEST PUSH1 0x0 PUSH1 0x60 DUP3 ADD SWAP1 POP PUSH2 0x4FF1 PUSH1 0x0 DUP4 ADD DUP7 PUSH2 0x4FCD JUMP JUMPDEST PUSH2 0x4FFE PUSH1 0x20 DUP4 ADD DUP6 PUSH2 0x4FCD JUMP JUMPDEST PUSH2 0x500B PUSH1 0x40 DUP4 ADD DUP5 PUSH2 0x47B0 JUMP JUMPDEST SWAP5 SWAP4 POP POP POP POP JUMP JUMPDEST PUSH1 0x0 DUP3 DUP3 MSTORE PUSH1 0x20 DUP3 ADD SWAP1 POP SWAP3 SWAP2 POP POP JUMP JUMPDEST PUSH32 0x496E76616C696420746F6B656E00000000000000000000000000000000000000 PUSH1 0x0 DUP3 ADD MSTORE POP JUMP JUMPDEST PUSH1 0x0 PUSH2 0x505A PUSH1 0xD DUP4 PUSH2 0x5013 JUMP JUMPDEST SWAP2 POP PUSH2 0x5065 DUP3 PUSH2 0x5024 JUMP JUMPDEST PUSH1 0x20 DUP3 ADD SWAP1 POP SWAP2 SWAP1 POP JUMP JUMPDEST PUSH1 0x0 PUSH1 0x20 DUP3 ADD SWAP1 POP DUP2 DUP2 SUB PUSH1 0x0 DUP4 ADD MSTORE PUSH2 0x5089 DUP2 PUSH2 0x504D JUMP JUMPDEST SWAP1 POP SWAP2 SWAP1 POP JUMP JUMPDEST PUSH32 0x416D6F756E742073686F756C642062652067726561746572207468616E203000 PUSH1 0x0 DUP3 ADD MSTORE POP JUMP JUMPDEST PUSH1 0x0 PUSH2 0x50C6 PUSH1 0x1F DUP4 PUSH2 0x5013 JUMP JUMPDEST SWAP2 POP PUSH2 0x50D1 DUP3 PUSH2 0x5090 JUMP JUMPDEST PUSH1 0x20 DUP3 ADD SWAP1 POP SWAP2 SWAP1 POP JUMP JUMPDEST PUSH1 0x0 PUSH1 0x20 DUP3 ADD SWAP1 POP DUP2 DUP2 SUB PUSH1 0x0 DUP4 ADD MSTORE PUSH2 0x50F5 DUP2 PUSH2 0x50B9 JUMP JUMPDEST SWAP1 POP SWAP2 SWAP1 POP JUMP JUMPDEST PUSH32 0x556E6C6F636B20646174652073686F756C6420626520696E2074686520667574 PUSH1 0x0 DUP3 ADD MSTORE PUSH32 0x7572650000000000000000000000000000000000000000000000000000000000 PUSH1 0x20 DUP3 ADD MSTORE POP JUMP JUMPDEST PUSH1 0x0 PUSH2 0x5158 PUSH1 0x23 DUP4 PUSH2 0x5013 JUMP JUMPDEST SWAP2 POP PUSH2 0x5163 DUP3 PUSH2 0x50FC JUMP JUMPDEST PUSH1 0x40 DUP3 ADD SWAP1 POP SWAP2 SWAP1 POP JUMP JUMPDEST PUSH1 0x0 PUSH1 0x20 DUP3 ADD SWAP1 POP DUP2 DUP2 SUB PUSH1 0x0 DUP4 ADD MSTORE PUSH2 0x5187 DUP2 PUSH2 0x514B JUMP JUMPDEST SWAP1 POP SWAP2 SWAP1 POP JUMP JUMPDEST PUSH1 0x0 PUSH1 0x80 DUP3 ADD SWAP1 POP PUSH2 0x51A3 PUSH1 0x0 DUP4 ADD DUP8 PUSH2 0x4FCD JUMP JUMPDEST PUSH2 0x51B0 PUSH1 0x20 DUP4 ADD DUP7 PUSH2 0x4FCD JUMP JUMPDEST PUSH2 0x51BD PUSH1 0x40 DUP4 ADD DUP6 PUSH2 0x47B0 JUMP JUMPDEST PUSH2 0x51CA PUSH1 0x60 DUP4 ADD DUP5 PUSH2 0x47B0 JUMP JUMPDEST SWAP6 SWAP5 POP POP POP POP POP JUMP JUMPDEST PUSH32 0x4E487B7100000000000000000000000000000000000000000000000000000000 PUSH1 0x0 MSTORE PUSH1 0x32 PUSH1 0x4 MSTORE PUSH1 0x24 PUSH1 0x0 REVERT JUMPDEST PUSH32 0x4E487B7100000000000000000000000000000000000000000000000000000000 PUSH1 0x0 MSTORE PUSH1 0x22 PUSH1 0x4 MSTORE PUSH1 0x24 PUSH1 0x0 REVERT JUMPDEST PUSH1 0x0 PUSH1 0x2 DUP3 DIV SWAP1 POP PUSH1 0x1 DUP3 AND DUP1 PUSH2 0x5249 JUMPI PUSH1 0x7F DUP3 AND SWAP2 POP JUMPDEST PUSH1 0x20 DUP3 LT DUP2 SUB PUSH2 0x525C JUMPI PUSH2 0x525B PUSH2 0x5202 JUMP JUMPDEST JUMPDEST POP SWAP2 SWAP1 POP JUMP JUMPDEST PUSH32 0x4E487B7100000000000000000000000000000000000000000000000000000000 PUSH1 0x0 MSTORE PUSH1 0x11 PUSH1 0x4 MSTORE PUSH1 0x24 PUSH1 0x0 REVERT JUMPDEST PUSH1 0x0 PUSH2 0x529C DUP3 PUSH2 0x458B JUMP JUMPDEST SWAP2 POP PUSH2 0x52A7 DUP4 PUSH2 0x458B JUMP JUMPDEST SWAP3 POP DUP3 DUP3 ADD SWAP1 POP DUP1 DUP3 GT ISZERO PUSH2 0x52BF JUMPI PUSH2 0x52BE PUSH2 0x5262 JUMP JUMPDEST JUMPDEST SWAP3 SWAP2 POP POP JUMP JUMPDEST PUSH1 0x0 PUSH2 0x52D0 DUP3 PUSH2 0x458B JUMP JUMPDEST SWAP2 POP PUSH2 0x52DB DUP4 PUSH2 0x458B JUMP JUMPDEST SWAP3 POP DUP3 DUP3 SUB SWAP1 POP DUP2 DUP2 GT ISZERO PUSH2 0x52F3 JUMPI PUSH2 0x52F2 PUSH2 0x5262 JUMP JUMPDEST JUMPDEST SWAP3 SWAP2 POP POP JUMP JUMPDEST PUSH1 0x0 PUSH2 0x5304 DUP3 PUSH2 0x458B JUMP JUMPDEST SWAP2 POP PUSH32 0xFFFFFFFFFFFFFFFFFFFFFFFFFFFFFFFFFFFFFFFFFFFFFFFFFFFFFFFFFFFFFFFF DUP3 SUB PUSH2 0x5336 JUMPI PUSH2 0x5335 PUSH2 0x5262 JUMP JUMPDEST JUMPDEST PUSH1 0x1 DUP3 ADD SWAP1 POP SWAP2 SWAP1 POP JUMP JUMPDEST PUSH32 0x596F7520617265206E6F7420746865206F776E6572206F662074686973206C6F PUSH1 0x0 DUP3 ADD MSTORE PUSH32 0x636B000000000000000000000000000000000000000000000000000000000000 PUSH1 0x20 DUP3 ADD MSTORE POP JUMP JUMPDEST PUSH1 0x0 PUSH2 0x539D PUSH1 0x22 DUP4 PUSH2 0x5013 JUMP JUMPDEST SWAP2 POP PUSH2 0x53A8 DUP3 PUSH2 0x5341 JUMP JUMPDEST PUSH1 0x40 DUP3 ADD SWAP1 POP SWAP2 SWAP1 POP JUMP JUMPDEST PUSH1 0x0 PUSH1 0x20 DUP3 ADD SWAP1 POP DUP2 DUP2 SUB PUSH1 0x0 DUP4 ADD MSTORE PUSH2 0x53CC DUP2 PUSH2 0x5390 JUMP JUMPDEST SWAP1 POP SWAP2 SWAP1 POP JUMP JUMPDEST PUSH1 0x0 PUSH1 0x60 DUP3 ADD SWAP1 POP PUSH2 0x53E8 PUSH1 0x0 DUP4 ADD DUP7 PUSH2 0x47B0 JUMP JUMPDEST PUSH2 0x53F5 PUSH1 0x20 DUP4 ADD DUP6 PUSH2 0x4FCD JUMP JUMPDEST PUSH2 0x5402 PUSH1 0x40 DUP4 ADD DUP5 PUSH2 0x4FCD JUMP JUMPDEST SWAP5 SWAP4 POP POP POP POP JUMP JUMPDEST PUSH32 0x496E76616C696420696E64657800000000000000000000000000000000000000 PUSH1 0x0 DUP3 ADD MSTORE POP JUMP JUMPDEST PUSH1 0x0 PUSH2 0x5440 PUSH1 0xD DUP4 PUSH2 0x5013 JUMP JUMPDEST SWAP2 POP PUSH2 0x544B DUP3 PUSH2 0x540A JUMP JUMPDEST PUSH1 0x20 DUP3 ADD SWAP1 POP SWAP2 SWAP1 POP JUMP JUMPDEST PUSH1 0x0 PUSH1 0x20 DUP3 ADD SWAP1 POP DUP2 DUP2 SUB PUSH1 0x0 DUP4 ADD MSTORE PUSH2 0x546F DUP2 PUSH2 0x5433 JUMP JUMPDEST SWAP1 POP SWAP2 SWAP1 POP JUMP JUMPDEST PUSH32 0x4C6F636B2077617320756E6C6F636B6564000000000000000000000000000000 PUSH1 0x0 DUP3 ADD MSTORE POP JUMP JUMPDEST PUSH1 0x0 PUSH2 0x54AC PUSH1 0x11 DUP4 PUSH2 0x5013 JUMP JUMPDEST SWAP2 POP PUSH2 0x54B7 DUP3 PUSH2 0x5476 JUMP JUMPDEST PUSH1 0x20 DUP3 ADD SWAP1 POP SWAP2 SWAP1 POP JUMP JUMPDEST PUSH1 0x0 PUSH1 0x20 DUP3 ADD SWAP1 POP DUP2 DUP2 SUB PUSH1 0x0 DUP4 ADD MSTORE PUSH2 0x54DB DUP2 PUSH2 0x549F JUMP JUMPDEST SWAP1 POP SWAP2 SWAP1 POP JUMP JUMPDEST PUSH32 0x4E657720756E6C6F636B2074696D652073686F756C64206E6F74206265206265 PUSH1 0x0 DUP3 ADD MSTORE PUSH32 0x666F7265206F6C6420756E6C6F636B2074696D65206F722063757272656E7420 PUSH1 0x20 DUP3 ADD MSTORE PUSH32 0x74696D6500000000000000000000000000000000000000000000000000000000 PUSH1 0x40 DUP3 ADD MSTORE POP JUMP JUMPDEST PUSH1 0x0 PUSH2 0x5564 PUSH1 0x44 DUP4 PUSH2 0x5013 JUMP JUMPDEST SWAP2 POP PUSH2 0x556F DUP3 PUSH2 0x54E2 JUMP JUMPDEST PUSH1 0x60 DUP3 ADD SWAP1 POP SWAP2 SWAP1 POP JUMP JUMPDEST PUSH1 0x0 PUSH1 0x20 DUP3 ADD SWAP1 POP DUP2 DUP2 SUB PUSH1 0x0 DUP4 ADD MSTORE PUSH2 0x5593 DUP2 PUSH2 0x5557 JUMP JUMPDEST SWAP1 POP SWAP2 SWAP1 POP JUMP JUMPDEST PUSH32 0x4E657720616D6F756E742073686F756C64206E6F74206265206C657373207468 PUSH1 0x0 DUP3 ADD MSTORE PUSH32 0x616E2063757272656E7420616D6F756E74000000000000000000000000000000 PUSH1 0x20 DUP3 ADD MSTORE POP JUMP JUMPDEST PUSH1 0x0 PUSH2 0x55F6 PUSH1 0x31 DUP4 PUSH2 0x5013 JUMP JUMPDEST SWAP2 POP PUSH2 0x5601 DUP3 PUSH2 0x559A JUMP JUMPDEST PUSH1 0x40 DUP3 ADD SWAP1 POP SWAP2 SWAP1 POP JUMP JUMPDEST PUSH1 0x0 PUSH1 0x20 DUP3 ADD SWAP1 POP DUP2 DUP2 SUB PUSH1 0x0 DUP4 ADD MSTORE PUSH2 0x5625 DUP2 PUSH2 0x55E9 JUMP JUMPDEST SWAP1 POP SWAP2 SWAP1 POP JUMP JUMPDEST PUSH32 0x54474520646174652073686F756C6420626520696E2074686520667574757265 PUSH1 0x0 DUP3 ADD MSTORE POP JUMP JUMPDEST PUSH1 0x0 PUSH2 0x5662 PUSH1 0x20 DUP4 PUSH2 0x5013 JUMP JUMPDEST SWAP2 POP PUSH2 0x566D DUP3 PUSH2 0x562C JUMP JUMPDEST PUSH1 0x20 DUP3 ADD SWAP1 POP SWAP2 SWAP1 POP JUMP JUMPDEST PUSH1 0x0 PUSH1 0x20 DUP3 ADD SWAP1 POP DUP2 DUP2 SUB PUSH1 0x0 DUP4 ADD MSTORE PUSH2 0x5691 DUP2 PUSH2 0x5655 JUMP JUMPDEST SWAP1 POP SWAP2 SWAP1 POP JUMP JUMPDEST PUSH32 0x496E76616C6964206379636C6500000000000000000000000000000000000000 PUSH1 0x0 DUP3 ADD MSTORE POP JUMP JUMPDEST PUSH1 0x0 PUSH2 0x56CE PUSH1 0xD DUP4 PUSH2 0x5013 JUMP JUMPDEST SWAP2 POP PUSH2 0x56D9 DUP3 PUSH2 0x5698 JUMP JUMPDEST PUSH1 0x20 DUP3 ADD SWAP1 POP SWAP2 SWAP1 POP JUMP JUMPDEST PUSH1 0x0 PUSH1 0x20 DUP3 ADD SWAP1 POP DUP2 DUP2 SUB PUSH1 0x0 DUP4 ADD MSTORE PUSH2 0x56FD DUP2 PUSH2 0x56C1 JUMP JUMPDEST SWAP1 POP SWAP2 SWAP1 POP JUMP JUMPDEST PUSH32 0x496E76616C6964206269707320666F7220544745000000000000000000000000 PUSH1 0x0 DUP3 ADD MSTORE POP JUMP JUMPDEST PUSH1 0x0 PUSH2 0x573A PUSH1 0x14 DUP4 PUSH2 0x5013 JUMP JUMPDEST SWAP2 POP PUSH2 0x5745 DUP3 PUSH2 0x5704 JUMP JUMPDEST PUSH1 0x20 DUP3 ADD SWAP1 POP SWAP2 SWAP1 POP JUMP JUMPDEST PUSH1 0x0 PUSH1 0x20 DUP3 ADD SWAP1 POP DUP2 DUP2 SUB PUSH1 0x0 DUP4 ADD MSTORE PUSH2 0x5769 DUP2 PUSH2 0x572D JUMP JUMPDEST SWAP1 POP SWAP2 SWAP1 POP JUMP JUMPDEST PUSH32 0x496E76616C6964206269707320666F72206379636C6500000000000000000000 PUSH1 0x0 DUP3 ADD MSTORE POP JUMP JUMPDEST PUSH1 0x0 PUSH2 0x57A6 PUSH1 0x16 DUP4 PUSH2 0x5013 JUMP JUMPDEST SWAP2 POP PUSH2 0x57B1 DUP3 PUSH2 0x5770 JUMP JUMPDEST PUSH1 0x20 DUP3 ADD SWAP1 POP SWAP2 SWAP1 POP JUMP JUMPDEST PUSH1 0x0 PUSH1 0x20 DUP3 ADD SWAP1 POP DUP2 DUP2 SUB PUSH1 0x0 DUP4 ADD MSTORE PUSH2 0x57D5 DUP2 PUSH2 0x5799 JUMP JUMPDEST SWAP1 POP SWAP2 SWAP1 POP JUMP JUMPDEST PUSH32 0x53756D206F66205447452062707320616E64206379636C652073686F756C6420 PUSH1 0x0 DUP3 ADD MSTORE PUSH32 0x6265206C657373207468616E2031303030300000000000000000000000000000 PUSH1 0x20 DUP3 ADD MSTORE POP JUMP JUMPDEST PUSH1 0x0 PUSH2 0x5838 PUSH1 0x32 DUP4 PUSH2 0x5013 JUMP JUMPDEST SWAP2 POP PUSH2 0x5843 DUP3 PUSH2 0x57DC JUMP JUMPDEST PUSH1 0x40 DUP3 ADD SWAP1 POP SWAP2 SWAP1 POP JUMP JUMPDEST PUSH1 0x0 PUSH1 0x20 DUP3 ADD SWAP1 POP DUP2 DUP2 SUB PUSH1 0x0 DUP4 ADD MSTORE PUSH2 0x5867 DUP2 PUSH2 0x582B JUMP JUMPDEST SWAP1 POP SWAP2 SWAP1 POP JUMP JUMPDEST PUSH1 0x0 DUP2 SWAP1 POP DUP2 PUSH1 0x0 MSTORE PUSH1 0x20 PUSH1 0x0 KECCAK256 SWAP1 POP SWAP2 SWAP1 POP JUMP JUMPDEST PUSH1 0x0 PUSH1 0x20 PUSH1 0x1F DUP4 ADD DIV SWAP1 POP SWAP2 SWAP1 POP JUMP JUMPDEST PUSH1 0x0 DUP3 DUP3 SHL SWAP1 POP SWAP3 SWAP2 POP POP JUMP JUMPDEST PUSH1 0x0 PUSH1 0x8 DUP4 MUL PUSH2 0x58D0 PUSH32 0xFFFFFFFFFFFFFFFFFFFFFFFFFFFFFFFFFFFFFFFFFFFFFFFFFFFFFFFFFFFFFFFF DUP3 PUSH2 0x5893 JUMP JUMPDEST PUSH2 0x58DA DUP7 DUP4 PUSH2 0x5893 JUMP JUMPDEST SWAP6 POP DUP1 NOT DUP5 AND SWAP4 POP DUP1 DUP7 AND DUP5 OR SWAP3 POP POP POP SWAP4 SWAP3 POP POP POP JUMP JUMPDEST PUSH1 0x0 DUP2 SWAP1 POP SWAP2 SWAP1 POP JUMP JUMPDEST PUSH1 0x0 PUSH2 0x5917 PUSH2 0x5912 PUSH2 0x590D DUP5 PUSH2 0x458B JUMP JUMPDEST PUSH2 0x58F2 JUMP JUMPDEST PUSH2 0x458B JUMP JUMPDEST SWAP1 POP SWAP2 SWAP1 POP JUMP JUMPDEST PUSH1 0x0 DUP2 SWAP1 POP SWAP2 SWAP1 POP JUMP JUMPDEST PUSH2 0x5931 DUP4 PUSH2 0x58FC JUMP JUMPDEST PUSH2 0x5945 PUSH2 0x593D DUP3 PUSH2 0x591E JUMP JUMPDEST DUP5 DUP5 SLOAD PUSH2 0x58A0 JUMP JUMPDEST DUP3 SSTORE POP POP POP POP JUMP JUMPDEST PUSH1 0x0 SWAP1 JUMP JUMPDEST PUSH2 0x595A PUSH2 0x594D JUMP JUMPDEST PUSH2 0x5965 DUP2 DUP5 DUP5 PUSH2 0x5928 JUMP JUMPDEST POP POP POP JUMP JUMPDEST JUMPDEST DUP2 DUP2 LT ISZERO PUSH2 0x5989 JUMPI PUSH2 0x597E PUSH1 0x0 DUP3 PUSH2 0x5952 JUMP JUMPDEST PUSH1 0x1 DUP2 ADD SWAP1 POP PUSH2 0x596B JUMP JUMPDEST POP POP JUMP JUMPDEST PUSH1 0x1F DUP3 GT ISZERO PUSH2 0x59CE JUMPI PUSH2 0x599F DUP2 PUSH2 0x586E JUMP JUMPDEST PUSH2 0x59A8 DUP5 PUSH2 0x5883 JUMP JUMPDEST DUP2 ADD PUSH1 0x20 DUP6 LT ISZERO PUSH2 0x59B7 JUMPI DUP2 SWAP1 POP JUMPDEST PUSH2 0x59CB PUSH2 0x59C3 DUP6 PUSH2 0x5883 JUMP JUMPDEST DUP4 ADD DUP3 PUSH2 0x596A JUMP JUMPDEST POP POP JUMPDEST POP POP POP JUMP JUMPDEST PUSH1 0x0 DUP3 DUP3 SHR SWAP1 POP SWAP3 SWAP2 POP POP JUMP JUMPDEST PUSH1 0x0 PUSH2 0x59F1 PUSH1 0x0 NOT DUP5 PUSH1 0x8 MUL PUSH2 0x59D3 JUMP JUMPDEST NOT DUP1 DUP4 AND SWAP2 POP POP SWAP3 SWAP2 POP POP JUMP JUMPDEST PUSH1 0x0 PUSH2 0x5A0A DUP4 DUP4 PUSH2 0x59E0 JUMP JUMPDEST SWAP2 POP DUP3 PUSH1 0x2 MUL DUP3 OR SWAP1 POP SWAP3 SWAP2 POP POP JUMP JUMPDEST PUSH2 0x5A23 DUP3 PUSH2 0x4852 JUMP JUMPDEST PUSH8 0xFFFFFFFFFFFFFFFF DUP2 GT ISZERO PUSH2 0x5A3C JUMPI PUSH2 0x5A3B PUSH2 0x45DC JUMP JUMPDEST JUMPDEST PUSH2 0x5A46 DUP3 SLOAD PUSH2 0x5231 JUMP JUMPDEST PUSH2 0x5A51 DUP3 DUP3 DUP6 PUSH2 0x598D JUMP JUMPDEST PUSH1 0x0 PUSH1 0x20 SWAP1 POP PUSH1 0x1F DUP4 GT PUSH1 0x1 DUP2 EQ PUSH2 0x5A84 JUMPI PUSH1 0x0 DUP5 ISZERO PUSH2 0x5A72 JUMPI DUP3 DUP8 ADD MLOAD SWAP1 POP JUMPDEST PUSH2 0x5A7C DUP6 DUP3 PUSH2 0x59FE JUMP JUMPDEST DUP7 SSTORE POP PUSH2 0x5AE4 JUMP JUMPDEST PUSH1 0x1F NOT DUP5 AND PUSH2 0x5A92 DUP7 PUSH2 0x586E JUMP JUMPDEST PUSH1 0x0 JUMPDEST DUP3 DUP2 LT ISZERO PUSH2 0x5ABA JUMPI DUP5 DUP10 ADD MLOAD DUP3 SSTORE PUSH1 0x1 DUP3 ADD SWAP2 POP PUSH1 0x20 DUP6 ADD SWAP5 POP PUSH1 0x20 DUP2 ADD SWAP1 POP PUSH2 0x5A95 JUMP JUMPDEST DUP7 DUP4 LT ISZERO PUSH2 0x5AD7 JUMPI DUP5 DUP10 ADD MLOAD PUSH2 0x5AD3 PUSH1 0x1F DUP10 AND DUP3 PUSH2 0x59E0 JUMP JUMPDEST DUP4 SSTORE POP JUMPDEST PUSH1 0x1 PUSH1 0x2 DUP9 MUL ADD DUP9 SSTORE POP POP POP JUMPDEST POP POP POP POP POP POP JUMP JUMPDEST PUSH1 0x0 PUSH1 0x20 DUP3 ADD SWAP1 POP PUSH2 0x5B01 PUSH1 0x0 DUP4 ADD DUP5 PUSH2 0x4FCD JUMP JUMPDEST SWAP3 SWAP2 POP POP JUMP JUMPDEST PUSH1 0x0 DUP2 MLOAD SWAP1 POP PUSH2 0x5B16 DUP2 PUSH2 0x4595 JUMP JUMPDEST SWAP3 SWAP2 POP POP JUMP JUMPDEST PUSH1 0x0 PUSH1 0x20 DUP3 DUP5 SUB SLT ISZERO PUSH2 0x5B32 JUMPI PUSH2 0x5B31 PUSH2 0x44EB JUMP JUMPDEST JUMPDEST PUSH1 0x0 PUSH2 0x5B40 DUP5 DUP3 DUP6 ADD PUSH2 0x5B07 JUMP JUMPDEST SWAP2 POP POP SWAP3 SWAP2 POP POP JUMP JUMPDEST PUSH32 0x4E6F7420656E6F75676820746F6B656E20776173207472616E73666572656400 PUSH1 0x0 DUP3 ADD MSTORE POP JUMP JUMPDEST PUSH1 0x0 PUSH2 0x5B7F PUSH1 0x1F DUP4 PUSH2 0x5013 JUMP JUMPDEST SWAP2 POP PUSH2 0x5B8A DUP3 PUSH2 0x5B49 JUMP JUMPDEST PUSH1 0x20 DUP3 ADD SWAP1 POP SWAP2 SWAP1 POP JUMP JUMPDEST PUSH1 0x0 PUSH1 0x20 DUP3 ADD SWAP1 POP DUP2 DUP2 SUB PUSH1 0x0 DUP4 ADD MSTORE PUSH2 0x5BAE DUP2 PUSH2 0x5B72 JUMP JUMPDEST SWAP1 POP SWAP2 SWAP1 POP JUMP JUMPDEST PUSH32 0x496E76616C6964206C6F636B2069640000000000000000000000000000000000 PUSH1 0x0 DUP3 ADD MSTORE POP JUMP JUMPDEST PUSH1 0x0 PUSH2 0x5BEB PUSH1 0xF DUP4 PUSH2 0x5013 JUMP JUMPDEST SWAP2 POP PUSH2 0x5BF6 DUP3 PUSH2 0x5BB5 JUMP JUMPDEST PUSH1 0x20 DUP3 ADD SWAP1 POP SWAP2 SWAP1 POP JUMP JUMPDEST PUSH1 0x0 PUSH1 0x20 DUP3 ADD SWAP1 POP DUP2 DUP2 SUB PUSH1 0x0 DUP4 ADD MSTORE PUSH2 0x5C1A DUP2 PUSH2 0x5BDE JUMP JUMPDEST SWAP1 POP SWAP2 SWAP1 POP JUMP JUMPDEST PUSH32 0x4E6F7468696E6720746F20756E6C6F636B000000000000000000000000000000 PUSH1 0x0 DUP3 ADD MSTORE POP JUMP JUMPDEST PUSH1 0x0 PUSH2 0x5C57 PUSH1 0x11 DUP4 PUSH2 0x5013 JUMP JUMPDEST SWAP2 POP PUSH2 0x5C62 DUP3 PUSH2 0x5C21 JUMP JUMPDEST PUSH1 0x20 DUP3 ADD SWAP1 POP SWAP2 SWAP1 POP JUMP JUMPDEST PUSH1 0x0 PUSH1 0x20 DUP3 ADD SWAP1 POP DUP2 DUP2 SUB PUSH1 0x0 DUP4 ADD MSTORE PUSH2 0x5C86 DUP2 PUSH2 0x5C4A JUMP JUMPDEST SWAP1 POP SWAP2 SWAP1 POP JUMP JUMPDEST PUSH1 0x0 PUSH1 0xA0 DUP3 ADD SWAP1 POP PUSH2 0x5CA2 PUSH1 0x0 DUP4 ADD DUP9 PUSH2 0x4FCD JUMP JUMPDEST PUSH2 0x5CAF PUSH1 0x20 DUP4 ADD DUP8 PUSH2 0x4FCD JUMP JUMPDEST PUSH2 0x5CBC PUSH1 0x40 DUP4 ADD DUP7 PUSH2 0x47B0 JUMP JUMPDEST PUSH2 0x5CC9 PUSH1 0x60 DUP4 ADD DUP6 PUSH2 0x47B0 JUMP JUMPDEST PUSH2 0x5CD6 PUSH1 0x80 DUP4 ADD DUP5 PUSH2 0x47B0 JUMP JUMPDEST SWAP7 SWAP6 POP POP POP POP POP POP JUMP JUMPDEST PUSH32 0x4974206973206E6F742074696D6520746F20756E6C6F636B0000000000000000 PUSH1 0x0 DUP3 ADD MSTORE POP JUMP JUMPDEST PUSH1 0x0 PUSH2 0x5D16 PUSH1 0x18 DUP4 PUSH2 0x5013 JUMP JUMPDEST SWAP2 POP PUSH2 0x5D21 DUP3 PUSH2 0x5CE0 JUMP JUMPDEST PUSH1 0x20 DUP3 ADD SWAP1 POP SWAP2 SWAP1 POP JUMP JUMPDEST PUSH1 0x0 PUSH1 0x20 DUP3 ADD SWAP1 POP DUP2 DUP2 SUB PUSH1 0x0 DUP4 ADD MSTORE PUSH2 0x5D45 DUP2 PUSH2 0x5D09 JUMP JUMPDEST SWAP1 POP SWAP2 SWAP1 POP JUMP JUMPDEST PUSH32 0x4E487B7100000000000000000000000000000000000000000000000000000000 PUSH1 0x0 MSTORE PUSH1 0x12 PUSH1 0x4 MSTORE PUSH1 0x24 PUSH1 0x0 REVERT JUMPDEST PUSH1 0x0 PUSH2 0x5D86 DUP3 PUSH2 0x458B JUMP JUMPDEST SWAP2 POP PUSH2 0x5D91 DUP4 PUSH2 0x458B JUMP JUMPDEST SWAP3 POP DUP3 PUSH2 0x5DA1 JUMPI PUSH2 0x5DA0 PUSH2 0x5D4C JUMP JUMPDEST JUMPDEST DUP3 DUP3 DIV SWAP1 POP SWAP3 SWAP2 POP POP JUMP JUMPDEST PUSH1 0x0 PUSH2 0x5DB7 DUP3 PUSH2 0x458B JUMP JUMPDEST SWAP2 POP PUSH2 0x5DC2 DUP4 PUSH2 0x458B JUMP JUMPDEST SWAP3 POP DUP3 DUP3 MUL PUSH2 0x5DD0 DUP2 PUSH2 0x458B JUMP JUMPDEST SWAP2 POP DUP3 DUP3 DIV DUP5 EQ DUP4 ISZERO OR PUSH2 0x5DE7 JUMPI PUSH2 0x5DE6 PUSH2 0x5262 JUMP JUMPDEST JUMPDEST POP SWAP3 SWAP2 POP POP JUMP JUMPDEST PUSH1 0x0 DUP2 MLOAD SWAP1 POP PUSH2 0x5DFD DUP2 PUSH2 0x4527 JUMP JUMPDEST SWAP3 SWAP2 POP POP JUMP JUMPDEST PUSH1 0x0 PUSH1 0x20 DUP3 DUP5 SUB SLT ISZERO PUSH2 0x5E19 JUMPI PUSH2 0x5E18 PUSH2 0x44EB JUMP JUMPDEST JUMPDEST PUSH1 0x0 PUSH2 0x5E27 DUP5 DUP3 DUP6 ADD PUSH2 0x5DEE JUMP JUMPDEST SWAP2 POP POP SWAP3 SWAP2 POP POP JUMP JUMPDEST PUSH32 0x5468697320746F6B656E206973206E6F742061204C5020746F6B656E00000000 PUSH1 0x0 DUP3 ADD MSTORE POP JUMP JUMPDEST PUSH1 0x0 PUSH2 0x5E66 PUSH1 0x1C DUP4 PUSH2 0x5013 JUMP JUMPDEST SWAP2 POP PUSH2 0x5E71 DUP3 PUSH2 0x5E30 JUMP JUMPDEST PUSH1 0x20 DUP3 ADD SWAP1 POP SWAP2 SWAP1 POP JUMP JUMPDEST PUSH1 0x0 PUSH1 0x20 DUP3 ADD SWAP1 POP DUP2 DUP2 SUB PUSH1 0x0 DUP4 ADD MSTORE PUSH2 0x5E95 DUP2 PUSH2 0x5E59 JUMP JUMPDEST SWAP1 POP SWAP2 SWAP1 POP JUMP JUMPDEST PUSH32 0x5468697320746F6B656E206973206E6F742061204C5020746F6B656E2E000000 PUSH1 0x0 DUP3 ADD MSTORE POP JUMP JUMPDEST PUSH1 0x0 PUSH2 0x5ED2 PUSH1 0x1D DUP4 PUSH2 0x5013 JUMP JUMPDEST SWAP2 POP PUSH2 0x5EDD DUP3 PUSH2 0x5E9C JUMP JUMPDEST PUSH1 0x20 DUP3 ADD SWAP1 POP SWAP2 SWAP1 POP JUMP JUMPDEST PUSH1 0x0 PUSH1 0x20 DUP3 ADD SWAP1 POP DUP2 DUP2 SUB PUSH1 0x0 DUP4 ADD MSTORE PUSH2 0x5F01 DUP2 PUSH2 0x5EC5 JUMP JUMPDEST SWAP1 POP SWAP2 SWAP1 POP JUMP JUMPDEST PUSH32 0x4E487B7100000000000000000000000000000000000000000000000000000000 PUSH1 0x0 MSTORE PUSH1 0x31 PUSH1 0x4 MSTORE PUSH1 0x24 PUSH1 0x0 REVERT JUMPDEST PUSH1 0x0 PUSH1 0x40 DUP3 ADD SWAP1 POP PUSH2 0x5F4C PUSH1 0x0 DUP4 ADD DUP6 PUSH2 0x4FCD JUMP JUMPDEST PUSH2 0x5F59 PUSH1 0x20 DUP4 ADD DUP5 PUSH2 0x47B0 JUMP JUMPDEST SWAP4 SWAP3 POP POP POP JUMP JUMPDEST PUSH32 0x4469766973696F6E206279207A65726F00000000000000000000000000000000 PUSH1 0x0 DUP3 ADD MSTORE POP JUMP JUMPDEST PUSH1 0x0 PUSH2 0x5F96 PUSH1 0x10 DUP4 PUSH2 0x5013 JUMP JUMPDEST SWAP2 POP PUSH2 0x5FA1 DUP3 PUSH2 0x5F60 JUMP JUMPDEST PUSH1 0x20 DUP3 ADD SWAP1 POP SWAP2 SWAP1 POP JUMP JUMPDEST PUSH1 0x0 PUSH1 0x20 DUP3 ADD SWAP1 POP DUP2 DUP2 SUB PUSH1 0x0 DUP4 ADD MSTORE PUSH2 0x5FC5 DUP2 PUSH2 0x5F89 JUMP JUMPDEST SWAP1 POP SWAP2 SWAP1 POP JUMP JUMPDEST PUSH32 0x44656E6F6D696E61746F7220746F6F20736D616C6C0000000000000000000000 PUSH1 0x0 DUP3 ADD MSTORE POP JUMP JUMPDEST PUSH1 0x0 PUSH2 0x6002 PUSH1 0x15 DUP4 PUSH2 0x5013 JUMP JUMPDEST SWAP2 POP PUSH2 0x600D DUP3 PUSH2 0x5FCC JUMP JUMPDEST PUSH1 0x20 DUP3 ADD SWAP1 POP SWAP2 SWAP1 POP JUMP JUMPDEST PUSH1 0x0 PUSH1 0x20 DUP3 ADD SWAP1 POP DUP2 DUP2 SUB PUSH1 0x0 DUP4 ADD MSTORE PUSH2 0x6031 DUP2 PUSH2 0x5FF5 JUMP JUMPDEST SWAP1 POP SWAP2 SWAP1 POP JUMP JUMPDEST PUSH1 0x0 PUSH1 0x40 DUP3 ADD SWAP1 POP PUSH2 0x604D PUSH1 0x0 DUP4 ADD DUP6 PUSH2 0x4FCD JUMP JUMPDEST PUSH2 0x605A PUSH1 0x20 DUP4 ADD DUP5 PUSH2 0x4FCD JUMP JUMPDEST SWAP4 SWAP3 POP POP POP JUMP JUMPDEST PUSH1 0x0 DUP2 MLOAD SWAP1 POP PUSH2 0x6070 DUP2 PUSH2 0x455F JUMP JUMPDEST SWAP3 SWAP2 POP POP JUMP JUMPDEST PUSH1 0x0 PUSH1 0x20 DUP3 DUP5 SUB SLT ISZERO PUSH2 0x608C JUMPI PUSH2 0x608B PUSH2 0x44EB JUMP JUMPDEST JUMPDEST PUSH1 0x0 PUSH2 0x609A DUP5 DUP3 DUP6 ADD PUSH2 0x6061 JUMP JUMPDEST SWAP2 POP POP SWAP3 SWAP2 POP POP JUMP JUMPDEST PUSH1 0x0 DUP2 MLOAD SWAP1 POP SWAP2 SWAP1 POP JUMP JUMPDEST PUSH1 0x0 DUP2 SWAP1 POP SWAP3 SWAP2 POP POP JUMP JUMPDEST PUSH1 0x0 PUSH2 0x60C4 DUP3 PUSH2 0x60A3 JUMP JUMPDEST PUSH2 0x60CE DUP2 DUP6 PUSH2 0x60AE JUMP JUMPDEST SWAP4 POP PUSH2 0x60DE DUP2 DUP6 PUSH1 0x20 DUP7 ADD PUSH2 0x486E JUMP JUMPDEST DUP1 DUP5 ADD SWAP2 POP POP SWAP3 SWAP2 POP POP JUMP JUMPDEST PUSH1 0x0 PUSH2 0x60F6 DUP3 DUP5 PUSH2 0x60B9 JUMP JUMPDEST SWAP2 POP DUP2 SWAP1 POP SWAP3 SWAP2 POP POP JUMP INVALID LOG2 PUSH5 0x6970667358 0x22 SLT KECCAK256 0x2D MULMOD 0xE 0xDF PUSH32 0x9550F29B6CE7D8E5917A0E70D6B610EF94C55B239AB80BE919A3FE64736F6C63 NUMBER STOP ADDMOD EQ STOP CALLER "},"methodIdentifiers":{"allLpTokenLockedCount()":"b982922e","allNormalTokenLockedCount()":"475831c8","cumulativeLockInfo(address)":"e1444fd6","editLock(uint256,uint256,uint256)":"b3b9aa48","editLockDescription(uint256,string)":"d3cac885","getCumulativeLpTokenLockInfo(uint256,uint256)":"aec640c6","getCumulativeLpTokenLockInfoAt(uint256)":"a20b8c18","getCumulativeNormalTokenLockInfo(uint256,uint256)":"76c12822","getCumulativeNormalTokenLockInfoAt(uint256)":"7e6706d3","getLockAt(uint256)":"0d4f581a","getLockById(uint256)":"08f12470","getLocksForToken(address,uint256,uint256)":"332f26d7","getTotalLockCount()":"fd981c66","lock(address,address,bool,uint256,uint256,string)":"07279357","lpLockCountForUser(address)":"07873ef1","lpLockForUserAtIndex(address,uint256)":"eeacf786","lpLocksForUser(address)":"aef0e540","normalLockCountForUser(address)":"eb80bdae","normalLockForUserAtIndex(address,uint256)":"618df7a3","normalLocksForUser(address)":"da1d8cff","renounceLockOwnership(uint256)":"a57e3141","totalLockCountForToken(address)":"e3676f88","totalLockCountForUser(address)":"cd83eadc","totalTokenLockedCount()":"1982242c","transferLockOwnership(uint256,address)":"5a04fb69","unlock(uint256)":"6198e339","vestingLock(address,address,bool,uint256,uint256,uint256,uint256,uint256,string)":"cb645e32","withdrawableTokens(uint256)":"6dbdeab3"}}}}}