{
  "_format": "hh-sol-artifact-1",
  "contractName": "TusdCrowdsale",
  "sourceName": "contracts/TusdCrowdsale.sol",
  "abi": [
    {
      "constant": true,
      "inputs": [],
      "name": "hasClosed",
      "outputs": [
        {
          "name": "",
          "type": "bool"
        }
      ],
      "payable": false,
      "stateMutability": "view",
      "type": "function"
    },
    {
      "constant": true,
      "inputs": [],
      "name": "rate",
      "outputs": [
        {
          "name": "",
          "type": "uint256"
        }
      ],
      "payable": false,
      "stateMutability": "view",
      "type": "function"
    },
    {
      "constant": true,
      "inputs": [],
      "name": "cap",
      "outputs": [
        {
          "name": "",
          "type": "uint256"
        }
      ],
      "payable": false,
      "stateMutability": "view",
      "type": "function"
    },
    {
      "constant": true,
      "inputs": [],
      "name": "goal",
      "outputs": [
        {
          "name": "",
          "type": "uint256"
        }
      ],
      "payable": false,
      "stateMutability": "view",
      "type": "function"
    },
    {
      "constant": true,
      "inputs": [],
      "name": "weiRaised",
      "outputs": [
        {
          "name": "",
          "type": "uint256"
        }
      ],
      "payable": false,
      "stateMutability": "view",
      "type": "function"
    },
    {
      "constant": true,
      "inputs": [],
      "name": "isOpen",
      "outputs": [
        {
          "name": "",
          "type": "bool"
        }
      ],
      "payable": false,
      "stateMutability": "view",
      "type": "function"
    },
    {
      "constant": false,
      "inputs": [
        {
          "name": "beneficiary",
          "type": "address"
        }
      ],
      "name": "withdrawTokens",
      "outputs": [],
      "payable": false,
      "stateMutability": "nonpayable",
      "type": "function"
    },
    {
      "constant": true,
      "inputs": [],
      "name": "closingTime",
      "outputs": [
        {
          "name": "",
          "type": "uint256"
        }
      ],
      "payable": false,
      "stateMutability": "view",
      "type": "function"
    },
    {
      "constant": false,
      "inputs": [],
      "name": "finalize",
      "outputs": [],
      "payable": false,
      "stateMutability": "nonpayable",
      "type": "function"
    },
    {
      "constant": true,
      "inputs": [],
      "name": "capReached",
      "outputs": [
        {
          "name": "",
          "type": "bool"
        }
      ],
      "payable": false,
      "stateMutability": "view",
      "type": "function"
    },
    {
      "constant": true,
      "inputs": [],
      "name": "wallet",
      "outputs": [
        {
          "name": "",
          "type": "address"
        }
      ],
      "payable": false,
      "stateMutability": "view",
      "type": "function"
    },
    {
      "constant": true,
      "inputs": [
        {
          "name": "account",
          "type": "address"
        }
      ],
      "name": "balanceOf",
      "outputs": [
        {
          "name": "",
          "type": "uint256"
        }
      ],
      "payable": false,
      "stateMutability": "view",
      "type": "function"
    },
    {
      "constant": true,
      "inputs": [],
      "name": "goalReached",
      "outputs": [
        {
          "name": "",
          "type": "bool"
        }
      ],
      "payable": false,
      "stateMutability": "view",
      "type": "function"
    },
    {
      "constant": true,
      "inputs": [],
      "name": "maxContribution",
      "outputs": [
        {
          "name": "",
          "type": "uint256"
        }
      ],
      "payable": false,
      "stateMutability": "view",
      "type": "function"
    },
    {
      "constant": true,
      "inputs": [],
      "name": "minContribution",
      "outputs": [
        {
          "name": "",
          "type": "uint256"
        }
      ],
      "payable": false,
      "stateMutability": "view",
      "type": "function"
    },
    {
      "constant": true,
      "inputs": [],
      "name": "finalized",
      "outputs": [
        {
          "name": "",
          "type": "bool"
        }
      ],
      "payable": false,
      "stateMutability": "view",
      "type": "function"
    },
    {
      "constant": true,
      "inputs": [],
      "name": "openingTime",
      "outputs": [
        {
          "name": "",
          "type": "uint256"
        }
      ],
      "payable": false,
      "stateMutability": "view",
      "type": "function"
    },
    {
      "constant": false,
      "inputs": [
        {
          "name": "refundee",
          "type": "address"
        }
      ],
      "name": "claimRefund",
      "outputs": [],
      "payable": false,
      "stateMutability": "nonpayable",
      "type": "function"
    },
    {
      "constant": true,
      "inputs": [],
      "name": "stablecoin",
      "outputs": [
        {
          "name": "",
          "type": "address"
        }
      ],
      "payable": false,
      "stateMutability": "view",
      "type": "function"
    },
    {
      "constant": false,
      "inputs": [
        {
          "name": "beneficiary",
          "type": "address"
        }
      ],
      "name": "buyTokens",
      "outputs": [],
      "payable": true,
      "stateMutability": "payable",
      "type": "function"
    },
    {
      "constant": true,
      "inputs": [],
      "name": "token",
      "outputs": [
        {
          "name": "",
          "type": "address"
        }
      ],
      "payable": false,
      "stateMutability": "view",
      "type": "function"
    },
    {
      "inputs": [
        {
          "name": "rate",
          "type": "uint256"
        },
        {
          "name": "wallet",
          "type": "address"
        },
        {
          "name": "token",
          "type": "address"
        },
        {
          "name": "cap",
          "type": "uint256"
        },
        {
          "name": "openingTime",
          "type": "uint256"
        },
        {
          "name": "closingTime",
          "type": "uint256"
        },
        {
          "name": "goal",
          "type": "uint256"
        },
        {
          "name": "minContribution",
          "type": "uint256"
        },
        {
          "name": "maxContribution",
          "type": "uint256"
        }
      ],
      "payable": false,
      "stateMutability": "nonpayable",
      "type": "constructor"
    },
    {
      "payable": true,
      "stateMutability": "payable",
      "type": "fallback"
    },
    {
      "anonymous": false,
      "inputs": [],
      "name": "CrowdsaleFinalized",
      "type": "event"
    },
    {
      "anonymous": false,
      "inputs": [
        {
          "indexed": false,
          "name": "prevClosingTime",
          "type": "uint256"
        },
        {
          "indexed": false,
          "name": "newClosingTime",
          "type": "uint256"
        }
      ],
      "name": "TimedCrowdsaleExtended",
      "type": "event"
    },
    {
      "anonymous": false,
      "inputs": [
        {
          "indexed": true,
          "name": "purchaser",
          "type": "address"
        },
        {
          "indexed": true,
          "name": "beneficiary",
          "type": "address"
        },
        {
          "indexed": false,
          "name": "value",
          "type": "uint256"
        },
        {
          "indexed": false,
          "name": "amount",
          "type": "uint256"
        }
      ],
      "name": "TokensPurchased",
      "type": "event"
    }
  ],
  "bytecode": "0x60806040523480156200001157600080fd5b506040516101208062002dab83398101806040526101208110156200003557600080fd5b508051602082015160408301516060840151608085015160a086015160c087015160e0880151610100909801516000805460ff1916600117905596979596949593949293919290919082888686898d848d8989841515620000f757604080517f08c379a000000000000000000000000000000000000000000000000000000000815260206004820152601460248201527f43726f776473616c653a20726174652069732030000000000000000000000000604482015290519081900360640190fd5b6001600160a01b03841615156200015a576040517f08c379a000000000000000000000000000000000000000000000000000000000815260040180806020018281038252602581526020018062002d866025913960400191505060405180910390fd5b6001600160a01b0383161515620001bd576040517f08c379a000000000000000000000000000000000000000000000000000000000815260040180806020018281038252602481526020018062002d626024913960400191505060405180910390fd5b600294909455600180546001600160a01b0319166001600160a01b0394851617905560008054610100600160a81b03191661010093909416929092029290921790556004556005558015156200027457604080517f08c379a000000000000000000000000000000000000000000000000000000000815260206004820152601960248201527f43617070656443726f776473616c653a20636170206973203000000000000000604482015290519081900360640190fd5b60065542821015620002d2576040517f08c379a000000000000000000000000000000000000000000000000000000000815260040180806020018281038252603381526020018062002cf86033913960400191505060405180910390fd5b8181116200032c576040517f08c379a000000000000000000000000000000000000000000000000000000000815260040180806020018281038252603781526020018062002d2b6037913960400191505060405180910390fd5b6007919091556008556009805460ff191690556040516200034d90620004b9565b604051809103906000f0801580156200036a573d6000803e3d6000fd5b50600b80546001600160a01b0319166001600160a01b0392909216919091179055811515620003fa57604080517f08c379a000000000000000000000000000000000000000000000000000000000815260206004820152601e60248201527f526566756e6461626c6543726f776473616c653a20676f616c20697320300000604482015290519081900360640190fd5b6200040a620004aa60201b60201c565b816040516200041990620004c7565b6001600160a01b03928316815291166020820152604080519182900301906000f0801580156200044d573d6000803e3d6000fd5b50600d80546001600160a01b03929092166001600160a01b0319928316179055600c9290925550600e80549091167340af3827f39d0eacbf4a168f8d4ee67c121d11c9179055600f9190915560105550620004d595505050505050565b6001546001600160a01b031690565b6103c68062001a6b83390190565b610ec78062001e3183390190565b61158680620004e56000396000f3fe60806040526004361061012a5760003560e01c8063521eb273116100ab578063b3f05b971161006f578063b3f05b97146102f5578063b7a8807c1461030a578063bffa55d51461031f578063e9cbd82214610352578063ec8ac4d814610367578063fc0c546a1461038d5761012a565b8063521eb2731461025257806370a08231146102835780637d3d6522146102b65780638d3d6576146102cb578063aaffadf3146102e05761012a565b806347535d7b116100f257806347535d7b146101cb57806349df728c146101e05780634b6753bc146102135780634bb278f3146102285780634f9359451461023d5761012a565b80631515bc2b1461013c5780632c4e722e14610165578063355274ea1461018c57806340193883146101a15780634042b66f146101b6575b61013a6101356103a2565b6103a6565b005b34801561014857600080fd5b50610151610555565b604080519115158252519081900360200190f35b34801561017157600080fd5b5061017a61055d565b60408051918252519081900360200190f35b34801561019857600080fd5b5061017a610563565b3480156101ad57600080fd5b5061017a610569565b3480156101c257600080fd5b5061017a61056f565b3480156101d757600080fd5b50610151610575565b3480156101ec57600080fd5b5061013a6004803603602081101561020357600080fd5b50356001600160a01b0316610590565b34801561021f57600080fd5b5061017a6106c9565b34801561023457600080fd5b5061013a6106cf565b34801561024957600080fd5b506101516107b2565b34801561025e57600080fd5b506102676107c6565b604080516001600160a01b039092168252519081900360200190f35b34801561028f57600080fd5b5061017a600480360360208110156102a657600080fd5b50356001600160a01b03166107d5565b3480156102c257600080fd5b506101516107f0565b3480156102d757600080fd5b5061017a610802565b3480156102ec57600080fd5b5061017a610808565b34801561030157600080fd5b5061015161080e565b34801561031657600080fd5b5061017a610817565b34801561032b57600080fd5b5061013a6004803603602081101561034257600080fd5b50356001600160a01b031661081d565b34801561035e57600080fd5b50610267610918565b61013a6004803603602081101561037d57600080fd5b50356001600160a01b03166103a6565b34801561039957600080fd5b50610267610927565b3390565b60005460ff1615156104025760408051600160e51b62461bcd02815260206004820152601f60248201527f5265656e7472616e637947756172643a207265656e7472616e742063616c6c00604482015290519081900360640190fd5b6000805460ff1916905534610417828261093b565b6000610422826109d1565b60045490915082101561046957604051600160e51b62461bcd0281526004018080602001828103825260258152602001806115366025913960400191505060405180910390fd5b6005548211156104ad57604051600160e51b62461bcd0281526004018080602001828103825260258152602001806113b26025913960400191505060405180910390fd5b6003546104c0908363ffffffff6109ee16565b6003556104cd8382610a52565b826001600160a01b03166104df6103a2565b6001600160a01b03167f6faf93231a456e552dbc9961f58d9713ee4f2e69d15f1975b050ef0911053a7b8484604051808381526020018281526020019250505060405180910390a361053183836109cd565b610539610b61565b61054383836109cd565b50506000805460ff1916600117905550565b600854421190565b60025490565b60065490565b600c5490565b60035490565b6000600754421015801561058b57506008544211155b905090565b610598610555565b15156105d857604051600160e51b62461bcd0281526004018080602001828103825260218152602001806114a26021913960400191505060405180910390fd5b6001600160a01b0381166000908152600a602052604090205480151561063257604051600160e51b62461bcd0281526004018080602001828103825260388152602001806113d76038913960400191505060405180910390fd5b6001600160a01b038083166000908152600a6020526040812055600b541663beabacc861065d610927565b6040805163ffffffff841660e01b81526001600160a01b03928316600482015291861660248301526044820185905251606480830192600092919082900301818387803b1580156106ad57600080fd5b505af11580156106c1573d6000803e3d6000fd5b505050505050565b60085490565b60095460ff161561071457604051600160e51b62461bcd0281526004018080602001828103825260278152602001806114306027913960400191505060405180910390fd5b61071c610555565b15156107725760408051600160e51b62461bcd02815260206004820181905260248201527f46696e616c697a61626c6543726f776473616c653a206e6f7420636c6f736564604482015290519081900360640190fd5b6009805460ff19166001179055610787610b63565b6040517f9270cc390c096600a1c17c44345a1ba689fafd99d97487b10cfccf86cf73183690600090a1565b60006006546107bf61056f565b1015905090565b6001546001600160a01b031690565b6001600160a01b03166000908152600a602052604090205490565b60006107fa610569565b6107bf61056f565b60055481565b60045481565b60095460ff1690565b60075490565b61082561080e565b151561086557604051600160e51b62461bcd0281526004018080602001828103825260228152602001806114c36022913960400191505060405180910390fd5b61086d6107f0565b156108ac57604051600160e51b62461bcd0281526004018080602001828103825260218152602001806114576021913960400191505060405180910390fd5b600d5460408051600160e01b6351cff8d90281526001600160a01b038481166004830152915191909216916351cff8d991602480830192600092919082900301818387803b1580156108fd57600080fd5b505af1158015610911573d6000803e3d6000fd5b5050505050565b600e546001600160a01b031681565b60005461010090046001600160a01b031690565b6109458282610d81565b600f5481101561098957604051600160e51b62461bcd02815260040180806020018281038252602781526020018061150f6027913960400191505060405180910390fd5b6010548111156109cd57604051600160e51b62461bcd02815260040180806020018281038252602681526020018061138c6026913960400191505060405180910390fd5b5050565b60006109e860025483610de990919063ffffffff16565b92915050565b600082820183811015610a4b5760408051600160e51b62461bcd02815260206004820152601b60248201527f536166654d6174683a206164646974696f6e206f766572666c6f770000000000604482015290519081900360640190fd5b9392505050565b600e546001600160a01b03166323b872dd83610a6c6107c6565b846040518463ffffffff1660e01b815260040180846001600160a01b03166001600160a01b03168152602001836001600160a01b03166001600160a01b031681526020018281526020019350505050602060405180830381600087803b158015610ad557600080fd5b505af1158015610ae9573d6000803e3d6000fd5b505050506040513d6020811015610aff57600080fd5b50511515610b575760408051600160e51b62461bcd02815260206004820152601760248201527f5472616e73666572206f662054555344206661696c6564000000000000000000604482015290519081900360640190fd5b6109cd8282610e49565b565b610b6b6107f0565b15610c7f57600e546001600160a01b031663a9059cbb610b896107c6565b600e5460408051600160e01b6370a0823102815230600482015290516001600160a01b03909216916370a0823191602480820192602092909190829003018186803b158015610bd757600080fd5b505afa158015610beb573d6000803e3d6000fd5b505050506040513d6020811015610c0157600080fd5b50516040805163ffffffff851660e01b81526001600160a01b03909316600484015260248301919091525160448083019260209291908290030181600087803b158015610c4d57600080fd5b505af1158015610c61573d6000803e3d6000fd5b505050506040513d6020811015610c7757600080fd5b50610d799050565b600e5460408051600160e01b6370a0823102815230600482015290516001600160a01b039092169163a9059cbb91339184916370a08231916024808301926020929190829003018186803b158015610cd657600080fd5b505afa158015610cea573d6000803e3d6000fd5b505050506040513d6020811015610d0057600080fd5b50516040805163ffffffff851660e01b81526001600160a01b03909316600484015260248301919091525160448083019260209291908290030181600087803b158015610d4c57600080fd5b505af1158015610d60573d6000803e3d6000fd5b505050506040513d6020811015610d7657600080fd5b50505b610b61610e9d565b610d89610575565b1515610ddf5760408051600160e51b62461bcd02815260206004820152601860248201527f54696d656443726f776473616c653a206e6f74206f70656e0000000000000000604482015290519081900360640190fd5b6109cd8282610ff0565b6000821515610dfa575060006109e8565b828202828482811515610e0957fe5b0414610a4b57604051600160e51b62461bcd02815260040180806020018281038252602181526020018061140f6021913960400191505060405180910390fd5b6001600160a01b0382166000908152600a6020526040902054610e72908263ffffffff6109ee16565b6001600160a01b038084166000908152600a6020526040902091909155600b546109cd91168261106b565b610ea56107f0565b15610f7f57600d60009054906101000a90046001600160a01b03166001600160a01b03166343d726d66040518163ffffffff1660e01b8152600401600060405180830381600087803b158015610efa57600080fd5b505af1158015610f0e573d6000803e3d6000fd5b50505050600d60009054906101000a90046001600160a01b03166001600160a01b0316639af6549a6040518163ffffffff1660e01b8152600401600060405180830381600087803b158015610f6257600080fd5b505af1158015610f76573d6000803e3d6000fd5b50505050610fe8565b600d60009054906101000a90046001600160a01b03166001600160a01b0316638c52dc416040518163ffffffff1660e01b8152600401600060405180830381600087803b158015610fcf57600080fd5b505af1158015610fe3573d6000803e3d6000fd5b505050505b610b61610b61565b610ffa8282611087565b6006546110158261100961056f565b9063ffffffff6109ee16565b11156109cd5760408051600160e51b62461bcd02815260206004820152601d60248201527f43617070656443726f776473616c653a20636170206578636565646564000000604482015290519081900360640190fd5b6000546109cd9061010090046001600160a01b03168383611128565b6001600160a01b03821615156110d157604051600160e51b62461bcd02815260040180806020018281038252602a815260200180611478602a913960400191505060405180910390fd5b8015156109cd5760408051600160e51b62461bcd02815260206004820152601960248201527f43726f776473616c653a20776569416d6f756e74206973203000000000000000604482015290519081900360640190fd5b604080516001600160a01b038416602482015260448082018490528251808303909101815260649091019091526020810180516001600160e01b0316600160e01b63a9059cbb0217905261117d908490611182565b505050565b611194826001600160a01b031661134f565b15156111ea5760408051600160e51b62461bcd02815260206004820152601f60248201527f5361666545524332303a2063616c6c20746f206e6f6e2d636f6e747261637400604482015290519081900360640190fd5b60006060836001600160a01b0316836040518082805190602001908083835b602083106112285780518252601f199092019160209182019101611209565b6001836020036101000a0380198251168184511680821785525050505050509050019150506000604051808303816000865af19150503d806000811461128a576040519150601f19603f3d011682016040523d82523d6000602084013e61128f565b606091505b50915091508115156112eb5760408051600160e51b62461bcd02815260206004820181905260248201527f5361666545524332303a206c6f772d6c6576656c2063616c6c206661696c6564604482015290519081900360640190fd5b8051156113495780806020019051602081101561130757600080fd5b5051151561134957604051600160e51b62461bcd02815260040180806020018281038252602a8152602001806114e5602a913960400191505060405180910390fd5b50505050565b6000813f7fc5d2460186f7233c927e7db2dcc703c0e500b653ca82273b7bfad8045d85a47081811480159061138357508115155b94935050505056fe436f6e747269627574696f6e206578636565647320746865206d6178696d756d206c696d697443726f776473616c653a2061626f7665206d6178696d756d20636f6e747269627574696f6e506f737444656c697665727943726f776473616c653a2062656e6566696369617279206973206e6f742064756520616e7920746f6b656e73536166654d6174683a206d756c7469706c69636174696f6e206f766572666c6f7746696e616c697a61626c6543726f776473616c653a20616c72656164792066696e616c697a6564526566756e6461626c6543726f776473616c653a20676f616c207265616368656443726f776473616c653a2062656e656669636961727920697320746865207a65726f2061646472657373506f737444656c697665727943726f776473616c653a206e6f7420636c6f736564526566756e6461626c6543726f776473616c653a206e6f742066696e616c697a65645361666545524332303a204552433230206f7065726174696f6e20646964206e6f742073756363656564436f6e747269627574696f6e2069732062656c6f7720746865206d696e696d756d206c696d697443726f776473616c653a2062656c6f77206d696e696d756d20636f6e747269627574696f6ea165627a7a7230582070bb01d78d5818a2c69113779c963d7d4b563cf4863def7e01337c25d60a76a500296080604052600061001461006f60201b60201c565b600080546001600160a01b0383166001600160a01b0319909116811790915560408051918252519192507f4101e71e974f68df5e9730cc223280b41654676bbb052cdcc735c3337e64d2d9919081900360200190a150610073565b3390565b610344806100826000396000f3fe608060405234801561001057600080fd5b50600436106100415760003560e01c80632348238c14610046578063beabacc81461006e578063c6dbdf61146100a4575b600080fd5b61006c6004803603602081101561005c57600080fd5b50356001600160a01b03166100c8565b005b61006c6004803603606081101561008457600080fd5b506001600160a01b038135811691602081013590911690604001356101c2565b6100ac6102af565b604080516001600160a01b039092168252519081900360200190f35b6000546001600160a01b03166100dc6102be565b6001600160a01b03161461012457604051600160e51b62461bcd02815260040180806020018281038252602c8152602001806102ed602c913960400191505060405180910390fd5b6001600160a01b038116151561016e57604051600160e51b62461bcd02815260040180806020018281038252602a8152602001806102c3602a913960400191505060405180910390fd5b600080546001600160a01b0383166001600160a01b0319909116811790915560408051918252517f4101e71e974f68df5e9730cc223280b41654676bbb052cdcc735c3337e64d2d99181900360200190a150565b6000546001600160a01b03166101d66102be565b6001600160a01b03161461021e57604051600160e51b62461bcd02815260040180806020018281038252602c8152602001806102ed602c913960400191505060405180910390fd5b826001600160a01b031663a9059cbb83836040518363ffffffff1660e01b815260040180836001600160a01b03166001600160a01b0316815260200182815260200192505050602060405180830381600087803b15801561027e57600080fd5b505af1158015610292573d6000803e3d6000fd5b505050506040513d60208110156102a857600080fd5b5050505050565b6000546001600160a01b031690565b339056fe5365636f6e646172793a206e6577207072696d61727920697320746865207a65726f20616464726573735365636f6e646172793a2063616c6c6572206973206e6f7420746865207072696d617279206163636f756e74a165627a7a72305820f37d84c7974b427c1e174bed8fbb4434d58063706b50bdf63b243a87b3db238c0029608060405234801561001057600080fd5b50604051604080610ec78339810180604052604081101561003057600080fd5b508051602091820151909160009061004b906101a5811b901c565b600080546001600160a01b0383166001600160a01b0319909116811790915560408051918252519192507f4101e71e974f68df5e9730cc223280b41654676bbb052cdcc735c3337e64d2d9919081900360200190a1506001600160a01b0382161515610102576040517f08c379a000000000000000000000000000000000000000000000000000000000815260040180806020018281038252602d815260200180610e9a602d913960400191505060405180910390fd5b6001600160a01b0381161515610163576040517f08c379a000000000000000000000000000000000000000000000000000000000815260040180806020018281038252602d815260200180610e6d602d913960400191505060405180910390fd5b60028054600380546001600160a01b0319166001600160a01b03948516179055610100600160a81b03191661010093909216929092021760ff191690556101a9565b3390565b610cb5806101b86000396000f3fe6080604052600436106100a75760003560e01c80638c52dc41116100645780638c52dc41146101d45780639af6549a146101e9578063c19d93fb146101fe578063c6dbdf6114610237578063e3a9db1a1461024c578063f340fa0114610291576100a7565b80632348238c146100ac57806338af3eed146100e157806343d726d61461011257806351cff8d9146101275780636809691a1461015a578063685ca1941461018d575b600080fd5b3480156100b857600080fd5b506100df600480360360208110156100cf57600080fd5b50356001600160a01b03166102b7565b005b3480156100ed57600080fd5b506100f66103b1565b604080516001600160a01b039092168252519081900360200190f35b34801561011e57600080fd5b506100df6103c5565b34801561013357600080fd5b506100df6004803603602081101561014a57600080fd5b50356001600160a01b03166104aa565b34801561016657600080fd5b506100df6004803603602081101561017d57600080fd5b50356001600160a01b03166104ff565b34801561019957600080fd5b506101c0600480360360208110156101b057600080fd5b50356001600160a01b03166105cc565b604080519115158252519081900360200190f35b3480156101e057600080fd5b506100df6105e8565b3480156101f557600080fd5b506100df6106ce565b34801561020a57600080fd5b50610213610758565b6040518082600281111561022357fe5b60ff16815260200191505060405180910390f35b34801561024357600080fd5b506100f6610761565b34801561025857600080fd5b5061027f6004803603602081101561026f57600080fd5b50356001600160a01b0316610770565b60408051918252519081900360200190f35b6100df600480360360208110156102a757600080fd5b50356001600160a01b031661078b565b6000546001600160a01b03166102cb6107e6565b6001600160a01b03161461031357604051600160e51b62461bcd02815260040180806020018281038252602c815260200180610c2c602c913960400191505060405180910390fd5b6001600160a01b038116151561035d57604051600160e51b62461bcd02815260040180806020018281038252602a815260200180610c02602a913960400191505060405180910390fd5b600080546001600160a01b0383166001600160a01b0319909116811790915560408051918252517f4101e71e974f68df5e9730cc223280b41654676bbb052cdcc735c3337e64d2d99181900360200190a150565b60025461010090046001600160a01b031690565b6000546001600160a01b03166103d96107e6565b6001600160a01b03161461042157604051600160e51b62461bcd02815260040180806020018281038252602c815260200180610c2c602c913960400191505060405180910390fd5b60006002805460ff169081111561043457fe5b1461047357604051600160e51b62461bcd028152600401808060200182810382526029815260200180610bd96029913960400191505060405180910390fd5b6002805460ff1916811790556040517f088672c3a6e342f7cd94a65ba63b79df24a8973927b4d05d803c44bbf787d12f90600090a1565b6104b3816105cc565b15156104f357604051600160e51b62461bcd028152600401808060200182810382526033815260200180610ba66033913960400191505060405180910390fd5b6104fc816107ea565b50565b6000546001600160a01b03166105136107e6565b6001600160a01b03161461055b57604051600160e51b62461bcd02815260040180806020018281038252602c815260200180610c2c602c913960400191505060405180910390fd5b6001600160a01b0381166000818152600160205260408120805491905590610589908263ffffffff6108d416565b6040805182815290516001600160a01b038416917f7084f5476618d8e60b11ef0d7d3f06914655adb8793e28ff7f018d4c76d505d5919081900360200190a25050565b600060016002805460ff16908111156105e157fe5b1492915050565b6000546001600160a01b03166105fc6107e6565b6001600160a01b03161461064457604051600160e51b62461bcd02815260040180806020018281038252602c815260200180610c2c602c913960400191505060405180910390fd5b60006002805460ff169081111561065757fe5b1461069657604051600160e51b62461bcd028152600401808060200182810382526032815260200180610c586032913960400191505060405180910390fd5b6002805460ff191660011790556040517f599d8e5a83cffb867d051598c4d70e805d59802d8081c1c7d6dffc5b6aca2b8990600090a1565b6002805460ff16818111156106df57fe5b1461071e57604051600160e51b62461bcd028152600401808060200182810382526038815260200180610b096038913960400191505060405180910390fd5b6003546040516001600160a01b0390911690303180156108fc02916000818181858888f193505050501580156104fc573d6000803e3d6000fd5b60025460ff1690565b6000546001600160a01b031690565b6001600160a01b031660009081526001602052604090205490565b60006002805460ff169081111561079e57fe5b146107dd57604051600160e51b62461bcd02815260040180806020018281038252602b815260200180610b7b602b913960400191505060405180910390fd5b6104fc816109c7565b3390565b6000546001600160a01b03166107fe6107e6565b6001600160a01b03161461084657604051600160e51b62461bcd02815260040180806020018281038252602c815260200180610c2c602c913960400191505060405180910390fd5b6001600160a01b038116600081815260016020526040808220805490839055905190929183156108fc02918491818181858888f19350505050158015610890573d6000803e3d6000fd5b506040805182815290516001600160a01b038416917f7084f5476618d8e60b11ef0d7d3f06914655adb8793e28ff7f018d4c76d505d5919081900360200190a25050565b303181111561092d5760408051600160e51b62461bcd02815260206004820152601d60248201527f416464726573733a20696e73756666696369656e742062616c616e6365000000604482015290519081900360640190fd5b6040516000906001600160a01b0384169083908381818185875af1925050503d8060008114610978576040519150601f19603f3d011682016040523d82523d6000602084013e61097d565b606091505b505090508015156109c257604051600160e51b62461bcd02815260040180806020018281038252603a815260200180610b41603a913960400191505060405180910390fd5b505050565b6000546001600160a01b03166109db6107e6565b6001600160a01b031614610a2357604051600160e51b62461bcd02815260040180806020018281038252602c815260200180610c2c602c913960400191505060405180910390fd5b6001600160a01b0381166000908152600160205260409020543490610a4e908263ffffffff610aa416565b6001600160a01b038316600081815260016020908152604091829020939093558051848152905191927f2da466a7b24304f47e87fa2e1e5a81b9831ce54fec19055ce277ca2f39ba42c492918290030190a25050565b600082820183811015610b015760408051600160e51b62461bcd02815260206004820152601b60248201527f536166654d6174683a206164646974696f6e206f766572666c6f770000000000604482015290519081900360640190fd5b939250505056fe526566756e64457363726f773a2062656e65666963696172792063616e206f6e6c79207769746864726177207768696c6520636c6f736564416464726573733a20756e61626c6520746f2073656e642076616c75652c20726563697069656e74206d61792068617665207265766572746564526566756e64457363726f773a2063616e206f6e6c79206465706f736974207768696c6520616374697665436f6e646974696f6e616c457363726f773a207061796565206973206e6f7420616c6c6f77656420746f207769746864726177526566756e64457363726f773a2063616e206f6e6c7920636c6f7365207768696c65206163746976655365636f6e646172793a206e6577207072696d61727920697320746865207a65726f20616464726573735365636f6e646172793a2063616c6c6572206973206e6f7420746865207072696d617279206163636f756e74526566756e64457363726f773a2063616e206f6e6c7920656e61626c6520726566756e6473207768696c6520616374697665a165627a7a72305820fb67be508c3f94c5f2bc109600e19e0bf5e11deeb783eba834bfa33fe80f61430029526566756e64457363726f773a2074686972642d706172747920697320746865207a65726f2061646472657373526566756e64457363726f773a2062656e656669636961727920697320746865207a65726f206164647265737354696d656443726f776473616c653a206f70656e696e672074696d65206973206265666f72652063757272656e742074696d6554696d656443726f776473616c653a206f70656e696e672074696d65206973206e6f74206265666f726520636c6f73696e672074696d6543726f776473616c653a20746f6b656e20697320746865207a65726f206164647265737343726f776473616c653a2077616c6c657420697320746865207a65726f2061646472657373",
  "linkReferences": {},
  "deployedLinkReferences": {}
}